{
  "contractName": "MockUniswapExchange",
  "abi": [
    {
      "inputs": [],
      "stateMutability": "nonpayable",
      "type": "constructor"
    },
    {
      "anonymous": false,
      "inputs": [
        {
          "indexed": true,
          "internalType": "address",
          "name": "stableCoin",
          "type": "address"
        }
      ],
      "name": "MockExchangeCreated",
      "type": "event"
    },
    {
      "inputs": [],
      "name": "tokenAddress",
      "outputs": [
        {
          "internalType": "address",
          "name": "token",
          "type": "address"
        }
      ],
      "stateMutability": "view",
      "type": "function"
    },
    {
      "inputs": [
        {
          "internalType": "uint256",
          "name": "min_tokens",
          "type": "uint256"
        },
        {
          "internalType": "uint256",
          "name": "deadline",
          "type": "uint256"
        }
      ],
      "name": "ethToTokenSwapInput",
      "outputs": [
        {
          "internalType": "uint256",
          "name": "tokens_bought",
          "type": "uint256"
        }
      ],
      "stateMutability": "payable",
      "type": "function"
    },
    {
      "inputs": [
        {
          "internalType": "uint256",
          "name": "tokens_sold",
          "type": "uint256"
        },
        {
          "internalType": "uint256",
          "name": "min_tokens_bought",
          "type": "uint256"
        },
        {
          "internalType": "uint256",
          "name": "min_eth_bought",
          "type": "uint256"
        },
        {
          "internalType": "uint256",
          "name": "deadline",
          "type": "uint256"
        },
        {
          "internalType": "address",
          "name": "token_addr",
          "type": "address"
        }
      ],
      "name": "tokenToTokenSwapInput",
      "outputs": [
        {
          "internalType": "uint256",
          "name": "tokens_bought",
          "type": "uint256"
        }
      ],
      "stateMutability": "nonpayable",
      "type": "function"
    },
    {
      "inputs": [
        {
          "internalType": "uint256",
          "name": "newRate",
          "type": "uint256"
        }
      ],
      "name": "setEthToTokenSwapRate",
      "outputs": [],
      "stateMutability": "nonpayable",
      "type": "function"
    }
  ],
  "bytecode": "0x608060405234801561001057600080fd5b5060405161001d90610166565b8080602001806020018381038352600b8152602001807f537461626c6520436f696e000000000000000000000000000000000000000000815250602001838103825260048152602001807f5354424c0000000000000000000000000000000000000000000000000000000081525060200192505050604051809103906000f0801580156100ae573d6000803e3d6000fd5b506000806101000a81548173ffffffffffffffffffffffffffffffffffffffff021916908373ffffffffffffffffffffffffffffffffffffffff1602179055506001808190555060016002819055506000809054906101000a900473ffffffffffffffffffffffffffffffffffffffff1673ffffffffffffffffffffffffffffffffffffffff167fb589ac0bdea06400f965e269b0625a60cc9b67b51aac778ed85b3968cff3883660405160405180910390a2610173565b6122c58061047b83390190565b6102f9806101826000396000f3fe60806040526004361061003f5760003560e01c806392a06eb4146100445780639d76ea581461007f578063ddf7e1a7146100d6578063f39b5b9b14610163575b600080fd5b34801561005057600080fd5b5061007d6004803603602081101561006757600080fd5b81019080803590602001909291905050506101af565b005b34801561008b57600080fd5b506100946101b9565b604051808273ffffffffffffffffffffffffffffffffffffffff1673ffffffffffffffffffffffffffffffffffffffff16815260200191505060405180910390f35b3480156100e257600080fd5b5061014d600480360360a08110156100f957600080fd5b8101908080359060200190929190803590602001909291908035906020019092919080359060200190929190803573ffffffffffffffffffffffffffffffffffffffff1690602001909291905050506101e2565b6040518082815260200191505060405180910390f35b6101996004803603604081101561017957600080fd5b8101908080359060200190929190803590602001909291905050506101f4565b6040518082815260200191505060405180910390f35b8060018190555050565b60008060009054906101000a900473ffffffffffffffffffffffffffffffffffffffff16905090565b60006002548602905095945050505050565b6000600154340290506000809054906101000a900473ffffffffffffffffffffffffffffffffffffffff1673ffffffffffffffffffffffffffffffffffffffff166340c10f1933836040518363ffffffff1660e01b8152600401808373ffffffffffffffffffffffffffffffffffffffff1673ffffffffffffffffffffffffffffffffffffffff16815260200182815260200192505050600060405180830381600087803b1580156102a557600080fd5b505af11580156102b9573d6000803e3d6000fd5b505050509291505056fea2646970667358221220d22d7784695c6f978932ea486fa0189bee23a7fcda25d46dd0e3a881708788c164736f6c6343000602003360806040523480156200001157600080fd5b50604051620022c5380380620022c5833981810160405260408110156200003757600080fd5b81019080805160405193929190846401000000008211156200005857600080fd5b838201915060208201858111156200006f57600080fd5b82518660018202830111640100000000821117156200008d57600080fd5b8083526020830192505050908051906020019080838360005b83811015620000c3578082015181840152602081019050620000a6565b50505050905090810190601f168015620000f15780820380516001836020036101000a031916815260200191505b50604052602001805160405193929190846401000000008211156200011557600080fd5b838201915060208201858111156200012c57600080fd5b82518660018202830111640100000000821117156200014a57600080fd5b8083526020830192505050908051906020019080838360005b838110156200018057808201518184015260208101905062000163565b50505050905090810190601f168015620001ae5780820380516001836020036101000a031916815260200191505b5060405250505081818160039080519060200190620001cf929190620003ed565b508060049080519060200190620001e8929190620003ed565b506012600560006101000a81548160ff021916908360ff16021790555050506200024e60405180807f4d494e5445525f524f4c45000000000000000000000000000000000000000000815250600b0190506040518091039020336200025660201b60201c565b50506200049c565b6200026882826200026c60201b60201c565b5050565b6200029b81600660008581526020019081526020016000206000016200031060201b620019c31790919060201c565b156200030c57620002b16200034860201b60201c565b73ffffffffffffffffffffffffffffffffffffffff168173ffffffffffffffffffffffffffffffffffffffff16837f2f8788117e7eff1d82e926ec794901d17c78024a50270940304540a733656f0d60405160405180910390a45b5050565b600062000340836000018373ffffffffffffffffffffffffffffffffffffffff1660001b6200035060201b60201c565b905092915050565b600033905090565b6000620003648383620003ca60201b60201c565b620003bf578260000182908060018154018082558091505060019003906000526020600020016000909190919091505582600001805490508360010160008481526020019081526020016000208190555060019050620003c4565b600090505b92915050565b600080836001016000848152602001908152602001600020541415905092915050565b828054600181600116156101000203166002900490600052602060002090601f016020900481019282601f106200043057805160ff191683800117855562000461565b8280016001018555821562000461579182015b828111156200046057825182559160200191906001019062000443565b5b50905062000470919062000474565b5090565b6200049991905b80821115620004955760008160009055506001016200047b565b5090565b90565b611e1980620004ac6000396000f3fe608060405234801561001057600080fd5b50600436106101375760003560e01c806370a08231116100b8578063a457c2d71161007c578063a457c2d714610656578063a9059cbb146106bc578063ca15c87314610722578063d539139314610764578063d547741f14610782578063dd62ed3e146107d057610137565b806370a082311461047f5780639010d07c146104d757806391d148541461054f57806395d89b41146105b5578063a217fddf1461063857610137565b80632f2ff15d116100ff5780632f2ff15d1461030b578063313ce5671461035957806336568abe1461037d57806339509351146103cb57806340c10f191461043157610137565b806306fdde031461013c578063095ea7b3146101bf57806318160ddd1461022557806323b872dd14610243578063248a9ca3146102c9575b600080fd5b610144610848565b6040518080602001828103825283818151815260200191508051906020019080838360005b83811015610184578082015181840152602081019050610169565b50505050905090810190601f1680156101b15780820380516001836020036101000a031916815260200191505b509250505060405180910390f35b61020b600480360360408110156101d557600080fd5b81019080803573ffffffffffffffffffffffffffffffffffffffff169060200190929190803590602001909291905050506108ea565b604051808215151515815260200191505060405180910390f35b61022d610908565b6040518082815260200191505060405180910390f35b6102af6004803603606081101561025957600080fd5b81019080803573ffffffffffffffffffffffffffffffffffffffff169060200190929190803573ffffffffffffffffffffffffffffffffffffffff16906020019092919080359060200190929190505050610912565b604051808215151515815260200191505060405180910390f35b6102f5600480360360208110156102df57600080fd5b81019080803590602001909291905050506109eb565b6040518082815260200191505060405180910390f35b6103576004803603604081101561032157600080fd5b8101908080359060200190929190803573ffffffffffffffffffffffffffffffffffffffff169060200190929190505050610a0b565b005b610361610a95565b604051808260ff1660ff16815260200191505060405180910390f35b6103c96004803603604081101561039357600080fd5b8101908080359060200190929190803573ffffffffffffffffffffffffffffffffffffffff169060200190929190505050610aac565b005b610417600480360360408110156103e157600080fd5b81019080803573ffffffffffffffffffffffffffffffffffffffff16906020019092919080359060200190929190505050610b45565b604051808215151515815260200191505060405180910390f35b61047d6004803603604081101561044757600080fd5b81019080803573ffffffffffffffffffffffffffffffffffffffff16906020019092919080359060200190929190505050610bf8565b005b6104c16004803603602081101561049557600080fd5b81019080803573ffffffffffffffffffffffffffffffffffffffff169060200190929190505050610cb7565b6040518082815260200191505060405180910390f35b61050d600480360360408110156104ed57600080fd5b810190808035906020019092919080359060200190929190505050610cff565b604051808273ffffffffffffffffffffffffffffffffffffffff1673ffffffffffffffffffffffffffffffffffffffff16815260200191505060405180910390f35b61059b6004803603604081101561056557600080fd5b8101908080359060200190929190803573ffffffffffffffffffffffffffffffffffffffff169060200190929190505050610d31565b604051808215151515815260200191505060405180910390f35b6105bd610d63565b6040518080602001828103825283818151815260200191508051906020019080838360005b838110156105fd5780820151818401526020810190506105e2565b50505050905090810190601f16801561062a5780820380516001836020036101000a031916815260200191505b509250505060405180910390f35b610640610e05565b6040518082815260200191505060405180910390f35b6106a26004803603604081101561066c57600080fd5b81019080803573ffffffffffffffffffffffffffffffffffffffff16906020019092919080359060200190929190505050610e0c565b604051808215151515815260200191505060405180910390f35b610708600480360360408110156106d257600080fd5b81019080803573ffffffffffffffffffffffffffffffffffffffff16906020019092919080359060200190929190505050610ed9565b604051808215151515815260200191505060405180910390f35b61074e6004803603602081101561073857600080fd5b8101908080359060200190929190505050610ef7565b6040518082815260200191505060405180910390f35b61076c610f1e565b6040518082815260200191505060405180910390f35b6107ce6004803603604081101561079857600080fd5b8101908080359060200190929190803573ffffffffffffffffffffffffffffffffffffffff169060200190929190505050610f57565b005b610832600480360360408110156107e657600080fd5b81019080803573ffffffffffffffffffffffffffffffffffffffff169060200190929190803573ffffffffffffffffffffffffffffffffffffffff169060200190929190505050610fe1565b6040518082815260200191505060405180910390f35b606060038054600181600116156101000203166002900480601f0160208091040260200160405190810160405280929190818152602001828054600181600116156101000203166002900480156108e05780601f106108b5576101008083540402835291602001916108e0565b820191906000526020600020905b8154815290600101906020018083116108c357829003601f168201915b5050505050905090565b60006108fe6108f7611068565b8484611070565b6001905092915050565b6000600254905090565b600061091f848484611267565b6109e08461092b611068565b6109db85604051806060016040528060288152602001611d1f60289139600160008b73ffffffffffffffffffffffffffffffffffffffff1673ffffffffffffffffffffffffffffffffffffffff1681526020019081526020016000206000610991611068565b73ffffffffffffffffffffffffffffffffffffffff1673ffffffffffffffffffffffffffffffffffffffff168152602001908152602001600020546115289092919063ffffffff16565b611070565b600190509392505050565b600060066000838152602001908152602001600020600201549050919050565b610a326006600084815260200190815260200160002060020154610a2d611068565b610d31565b610a87576040517f08c379a000000000000000000000000000000000000000000000000000000000815260040180806020018281038252602f815260200180611c78602f913960400191505060405180910390fd5b610a9182826115e8565b5050565b6000600560009054906101000a900460ff16905090565b610ab4611068565b73ffffffffffffffffffffffffffffffffffffffff168173ffffffffffffffffffffffffffffffffffffffff1614610b37576040517f08c379a000000000000000000000000000000000000000000000000000000000815260040180806020018281038252602f815260200180611db5602f913960400191505060405180910390fd5b610b41828261167c565b5050565b6000610bee610b52611068565b84610be98560016000610b63611068565b73ffffffffffffffffffffffffffffffffffffffff1673ffffffffffffffffffffffffffffffffffffffff16815260200190815260200160002060008973ffffffffffffffffffffffffffffffffffffffff1673ffffffffffffffffffffffffffffffffffffffff1681526020019081526020016000205461171090919063ffffffff16565b611070565b6001905092915050565b610c3760405180807f4d494e5445525f524f4c45000000000000000000000000000000000000000000815250600b019050604051809103902033610d31565b610ca9576040517f08c379a00000000000000000000000000000000000000000000000000000000081526004018080602001828103825260168152602001807f43616c6c6572206973206e6f742061206d696e7465720000000000000000000081525060200191505060405180910390fd5b610cb38282611798565b5050565b60008060008373ffffffffffffffffffffffffffffffffffffffff1673ffffffffffffffffffffffffffffffffffffffff168152602001908152602001600020549050919050565b6000610d29826006600086815260200190815260200160002060000161195f90919063ffffffff16565b905092915050565b6000610d5b826006600086815260200190815260200160002060000161197990919063ffffffff16565b905092915050565b606060048054600181600116156101000203166002900480601f016020809104026020016040519081016040528092919081815260200182805460018160011615610100020316600290048015610dfb5780601f10610dd057610100808354040283529160200191610dfb565b820191906000526020600020905b815481529060010190602001808311610dde57829003601f168201915b5050505050905090565b6000801b81565b6000610ecf610e19611068565b84610eca85604051806060016040528060258152602001611d906025913960016000610e43611068565b73ffffffffffffffffffffffffffffffffffffffff1673ffffffffffffffffffffffffffffffffffffffff16815260200190815260200160002060008a73ffffffffffffffffffffffffffffffffffffffff1673ffffffffffffffffffffffffffffffffffffffff168152602001908152602001600020546115289092919063ffffffff16565b611070565b6001905092915050565b6000610eed610ee6611068565b8484611267565b6001905092915050565b6000610f17600660008481526020019081526020016000206000016119a9565b9050919050565b60405180807f4d494e5445525f524f4c45000000000000000000000000000000000000000000815250600b019050604051809103902081565b610f7e6006600084815260200190815260200160002060020154610f79611068565b610d31565b610fd3576040517f08c379a0000000000000000000000000000000000000000000000000000000008152600401808060200182810382526030815260200180611cef6030913960400191505060405180910390fd5b610fdd828261167c565b5050565b6000600160008473ffffffffffffffffffffffffffffffffffffffff1673ffffffffffffffffffffffffffffffffffffffff16815260200190815260200160002060008373ffffffffffffffffffffffffffffffffffffffff1673ffffffffffffffffffffffffffffffffffffffff16815260200190815260200160002054905092915050565b600033905090565b600073ffffffffffffffffffffffffffffffffffffffff168373ffffffffffffffffffffffffffffffffffffffff1614156110f6576040517f08c379a0000000000000000000000000000000000000000000000000000000008152600401808060200182810382526024815260200180611d6c6024913960400191505060405180910390fd5b600073ffffffffffffffffffffffffffffffffffffffff168273ffffffffffffffffffffffffffffffffffffffff16141561117c576040517f08c379a0000000000000000000000000000000000000000000000000000000008152600401808060200182810382526022815260200180611ca76022913960400191505060405180910390fd5b80600160008573ffffffffffffffffffffffffffffffffffffffff1673ffffffffffffffffffffffffffffffffffffffff16815260200190815260200160002060008473ffffffffffffffffffffffffffffffffffffffff1673ffffffffffffffffffffffffffffffffffffffff168152602001908152602001600020819055508173ffffffffffffffffffffffffffffffffffffffff168373ffffffffffffffffffffffffffffffffffffffff167f8c5be1e5ebec7d5bd14f71427d1e84f3dd0314c0f7b2291e5b200ac8c7c3b925836040518082815260200191505060405180910390a3505050565b600073ffffffffffffffffffffffffffffffffffffffff168373ffffffffffffffffffffffffffffffffffffffff1614156112ed576040517f08c379a0000000000000000000000000000000000000000000000000000000008152600401808060200182810382526025815260200180611d476025913960400191505060405180910390fd5b600073ffffffffffffffffffffffffffffffffffffffff168273ffffffffffffffffffffffffffffffffffffffff161415611373576040517f08c379a0000000000000000000000000000000000000000000000000000000008152600401808060200182810382526023815260200180611c556023913960400191505060405180910390fd5b61137e8383836119be565b6113e981604051806060016040528060268152602001611cc9602691396000808773ffffffffffffffffffffffffffffffffffffffff1673ffffffffffffffffffffffffffffffffffffffff168152602001908152602001600020546115289092919063ffffffff16565b6000808573ffffffffffffffffffffffffffffffffffffffff1673ffffffffffffffffffffffffffffffffffffffff1681526020019081526020016000208190555061147c816000808573ffffffffffffffffffffffffffffffffffffffff1673ffffffffffffffffffffffffffffffffffffffff1681526020019081526020016000205461171090919063ffffffff16565b6000808473ffffffffffffffffffffffffffffffffffffffff1673ffffffffffffffffffffffffffffffffffffffff168152602001908152602001600020819055508173ffffffffffffffffffffffffffffffffffffffff168373ffffffffffffffffffffffffffffffffffffffff167fddf252ad1be2c89b69c2b068fc378daa952ba7f163c4a11628f55a4df523b3ef836040518082815260200191505060405180910390a3505050565b60008383111582906115d5576040517f08c379a00000000000000000000000000000000000000000000000000000000081526004018080602001828103825283818151815260200191508051906020019080838360005b8381101561159a57808201518184015260208101905061157f565b50505050905090810190601f1680156115c75780820380516001836020036101000a031916815260200191505b509250505060405180910390fd5b5060008385039050809150509392505050565b61161081600660008581526020019081526020016000206000016119c390919063ffffffff16565b156116785761161d611068565b73ffffffffffffffffffffffffffffffffffffffff168173ffffffffffffffffffffffffffffffffffffffff16837f2f8788117e7eff1d82e926ec794901d17c78024a50270940304540a733656f0d60405160405180910390a45b5050565b6116a481600660008581526020019081526020016000206000016119f390919063ffffffff16565b1561170c576116b1611068565b73ffffffffffffffffffffffffffffffffffffffff168173ffffffffffffffffffffffffffffffffffffffff16837ff6391f5c32d9c69d2a47ea670b442974b53935d1edc7fd64eb21e047a839171b60405160405180910390a45b5050565b60008082840190508381101561178e576040517f08c379a000000000000000000000000000000000000000000000000000000000815260040180806020018281038252601b8152602001807f536166654d6174683a206164646974696f6e206f766572666c6f77000000000081525060200191505060405180910390fd5b8091505092915050565b600073ffffffffffffffffffffffffffffffffffffffff168273ffffffffffffffffffffffffffffffffffffffff16141561183b576040517f08c379a000000000000000000000000000000000000000000000000000000000815260040180806020018281038252601f8152602001807f45524332303a206d696e7420746f20746865207a65726f20616464726573730081525060200191505060405180910390fd5b611847600083836119be565b61185c8160025461171090919063ffffffff16565b6002819055506118b3816000808573ffffffffffffffffffffffffffffffffffffffff1673ffffffffffffffffffffffffffffffffffffffff1681526020019081526020016000205461171090919063ffffffff16565b6000808473ffffffffffffffffffffffffffffffffffffffff1673ffffffffffffffffffffffffffffffffffffffff168152602001908152602001600020819055508173ffffffffffffffffffffffffffffffffffffffff16600073ffffffffffffffffffffffffffffffffffffffff167fddf252ad1be2c89b69c2b068fc378daa952ba7f163c4a11628f55a4df523b3ef836040518082815260200191505060405180910390a35050565b600061196e8360000183611a23565b60001c905092915050565b60006119a1836000018373ffffffffffffffffffffffffffffffffffffffff1660001b611aa6565b905092915050565b60006119b782600001611ac9565b9050919050565b505050565b60006119eb836000018373ffffffffffffffffffffffffffffffffffffffff1660001b611ada565b905092915050565b6000611a1b836000018373ffffffffffffffffffffffffffffffffffffffff1660001b611b4a565b905092915050565b600081836000018054905011611a84576040517f08c379a0000000000000000000000000000000000000000000000000000000008152600401808060200182810382526022815260200180611c336022913960400191505060405180910390fd5b826000018281548110611a9357fe5b9060005260206000200154905092915050565b600080836001016000848152602001908152602001600020541415905092915050565b600081600001805490509050919050565b6000611ae68383611aa6565b611b3f578260000182908060018154018082558091505060019003906000526020600020016000909190919091505582600001805490508360010160008481526020019081526020016000208190555060019050611b44565b600090505b92915050565b60008083600101600084815260200190815260200160002054905060008114611c265760006001820390506000600186600001805490500390506000866000018281548110611b9557fe5b9060005260206000200154905080876000018481548110611bb257fe5b9060005260206000200181905550600183018760010160008381526020019081526020016000208190555086600001805480611bea57fe5b60019003818190600052602060002001600090559055866001016000878152602001908152602001600020600090556001945050505050611c2c565b60009150505b9291505056fe456e756d657261626c655365743a20696e646578206f7574206f6620626f756e647345524332303a207472616e7366657220746f20746865207a65726f2061646472657373416363657373436f6e74726f6c3a2073656e646572206d75737420626520616e2061646d696e20746f206772616e7445524332303a20617070726f766520746f20746865207a65726f206164647265737345524332303a207472616e7366657220616d6f756e7420657863656564732062616c616e6365416363657373436f6e74726f6c3a2073656e646572206d75737420626520616e2061646d696e20746f207265766f6b6545524332303a207472616e7366657220616d6f756e74206578636565647320616c6c6f77616e636545524332303a207472616e736665722066726f6d20746865207a65726f206164647265737345524332303a20617070726f76652066726f6d20746865207a65726f206164647265737345524332303a2064656372656173656420616c6c6f77616e63652062656c6f77207a65726f416363657373436f6e74726f6c3a2063616e206f6e6c792072656e6f756e636520726f6c657320666f722073656c66a2646970667358221220d59556f138037512da972202388426549c3e146807f6cea82878d2118e39e65064736f6c63430006020033",
  "source": "pragma solidity >=0.6.0 <0.7.0;\n\nimport \"../interfaces/IUniswapExchange.sol\";\nimport \"./MockStableCoin.sol\";\nimport \"@openzeppelin/contracts/token/ERC20/ERC20.sol\";\n\ncontract MockUniswapExchange is IUniswapExchange {\n    MockStableCoin _exchangeToken;\n    uint _ethToTokenSwapRate;\n    uint _tokenToTokenSwapRate;\n\n    event MockExchangeCreated(address indexed stableCoin);\n\n    constructor () \n        public \n    {\n        _exchangeToken = new MockStableCoin(\"Stable Coin\", \"STBL\");\n        _ethToTokenSwapRate = 1;\n        _tokenToTokenSwapRate = 1;\n        emit MockExchangeCreated(address(_exchangeToken));\n    }\n\n    // Address of ERC20 token sold on this exchange\n    function tokenAddress() \n        external \n        view \n        override \n        returns (address token) \n    {\n        return address(_exchangeToken);\n    }\n\n    // Trade ETH to ERC20\n    function ethToTokenSwapInput(uint256 min_tokens, uint256 deadline) \n        external \n        payable \n        override\n        returns (uint256 tokens_bought) \n    {\n        tokens_bought = msg.value * _ethToTokenSwapRate;\n        _exchangeToken.mint(msg.sender, tokens_bought);\n    }\n\n    // Trade ERC20 to ERC20\n    function tokenToTokenSwapInput(uint256 tokens_sold, uint256 min_tokens_bought, uint256 min_eth_bought, uint256 deadline, address token_addr) \n        external \n        override\n        returns (uint256  tokens_bought) \n    {\n        return tokens_sold * _tokenToTokenSwapRate;\n    }\n\n    function setEthToTokenSwapRate(uint newRate) \n        external\n    {\n        _ethToTokenSwapRate = newRate;\n    }\n}\n",
  "sourcePath": "/Users/mmv/projects/simple-pos/simple-pos-contracts/contracts/test-helpers/MockUniswapExchange.sol",
  "compiler": {
    "name": "solc",
    "version": "0.6.2+commit.bacdbe57.Emscripten.clang"
  },
  "schemaVersion": "3.3.1",
  "updatedAt": "2020-10-16T09:47:38.454Z",
  "devdoc": {
    "methods": {}
  },
  "userdoc": {
    "methods": {}
  }
}