{
  "contractName": "SimplePOS",
  "abi": [
    {
      "inputs": [
        {
          "internalType": "contract IUniswapExchange",
          "name": "_exchange",
          "type": "address"
        },
        {
          "internalType": "string",
          "name": "_sposTokenName",
          "type": "string"
        },
        {
          "internalType": "string",
          "name": "_sposTokenSymbol",
          "type": "string"
        },
        {
          "internalType": "uint256",
          "name": "_initialRatio",
          "type": "uint256"
        },
        {
          "internalType": "uint256",
          "name": "_commission",
          "type": "uint256"
        },
        {
          "internalType": "uint256",
          "name": "_curveCoefficient",
          "type": "uint256"
        }
      ],
      "stateMutability": "payable",
      "type": "constructor"
    },
    {
      "inputs": [],
      "name": "commission",
      "outputs": [
        {
          "internalType": "uint256",
          "name": "",
          "type": "uint256"
        }
      ],
      "stateMutability": "view",
      "type": "function"
    },
    {
      "inputs": [],
      "name": "curveCoefficient",
      "outputs": [
        {
          "internalType": "uint256",
          "name": "",
          "type": "uint256"
        }
      ],
      "stateMutability": "view",
      "type": "function"
    },
    {
      "inputs": [],
      "name": "exchange",
      "outputs": [
        {
          "internalType": "contract IUniswapExchange",
          "name": "",
          "type": "address"
        }
      ],
      "stateMutability": "view",
      "type": "function"
    },
    {
      "inputs": [],
      "name": "owner",
      "outputs": [
        {
          "internalType": "address payable",
          "name": "",
          "type": "address"
        }
      ],
      "stateMutability": "view",
      "type": "function"
    },
    {
      "inputs": [],
      "name": "sposToken",
      "outputs": [
        {
          "internalType": "contract SimplePOSToken",
          "name": "",
          "type": "address"
        }
      ],
      "stateMutability": "view",
      "type": "function"
    },
    {
      "inputs": [],
      "name": "subscription",
      "outputs": [
        {
          "internalType": "contract Subscription",
          "name": "",
          "type": "address"
        }
      ],
      "stateMutability": "view",
      "type": "function"
    },
    {
      "stateMutability": "payable",
      "type": "receive"
    },
    {
      "inputs": [
        {
          "internalType": "uint256",
          "name": "_amount",
          "type": "uint256"
        }
      ],
      "name": "exchangeSposTokensOnBonusTokens",
      "outputs": [],
      "stateMutability": "nonpayable",
      "type": "function"
    },
    {
      "inputs": [
        {
          "internalType": "address",
          "name": "_from",
          "type": "address"
        },
        {
          "internalType": "uint256",
          "name": "_tokenAmount",
          "type": "uint256"
        },
        {
          "internalType": "uint256",
          "name": "_periodSeconds",
          "type": "uint256"
        },
        {
          "internalType": "bytes",
          "name": "_signature",
          "type": "bytes"
        }
      ],
      "name": "executeSubscription",
      "outputs": [
        {
          "internalType": "bool",
          "name": "success",
          "type": "bool"
        }
      ],
      "stateMutability": "nonpayable",
      "type": "function"
    },
    {
      "inputs": [],
      "name": "getBonusTokenAddress",
      "outputs": [
        {
          "internalType": "address",
          "name": "",
          "type": "address"
        }
      ],
      "stateMutability": "view",
      "type": "function"
    }
  ],
  "bytecode": "0x60806040526040516200694e3803806200694e833981810160405260c08110156200002957600080fd5b8101908080519060200190929190805160405193929190846401000000008211156200005457600080fd5b838201915060208201858111156200006b57600080fd5b82518660018202830111640100000000821117156200008957600080fd5b8083526020830192505050908051906020019080838360005b83811015620000bf578082015181840152602081019050620000a2565b50505050905090810190601f168015620000ed5780820380516001836020036101000a031916815260200191505b50604052602001805160405193929190846401000000008211156200011157600080fd5b838201915060208201858111156200012857600080fd5b82518660018202830111640100000000821117156200014657600080fd5b8083526020830192505050908051906020019080838360005b838110156200017c5780820151818401526020810190506200015f565b50505050905090810190601f168015620001aa5780820380516001836020036101000a031916815260200191505b50604052602001805190602001909291908051906020019092919080519060200190929190505050600034116200022d576040517f08c379a0000000000000000000000000000000000000000000000000000000008152600401808060200182810382526029815260200180620069256029913960400191505060405180910390fd5b60008311620002a4576040517f08c379a00000000000000000000000000000000000000000000000000000000081526004018080602001828103825260208152602001807f496e697469616c20726174696f2073686f756c6420626520706f73697469766581525060200191505060405180910390fd5b612710821062000300576040517f08c379a0000000000000000000000000000000000000000000000000000000008152600401808060200182810382526023815260200180620068e16023913960400191505060405180910390fd5b61271081106200035c576040517f08c379a000000000000000000000000000000000000000000000000000000000815260040180806020018281038252602a815260200180620068b7602a913960400191505060405180910390fd5b336000806101000a81548173ffffffffffffffffffffffffffffffffffffffff021916908373ffffffffffffffffffffffffffffffffffffffff16021790555085600160006101000a81548173ffffffffffffffffffffffffffffffffffffffff021916908373ffffffffffffffffffffffffffffffffffffffff1602179055508484604051620003ed906200090b565b808060200180602001838103835285818151815260200191508051906020019080838360005b838110156200043057808201518184015260208101905062000413565b50505050905090810190601f1680156200045e5780820380516001836020036101000a031916815260200191505b50838103825284818151815260200191508051906020019080838360005b83811015620004995780820151818401526020810190506200047c565b50505050905090810190601f168015620004c75780820380516001836020036101000a031916815260200191505b50945050505050604051809103906000f080158015620004eb573d6000803e3d6000fd5b50600260006101000a81548173ffffffffffffffffffffffffffffffffffffffff021916908373ffffffffffffffffffffffffffffffffffffffff16021790555081600481905550806005819055506000600160009054906101000a900473ffffffffffffffffffffffffffffffffffffffff1673ffffffffffffffffffffffffffffffffffffffff1663f39b5b9b346000426040518463ffffffff1660e01b815260040180838152602001828152602001925050506020604051808303818588803b158015620005bb57600080fd5b505af1158015620005d0573d6000803e3d6000fd5b50505050506040513d6020811015620005e857600080fd5b8101908080519060200190929190505050905060006200061785836200088060201b620005361790919060201c565b9050600260009054906101000a900473ffffffffffffffffffffffffffffffffffffffff1673ffffffffffffffffffffffffffffffffffffffff166340c10f1933836040518363ffffffff1660e01b8152600401808373ffffffffffffffffffffffffffffffffffffffff1673ffffffffffffffffffffffffffffffffffffffff16815260200182815260200192505050600060405180830381600087803b158015620006c357600080fd5b505af1158015620006d8573d6000803e3d6000fd5b5050505030600160009054906101000a900473ffffffffffffffffffffffffffffffffffffffff1673ffffffffffffffffffffffffffffffffffffffff16639d76ea586040518163ffffffff1660e01b815260040160206040518083038186803b1580156200074657600080fd5b505afa1580156200075b573d6000803e3d6000fd5b505050506040513d60208110156200077257600080fd5b81019080805190602001909291905050506000806000604051620007969062000919565b808673ffffffffffffffffffffffffffffffffffffffff1673ffffffffffffffffffffffffffffffffffffffff1681526020018573ffffffffffffffffffffffffffffffffffffffff1673ffffffffffffffffffffffffffffffffffffffff16815260200184815260200183815260200182815260200195505050505050604051809103906000f08015801562000831573d6000803e3d6000fd5b50600360006101000a81548173ffffffffffffffffffffffffffffffffffffffff021916908373ffffffffffffffffffffffffffffffffffffffff160217905550505050505050505062000927565b60008083141562000895576000905062000905565b6000828402905082848281620008a757fe5b041462000900576040517f08c379a0000000000000000000000000000000000000000000000000000000008152600401808060200182810382526021815260200180620069046021913960400191505060405180910390fd5b809150505b92915050565b61262e8062001f8683390190565b61230380620045b483390190565b61164f80620009376000396000f3fe60806040526004361061008a5760003560e01c8063ac2c03a311610059578063ac2c03a3146103f7578063d0524d621461044e578063d2f7265a14610479578063df202b9e146104d0578063e14891911461050b5761021b565b806306af92eb1461022057806344387cc2146102f25780638da5cb5b146103495780639fee1ade146103a05761021b565b3661021b5760006100ba6127106100ac6004543461053690919063ffffffff16565b6105bc90919063ffffffff16565b90506000809054906101000a900473ffffffffffffffffffffffffffffffffffffffff1673ffffffffffffffffffffffffffffffffffffffff166108fc61010a833461060690919063ffffffff16565b9081150290604051600060405180830381858888f19350505050158015610135573d6000803e3d6000fd5b506000806000610143610650565b9250925092506000600160009054906101000a900473ffffffffffffffffffffffffffffffffffffffff1673ffffffffffffffffffffffffffffffffffffffff1663f39b5b9b866000426040518463ffffffff1660e01b815260040180838152602001828152602001925050506020604051808303818588803b1580156101c957600080fd5b505af11580156101dd573d6000803e3d6000fd5b50505050506040513d60208110156101f457600080fd5b810190808051906020019092919050505090506102148185858533610884565b5050505050005b600080fd5b34801561022c57600080fd5b506102d86004803603608081101561024357600080fd5b81019080803573ffffffffffffffffffffffffffffffffffffffff16906020019092919080359060200190929190803590602001909291908035906020019064010000000081111561029457600080fd5b8201836020820111156102a657600080fd5b803590602001918460018302840111640100000000831117156102c857600080fd5b90919293919293905050506109ac565b604051808215151515815260200191505060405180910390f35b3480156102fe57600080fd5b50610307610e46565b604051808273ffffffffffffffffffffffffffffffffffffffff1673ffffffffffffffffffffffffffffffffffffffff16815260200191505060405180910390f35b34801561035557600080fd5b5061035e610e6c565b604051808273ffffffffffffffffffffffffffffffffffffffff1673ffffffffffffffffffffffffffffffffffffffff16815260200191505060405180910390f35b3480156103ac57600080fd5b506103b5610e91565b604051808273ffffffffffffffffffffffffffffffffffffffff1673ffffffffffffffffffffffffffffffffffffffff16815260200191505060405180910390f35b34801561040357600080fd5b5061040c610eb7565b604051808273ffffffffffffffffffffffffffffffffffffffff1673ffffffffffffffffffffffffffffffffffffffff16815260200191505060405180910390f35b34801561045a57600080fd5b50610463610f61565b6040518082815260200191505060405180910390f35b34801561048557600080fd5b5061048e610f67565b604051808273ffffffffffffffffffffffffffffffffffffffff1673ffffffffffffffffffffffffffffffffffffffff16815260200191505060405180910390f35b3480156104dc57600080fd5b50610509600480360360208110156104f357600080fd5b8101908080359060200190929190505050610f8d565b005b34801561051757600080fd5b50610520611439565b6040518082815260200191505060405180910390f35b60008083141561054957600090506105b6565b600082840290508284828161055a57fe5b04146105b1576040517f08c379a00000000000000000000000000000000000000000000000000000000081526004018080602001828103825260218152602001806115f96021913960400191505060405180910390fd5b809150505b92915050565b60006105fe83836040518060400160405280601a81526020017f536166654d6174683a206469766973696f6e206279207a65726f00000000000081525061143f565b905092915050565b600061064883836040518060400160405280601e81526020017f536166654d6174683a207375627472616374696f6e206f766572666c6f770000815250611505565b905092915050565b6000806000600160009054906101000a900473ffffffffffffffffffffffffffffffffffffffff1673ffffffffffffffffffffffffffffffffffffffff16639d76ea586040518163ffffffff1660e01b815260040160206040518083038186803b1580156106bd57600080fd5b505afa1580156106d1573d6000803e3d6000fd5b505050506040513d60208110156106e757600080fd5b810190808051906020019092919050505073ffffffffffffffffffffffffffffffffffffffff166370a08231306040518263ffffffff1660e01b8152600401808273ffffffffffffffffffffffffffffffffffffffff1673ffffffffffffffffffffffffffffffffffffffff16815260200191505060206040518083038186803b15801561077457600080fd5b505afa158015610788573d6000803e3d6000fd5b505050506040513d602081101561079e57600080fd5b81019080805190602001909291905050509250600260009054906101000a900473ffffffffffffffffffffffffffffffffffffffff1673ffffffffffffffffffffffffffffffffffffffff166318160ddd6040518163ffffffff1660e01b815260040160206040518083038186803b15801561081957600080fd5b505afa15801561082d573d6000803e3d6000fd5b505050506040513d602081101561084357600080fd5b8101908080519060200190929190505050915061087d8261086f6127108661053690919063ffffffff16565b6105bc90919063ffffffff16565b9050909192565b60006108af6127106108a16005548961053690919063ffffffff16565b6105bc90919063ffffffff16565b8686010390506000846108df856108d16127108661053690919063ffffffff16565b6105bc90919063ffffffff16565b039050600260009054906101000a900473ffffffffffffffffffffffffffffffffffffffff1673ffffffffffffffffffffffffffffffffffffffff166340c10f1984836040518363ffffffff1660e01b8152600401808373ffffffffffffffffffffffffffffffffffffffff1673ffffffffffffffffffffffffffffffffffffffff16815260200182815260200192505050600060405180830381600087803b15801561098b57600080fd5b505af115801561099f573d6000803e3d6000fd5b5050505050505050505050565b6000806000806109ba610650565b925092509250600360009054906101000a900473ffffffffffffffffffffffffffffffffffffffff1673ffffffffffffffffffffffffffffffffffffffff1663d3c576cd8a30600160009054906101000a900473ffffffffffffffffffffffffffffffffffffffff1673ffffffffffffffffffffffffffffffffffffffff16639d76ea586040518163ffffffff1660e01b815260040160206040518083038186803b158015610a6857600080fd5b505afa158015610a7c573d6000803e3d6000fd5b505050506040513d6020811015610a9257600080fd5b81019080805190602001909291905050508c8c6000808e8e6040518a63ffffffff1660e01b8152600401808a73ffffffffffffffffffffffffffffffffffffffff1673ffffffffffffffffffffffffffffffffffffffff1681526020018973ffffffffffffffffffffffffffffffffffffffff1673ffffffffffffffffffffffffffffffffffffffff1681526020018873ffffffffffffffffffffffffffffffffffffffff1673ffffffffffffffffffffffffffffffffffffffff168152602001878152602001868152602001858152602001848152602001806020018281038252848482818152602001925080828437600081840152601f19601f8201169050808301925050509a5050505050505050505050602060405180830381600087803b158015610bc057600080fd5b505af1158015610bd4573d6000803e3d6000fd5b505050506040513d6020811015610bea57600080fd5b8101908080519060200190929190505050610c6d576040517f08c379a000000000000000000000000000000000000000000000000000000000815260040180806020018281038252601f8152602001807f436f756c64206e6f74206578656375746520737562736372697074696f6e2e0081525060200191505060405180910390fd5b6000610c9c612710610c8e600454612710038c61053690919063ffffffff16565b6105bc90919063ffffffff16565b90506000600160009054906101000a900473ffffffffffffffffffffffffffffffffffffffff1673ffffffffffffffffffffffffffffffffffffffff16639d76ea586040518163ffffffff1660e01b815260040160206040518083038186803b158015610d0857600080fd5b505afa158015610d1c573d6000803e3d6000fd5b505050506040513d6020811015610d3257600080fd5b810190808051906020019092919050505090508073ffffffffffffffffffffffffffffffffffffffff1663a9059cbb6000809054906101000a900473ffffffffffffffffffffffffffffffffffffffff16846040518363ffffffff1660e01b8152600401808373ffffffffffffffffffffffffffffffffffffffff1673ffffffffffffffffffffffffffffffffffffffff16815260200182815260200192505050602060405180830381600087803b158015610ded57600080fd5b505af1158015610e01573d6000803e3d6000fd5b505050506040513d6020811015610e1757600080fd5b810190808051906020019092919050505050610e38828b038686868f610884565b505050505095945050505050565b600360009054906101000a900473ffffffffffffffffffffffffffffffffffffffff1681565b6000809054906101000a900473ffffffffffffffffffffffffffffffffffffffff1681565b600260009054906101000a900473ffffffffffffffffffffffffffffffffffffffff1681565b6000600160009054906101000a900473ffffffffffffffffffffffffffffffffffffffff1673ffffffffffffffffffffffffffffffffffffffff16639d76ea586040518163ffffffff1660e01b815260040160206040518083038186803b158015610f2157600080fd5b505afa158015610f35573d6000803e3d6000fd5b505050506040513d6020811015610f4b57600080fd5b8101908080519060200190929190505050905090565b60055481565b600160009054906101000a900473ffffffffffffffffffffffffffffffffffffffff1681565b600260009054906101000a900473ffffffffffffffffffffffffffffffffffffffff1673ffffffffffffffffffffffffffffffffffffffff166318160ddd6040518163ffffffff1660e01b815260040160206040518083038186803b158015610ff557600080fd5b505afa158015611009573d6000803e3d6000fd5b505050506040513d602081101561101f57600080fd5b81019080805190602001909291905050508110611087576040517f08c379a00000000000000000000000000000000000000000000000000000000081526004018080602001828103825260338152602001806115c66033913960400191505060405180910390fd5b6000600160009054906101000a900473ffffffffffffffffffffffffffffffffffffffff1673ffffffffffffffffffffffffffffffffffffffff16639d76ea586040518163ffffffff1660e01b815260040160206040518083038186803b1580156110f157600080fd5b505afa158015611105573d6000803e3d6000fd5b505050506040513d602081101561111b57600080fd5b8101908080519060200190929190505050905060006112ae600260009054906101000a900473ffffffffffffffffffffffffffffffffffffffff1673ffffffffffffffffffffffffffffffffffffffff166318160ddd6040518163ffffffff1660e01b815260040160206040518083038186803b15801561119b57600080fd5b505afa1580156111af573d6000803e3d6000fd5b505050506040513d60208110156111c557600080fd5b81019080805190602001909291905050506112a08473ffffffffffffffffffffffffffffffffffffffff166370a08231306040518263ffffffff1660e01b8152600401808273ffffffffffffffffffffffffffffffffffffffff1673ffffffffffffffffffffffffffffffffffffffff16815260200191505060206040518083038186803b15801561125657600080fd5b505afa15801561126a573d6000803e3d6000fd5b505050506040513d602081101561128057600080fd5b81019080805190602001909291905050508661053690919063ffffffff16565b6105bc90919063ffffffff16565b9050600260009054906101000a900473ffffffffffffffffffffffffffffffffffffffff1673ffffffffffffffffffffffffffffffffffffffff16639dc29fac33856040518363ffffffff1660e01b8152600401808373ffffffffffffffffffffffffffffffffffffffff1673ffffffffffffffffffffffffffffffffffffffff16815260200182815260200192505050600060405180830381600087803b15801561135957600080fd5b505af115801561136d573d6000803e3d6000fd5b505050508173ffffffffffffffffffffffffffffffffffffffff1663a9059cbb33836040518363ffffffff1660e01b8152600401808373ffffffffffffffffffffffffffffffffffffffff1673ffffffffffffffffffffffffffffffffffffffff16815260200182815260200192505050602060405180830381600087803b1580156113f857600080fd5b505af115801561140c573d6000803e3d6000fd5b505050506040513d602081101561142257600080fd5b810190808051906020019092919050505050505050565b60045481565b600080831182906114eb576040517f08c379a00000000000000000000000000000000000000000000000000000000081526004018080602001828103825283818151815260200191508051906020019080838360005b838110156114b0578082015181840152602081019050611495565b50505050905090810190601f1680156114dd5780820380516001836020036101000a031916815260200191505b509250505060405180910390fd5b5060008385816114f757fe5b049050809150509392505050565b60008383111582906115b2576040517f08c379a00000000000000000000000000000000000000000000000000000000081526004018080602001828103825283818151815260200191508051906020019080838360005b8381101561157757808201518184015260208101905061155c565b50505050905090810190601f1680156115a45780820380516001836020036101000a031916815260200191505b509250505060405180910390fd5b506000838503905080915050939250505056fe53504f5320746f6b656e20616d6f756e742073686f756c64206265206c657373207468616e20746f74616c20737570706c792e536166654d6174683a206d756c7469706c69636174696f6e206f766572666c6f77a26469706673582212203befc9f54e5c87cc17b99d15bc613cb87fa5aadfd0863d507ec1ed7a0981402264736f6c6343000602003360806040523480156200001157600080fd5b506040516200262e3803806200262e833981810160405260408110156200003757600080fd5b81019080805160405193929190846401000000008211156200005857600080fd5b838201915060208201858111156200006f57600080fd5b82518660018202830111640100000000821117156200008d57600080fd5b8083526020830192505050908051906020019080838360005b83811015620000c3578082015181840152602081019050620000a6565b50505050905090810190601f168015620000f15780820380516001836020036101000a031916815260200191505b50604052602001805160405193929190846401000000008211156200011557600080fd5b838201915060208201858111156200012c57600080fd5b82518660018202830111640100000000821117156200014a57600080fd5b8083526020830192505050908051906020019080838360005b838110156200018057808201518184015260208101905062000163565b50505050905090810190601f168015620001ae5780820380516001836020036101000a031916815260200191505b5060405250505081818160039080519060200190620001cf929190620003ed565b508060049080519060200190620001e8929190620003ed565b506012600560006101000a81548160ff021916908360ff16021790555050506200024e60405180807f544f4b454e5f4d414e414745525f524f4c45000000000000000000000000000081525060120190506040518091039020336200025660201b60201c565b50506200049c565b6200026882826200026c60201b60201c565b5050565b6200029b81600660008581526020019081526020016000206000016200031060201b62001c9f1790919060201c565b156200030c57620002b16200034860201b60201c565b73ffffffffffffffffffffffffffffffffffffffff168173ffffffffffffffffffffffffffffffffffffffff16837f2f8788117e7eff1d82e926ec794901d17c78024a50270940304540a733656f0d60405160405180910390a45b5050565b600062000340836000018373ffffffffffffffffffffffffffffffffffffffff1660001b6200035060201b60201c565b905092915050565b600033905090565b6000620003648383620003ca60201b60201c565b620003bf578260000182908060018154018082558091505060019003906000526020600020016000909190919091505582600001805490508360010160008481526020019081526020016000208190555060019050620003c4565b600090505b92915050565b600080836001016000848152602001908152602001600020541415905092915050565b828054600181600116156101000203166002900490600052602060002090601f016020900481019282601f106200043057805160ff191683800117855562000461565b8280016001018555821562000461579182015b828111156200046057825182559160200191906001019062000443565b5b50905062000470919062000474565b5090565b6200049991905b80821115620004955760008160009055506001016200047b565b5090565b90565b61218280620004ac6000396000f3fe608060405234801561001057600080fd5b50600436106101425760003560e01c80639010d07c116100b8578063a457c2d71161007c578063a457c2d7146106af578063a9059cbb14610715578063c2840e601461077b578063ca15c87314610799578063d547741f146107db578063dd62ed3e1461082957610142565b80639010d07c146104e257806391d148541461055a57806395d89b41146105c05780639dc29fac14610643578063a217fddf1461069157610142565b80632f2ff15d1161010a5780632f2ff15d14610316578063313ce5671461036457806336568abe1461038857806339509351146103d657806340c10f191461043c57806370a082311461048a57610142565b806306fdde0314610147578063095ea7b3146101ca57806318160ddd1461023057806323b872dd1461024e578063248a9ca3146102d4575b600080fd5b61014f6108a1565b6040518080602001828103825283818151815260200191508051906020019080838360005b8381101561018f578082015181840152602081019050610174565b50505050905090810190601f1680156101bc5780820380516001836020036101000a031916815260200191505b509250505060405180910390f35b610216600480360360408110156101e057600080fd5b81019080803573ffffffffffffffffffffffffffffffffffffffff16906020019092919080359060200190929190505050610943565b604051808215151515815260200191505060405180910390f35b610238610961565b6040518082815260200191505060405180910390f35b6102ba6004803603606081101561026457600080fd5b81019080803573ffffffffffffffffffffffffffffffffffffffff169060200190929190803573ffffffffffffffffffffffffffffffffffffffff1690602001909291908035906020019092919050505061096b565b604051808215151515815260200191505060405180910390f35b610300600480360360208110156102ea57600080fd5b8101908080359060200190929190505050610a44565b6040518082815260200191505060405180910390f35b6103626004803603604081101561032c57600080fd5b8101908080359060200190929190803573ffffffffffffffffffffffffffffffffffffffff169060200190929190505050610a64565b005b61036c610aee565b604051808260ff1660ff16815260200191505060405180910390f35b6103d46004803603604081101561039e57600080fd5b8101908080359060200190929190803573ffffffffffffffffffffffffffffffffffffffff169060200190929190505050610b05565b005b610422600480360360408110156103ec57600080fd5b81019080803573ffffffffffffffffffffffffffffffffffffffff16906020019092919080359060200190929190505050610b9e565b604051808215151515815260200191505060405180910390f35b6104886004803603604081101561045257600080fd5b81019080803573ffffffffffffffffffffffffffffffffffffffff16906020019092919080359060200190929190505050610c51565b005b6104cc600480360360208110156104a057600080fd5b81019080803573ffffffffffffffffffffffffffffffffffffffff169060200190929190505050610d10565b6040518082815260200191505060405180910390f35b610518600480360360408110156104f857600080fd5b810190808035906020019092919080359060200190929190505050610d58565b604051808273ffffffffffffffffffffffffffffffffffffffff1673ffffffffffffffffffffffffffffffffffffffff16815260200191505060405180910390f35b6105a66004803603604081101561057057600080fd5b8101908080359060200190929190803573ffffffffffffffffffffffffffffffffffffffff169060200190929190505050610d8a565b604051808215151515815260200191505060405180910390f35b6105c8610dbc565b6040518080602001828103825283818151815260200191508051906020019080838360005b838110156106085780820151818401526020810190506105ed565b50505050905090810190601f1680156106355780820380516001836020036101000a031916815260200191505b509250505060405180910390f35b61068f6004803603604081101561065957600080fd5b81019080803573ffffffffffffffffffffffffffffffffffffffff16906020019092919080359060200190929190505050610e5e565b005b610699610f1d565b6040518082815260200191505060405180910390f35b6106fb600480360360408110156106c557600080fd5b81019080803573ffffffffffffffffffffffffffffffffffffffff16906020019092919080359060200190929190505050610f24565b604051808215151515815260200191505060405180910390f35b6107616004803603604081101561072b57600080fd5b81019080803573ffffffffffffffffffffffffffffffffffffffff16906020019092919080359060200190929190505050610ff1565b604051808215151515815260200191505060405180910390f35b61078361100f565b6040518082815260200191505060405180910390f35b6107c5600480360360208110156107af57600080fd5b8101908080359060200190929190505050611048565b6040518082815260200191505060405180910390f35b610827600480360360408110156107f157600080fd5b8101908080359060200190929190803573ffffffffffffffffffffffffffffffffffffffff16906020019092919050505061106f565b005b61088b6004803603604081101561083f57600080fd5b81019080803573ffffffffffffffffffffffffffffffffffffffff169060200190929190803573ffffffffffffffffffffffffffffffffffffffff1690602001909291905050506110f9565b6040518082815260200191505060405180910390f35b606060038054600181600116156101000203166002900480601f0160208091040260200160405190810160405280929190818152602001828054600181600116156101000203166002900480156109395780601f1061090e57610100808354040283529160200191610939565b820191906000526020600020905b81548152906001019060200180831161091c57829003601f168201915b5050505050905090565b6000610957610950611180565b8484611188565b6001905092915050565b6000600254905090565b600061097884848461137f565b610a3984610984611180565b610a348560405180606001604052806028815260200161206760289139600160008b73ffffffffffffffffffffffffffffffffffffffff1673ffffffffffffffffffffffffffffffffffffffff16815260200190815260200160002060006109ea611180565b73ffffffffffffffffffffffffffffffffffffffff1673ffffffffffffffffffffffffffffffffffffffff168152602001908152602001600020546116409092919063ffffffff16565b611188565b600190509392505050565b600060066000838152602001908152602001600020600201549050919050565b610a8b6006600084815260200190815260200160002060020154610a86611180565b610d8a565b610ae0576040517f08c379a000000000000000000000000000000000000000000000000000000000815260040180806020018281038252602f815260200180611f9e602f913960400191505060405180910390fd5b610aea8282611700565b5050565b6000600560009054906101000a900460ff16905090565b610b0d611180565b73ffffffffffffffffffffffffffffffffffffffff168173ffffffffffffffffffffffffffffffffffffffff1614610b90576040517f08c379a000000000000000000000000000000000000000000000000000000000815260040180806020018281038252602f81526020018061211e602f913960400191505060405180910390fd5b610b9a8282611794565b5050565b6000610c47610bab611180565b84610c428560016000610bbc611180565b73ffffffffffffffffffffffffffffffffffffffff1673ffffffffffffffffffffffffffffffffffffffff16815260200190815260200160002060008973ffffffffffffffffffffffffffffffffffffffff1673ffffffffffffffffffffffffffffffffffffffff1681526020019081526020016000205461182890919063ffffffff16565b611188565b6001905092915050565b610c9060405180807f544f4b454e5f4d414e414745525f524f4c4500000000000000000000000000008152506012019050604051809103902033610d8a565b610d02576040517f08c379a000000000000000000000000000000000000000000000000000000000815260040180806020018281038252601d8152602001807f43616c6c6572206973206e6f74206120746f6b656e206d616e6167657200000081525060200191505060405180910390fd5b610d0c82826118b0565b5050565b60008060008373ffffffffffffffffffffffffffffffffffffffff1673ffffffffffffffffffffffffffffffffffffffff168152602001908152602001600020549050919050565b6000610d828260066000868152602001908152602001600020600001611a7790919063ffffffff16565b905092915050565b6000610db48260066000868152602001908152602001600020600001611a9190919063ffffffff16565b905092915050565b606060048054600181600116156101000203166002900480601f016020809104026020016040519081016040528092919081815260200182805460018160011615610100020316600290048015610e545780601f10610e2957610100808354040283529160200191610e54565b820191906000526020600020905b815481529060010190602001808311610e3757829003601f168201915b5050505050905090565b610e9d60405180807f544f4b454e5f4d414e414745525f524f4c4500000000000000000000000000008152506012019050604051809103902033610d8a565b610f0f576040517f08c379a000000000000000000000000000000000000000000000000000000000815260040180806020018281038252601d8152602001807f43616c6c6572206973206e6f74206120746f6b656e206d616e6167657200000081525060200191505060405180910390fd5b610f198282611ac1565b5050565b6000801b81565b6000610fe7610f31611180565b84610fe2856040518060600160405280602581526020016120f96025913960016000610f5b611180565b73ffffffffffffffffffffffffffffffffffffffff1673ffffffffffffffffffffffffffffffffffffffff16815260200190815260200160002060008a73ffffffffffffffffffffffffffffffffffffffff1673ffffffffffffffffffffffffffffffffffffffff168152602001908152602001600020546116409092919063ffffffff16565b611188565b6001905092915050565b6000611005610ffe611180565b848461137f565b6001905092915050565b60405180807f544f4b454e5f4d414e414745525f524f4c4500000000000000000000000000008152506012019050604051809103902081565b600061106860066000848152602001908152602001600020600001611c85565b9050919050565b6110966006600084815260200190815260200160002060020154611091611180565b610d8a565b6110eb576040517f08c379a00000000000000000000000000000000000000000000000000000000081526004018080602001828103825260308152602001806120376030913960400191505060405180910390fd5b6110f58282611794565b5050565b6000600160008473ffffffffffffffffffffffffffffffffffffffff1673ffffffffffffffffffffffffffffffffffffffff16815260200190815260200160002060008373ffffffffffffffffffffffffffffffffffffffff1673ffffffffffffffffffffffffffffffffffffffff16815260200190815260200160002054905092915050565b600033905090565b600073ffffffffffffffffffffffffffffffffffffffff168373ffffffffffffffffffffffffffffffffffffffff16141561120e576040517f08c379a00000000000000000000000000000000000000000000000000000000081526004018080602001828103825260248152602001806120d56024913960400191505060405180910390fd5b600073ffffffffffffffffffffffffffffffffffffffff168273ffffffffffffffffffffffffffffffffffffffff161415611294576040517f08c379a0000000000000000000000000000000000000000000000000000000008152600401808060200182810382526022815260200180611fef6022913960400191505060405180910390fd5b80600160008573ffffffffffffffffffffffffffffffffffffffff1673ffffffffffffffffffffffffffffffffffffffff16815260200190815260200160002060008473ffffffffffffffffffffffffffffffffffffffff1673ffffffffffffffffffffffffffffffffffffffff168152602001908152602001600020819055508173ffffffffffffffffffffffffffffffffffffffff168373ffffffffffffffffffffffffffffffffffffffff167f8c5be1e5ebec7d5bd14f71427d1e84f3dd0314c0f7b2291e5b200ac8c7c3b925836040518082815260200191505060405180910390a3505050565b600073ffffffffffffffffffffffffffffffffffffffff168373ffffffffffffffffffffffffffffffffffffffff161415611405576040517f08c379a00000000000000000000000000000000000000000000000000000000081526004018080602001828103825260258152602001806120b06025913960400191505060405180910390fd5b600073ffffffffffffffffffffffffffffffffffffffff168273ffffffffffffffffffffffffffffffffffffffff16141561148b576040517f08c379a0000000000000000000000000000000000000000000000000000000008152600401808060200182810382526023815260200180611f7b6023913960400191505060405180910390fd5b611496838383611c9a565b61150181604051806060016040528060268152602001612011602691396000808773ffffffffffffffffffffffffffffffffffffffff1673ffffffffffffffffffffffffffffffffffffffff168152602001908152602001600020546116409092919063ffffffff16565b6000808573ffffffffffffffffffffffffffffffffffffffff1673ffffffffffffffffffffffffffffffffffffffff16815260200190815260200160002081905550611594816000808573ffffffffffffffffffffffffffffffffffffffff1673ffffffffffffffffffffffffffffffffffffffff1681526020019081526020016000205461182890919063ffffffff16565b6000808473ffffffffffffffffffffffffffffffffffffffff1673ffffffffffffffffffffffffffffffffffffffff168152602001908152602001600020819055508173ffffffffffffffffffffffffffffffffffffffff168373ffffffffffffffffffffffffffffffffffffffff167fddf252ad1be2c89b69c2b068fc378daa952ba7f163c4a11628f55a4df523b3ef836040518082815260200191505060405180910390a3505050565b60008383111582906116ed576040517f08c379a00000000000000000000000000000000000000000000000000000000081526004018080602001828103825283818151815260200191508051906020019080838360005b838110156116b2578082015181840152602081019050611697565b50505050905090810190601f1680156116df5780820380516001836020036101000a031916815260200191505b509250505060405180910390fd5b5060008385039050809150509392505050565b6117288160066000858152602001908152602001600020600001611c9f90919063ffffffff16565b1561179057611735611180565b73ffffffffffffffffffffffffffffffffffffffff168173ffffffffffffffffffffffffffffffffffffffff16837f2f8788117e7eff1d82e926ec794901d17c78024a50270940304540a733656f0d60405160405180910390a45b5050565b6117bc8160066000858152602001908152602001600020600001611ccf90919063ffffffff16565b15611824576117c9611180565b73ffffffffffffffffffffffffffffffffffffffff168173ffffffffffffffffffffffffffffffffffffffff16837ff6391f5c32d9c69d2a47ea670b442974b53935d1edc7fd64eb21e047a839171b60405160405180910390a45b5050565b6000808284019050838110156118a6576040517f08c379a000000000000000000000000000000000000000000000000000000000815260040180806020018281038252601b8152602001807f536166654d6174683a206164646974696f6e206f766572666c6f77000000000081525060200191505060405180910390fd5b8091505092915050565b600073ffffffffffffffffffffffffffffffffffffffff168273ffffffffffffffffffffffffffffffffffffffff161415611953576040517f08c379a000000000000000000000000000000000000000000000000000000000815260040180806020018281038252601f8152602001807f45524332303a206d696e7420746f20746865207a65726f20616464726573730081525060200191505060405180910390fd5b61195f60008383611c9a565b6119748160025461182890919063ffffffff16565b6002819055506119cb816000808573ffffffffffffffffffffffffffffffffffffffff1673ffffffffffffffffffffffffffffffffffffffff1681526020019081526020016000205461182890919063ffffffff16565b6000808473ffffffffffffffffffffffffffffffffffffffff1673ffffffffffffffffffffffffffffffffffffffff168152602001908152602001600020819055508173ffffffffffffffffffffffffffffffffffffffff16600073ffffffffffffffffffffffffffffffffffffffff167fddf252ad1be2c89b69c2b068fc378daa952ba7f163c4a11628f55a4df523b3ef836040518082815260200191505060405180910390a35050565b6000611a868360000183611cff565b60001c905092915050565b6000611ab9836000018373ffffffffffffffffffffffffffffffffffffffff1660001b611d82565b905092915050565b600073ffffffffffffffffffffffffffffffffffffffff168273ffffffffffffffffffffffffffffffffffffffff161415611b47576040517f08c379a000000000000000000000000000000000000000000000000000000000815260040180806020018281038252602181526020018061208f6021913960400191505060405180910390fd5b611b5382600083611c9a565b611bbe81604051806060016040528060228152602001611fcd602291396000808673ffffffffffffffffffffffffffffffffffffffff1673ffffffffffffffffffffffffffffffffffffffff168152602001908152602001600020546116409092919063ffffffff16565b6000808473ffffffffffffffffffffffffffffffffffffffff1673ffffffffffffffffffffffffffffffffffffffff16815260200190815260200160002081905550611c1581600254611da590919063ffffffff16565b600281905550600073ffffffffffffffffffffffffffffffffffffffff168273ffffffffffffffffffffffffffffffffffffffff167fddf252ad1be2c89b69c2b068fc378daa952ba7f163c4a11628f55a4df523b3ef836040518082815260200191505060405180910390a35050565b6000611c9382600001611def565b9050919050565b505050565b6000611cc7836000018373ffffffffffffffffffffffffffffffffffffffff1660001b611e00565b905092915050565b6000611cf7836000018373ffffffffffffffffffffffffffffffffffffffff1660001b611e70565b905092915050565b600081836000018054905011611d60576040517f08c379a0000000000000000000000000000000000000000000000000000000008152600401808060200182810382526022815260200180611f596022913960400191505060405180910390fd5b826000018281548110611d6f57fe5b9060005260206000200154905092915050565b600080836001016000848152602001908152602001600020541415905092915050565b6000611de783836040518060400160405280601e81526020017f536166654d6174683a207375627472616374696f6e206f766572666c6f770000815250611640565b905092915050565b600081600001805490509050919050565b6000611e0c8383611d82565b611e65578260000182908060018154018082558091505060019003906000526020600020016000909190919091505582600001805490508360010160008481526020019081526020016000208190555060019050611e6a565b600090505b92915050565b60008083600101600084815260200190815260200160002054905060008114611f4c5760006001820390506000600186600001805490500390506000866000018281548110611ebb57fe5b9060005260206000200154905080876000018481548110611ed857fe5b9060005260206000200181905550600183018760010160008381526020019081526020016000208190555086600001805480611f1057fe5b60019003818190600052602060002001600090559055866001016000878152602001908152602001600020600090556001945050505050611f52565b60009150505b9291505056fe456e756d657261626c655365743a20696e646578206f7574206f6620626f756e647345524332303a207472616e7366657220746f20746865207a65726f2061646472657373416363657373436f6e74726f6c3a2073656e646572206d75737420626520616e2061646d696e20746f206772616e7445524332303a206275726e20616d6f756e7420657863656564732062616c616e636545524332303a20617070726f766520746f20746865207a65726f206164647265737345524332303a207472616e7366657220616d6f756e7420657863656564732062616c616e6365416363657373436f6e74726f6c3a2073656e646572206d75737420626520616e2061646d696e20746f207265766f6b6545524332303a207472616e7366657220616d6f756e74206578636565647320616c6c6f77616e636545524332303a206275726e2066726f6d20746865207a65726f206164647265737345524332303a207472616e736665722066726f6d20746865207a65726f206164647265737345524332303a20617070726f76652066726f6d20746865207a65726f206164647265737345524332303a2064656372656173656420616c6c6f77616e63652062656c6f77207a65726f416363657373436f6e74726f6c3a2063616e206f6e6c792072656e6f756e636520726f6c657320666f722073656c66a26469706673582212200488d675b8ef0b4a01bd760e5442e6fa65a78b6e508fd065f1ff9b8ce076c64364736f6c63430006020033608060405234801561001057600080fd5b50604051612303380380612303833981810160405260a081101561003357600080fd5b81019080805190602001909291908051906020019092919080519060200190929190805190602001909291908051906020019092919050505084600160006101000a81548173ffffffffffffffffffffffffffffffffffffffff021916908373ffffffffffffffffffffffffffffffffffffffff16021790555083600260006101000a81548173ffffffffffffffffffffffffffffffffffffffff021916908373ffffffffffffffffffffffffffffffffffffffff160217905550826003819055508160048190555080600581905550336000806101000a81548173ffffffffffffffffffffffffffffffffffffffff021916908373ffffffffffffffffffffffffffffffffffffffff16021790555050505050506121ac806101576000396000f3fe6080604052600436106100ec5760003560e01c8063a3d53d181161008a578063c814786511610059578063c814786514610593578063d3c576cd14610660578063d933c066146107c9578063ff59bff814610932576100f6565b8063a3d53d1814610463578063a6c3e6b9146104c8578063ae702ba41461051f578063bb6e7de91461057c576100f6565b8063384c3335116100c6578063384c3335146102635780636b40bba1146102ba5780636f264b2e146102e557806371d22d4d1461033c576100f6565b806310d92060146100fb57806318f321a31461012657806329d428ca14610238576100f6565b366100f657600080fd5b600080fd5b34801561010757600080fd5b50610110610981565b6040518082815260200191505060405180910390f35b34801561013257600080fd5b506101f66004803603604081101561014957600080fd5b81019080803590602001909291908035906020019064010000000081111561017057600080fd5b82018360208201111561018257600080fd5b803590602001918460018302840111640100000000831117156101a457600080fd5b91908080601f016020809104026020016040519081016040528093929190818152602001838380828437600081840152601f19601f820116905080830192505050505050509192919290505050610987565b604051808273ffffffffffffffffffffffffffffffffffffffff1673ffffffffffffffffffffffffffffffffffffffff16815260200191505060405180910390f35b34801561024457600080fd5b5061024d6109ac565b6040518082815260200191505060405180910390f35b34801561026f57600080fd5b506102786109b2565b604051808273ffffffffffffffffffffffffffffffffffffffff1673ffffffffffffffffffffffffffffffffffffffff16815260200191505060405180910390f35b3480156102c657600080fd5b506102cf6109d8565b6040518082815260200191505060405180910390f35b3480156102f157600080fd5b506102fa6109de565b604051808273ffffffffffffffffffffffffffffffffffffffff1673ffffffffffffffffffffffffffffffffffffffff16815260200191505060405180910390f35b34801561034857600080fd5b50610449600480360361010081101561036057600080fd5b81019080803573ffffffffffffffffffffffffffffffffffffffff169060200190929190803573ffffffffffffffffffffffffffffffffffffffff169060200190929190803573ffffffffffffffffffffffffffffffffffffffff169060200190929190803590602001909291908035906020019092919080359060200190929190803590602001909291908035906020019064010000000081111561040557600080fd5b82018360208201111561041757600080fd5b8035906020019184600183028401116401000000008311171561043957600080fd5b9091929391929390505050610a04565b604051808215151515815260200191505060405180910390f35b34801561046f57600080fd5b506104b26004803603602081101561048657600080fd5b81019080803573ffffffffffffffffffffffffffffffffffffffff169060200190929190505050610c8b565b6040518082815260200191505060405180910390f35b3480156104d457600080fd5b506104dd610ca3565b604051808273ffffffffffffffffffffffffffffffffffffffff1673ffffffffffffffffffffffffffffffffffffffff16815260200191505060405180910390f35b34801561052b57600080fd5b506105626004803603604081101561054257600080fd5b810190808035906020019092919080359060200190929190505050610cc8565b604051808215151515815260200191505060405180910390f35b34801561058857600080fd5b50610591610d40565b005b34801561059f57600080fd5b5061064a600480360360e08110156105b657600080fd5b81019080803573ffffffffffffffffffffffffffffffffffffffff169060200190929190803573ffffffffffffffffffffffffffffffffffffffff169060200190929190803573ffffffffffffffffffffffffffffffffffffffff16906020019092919080359060200190929190803590602001909291908035906020019092919080359060200190929190505050610db2565b6040518082815260200191505060405180910390f35b34801561066c57600080fd5b506107af600480360361010081101561068457600080fd5b81019080803573ffffffffffffffffffffffffffffffffffffffff169060200190929190803573ffffffffffffffffffffffffffffffffffffffff169060200190929190803573ffffffffffffffffffffffffffffffffffffffff169060200190929190803590602001909291908035906020019092919080359060200190929190803590602001909291908035906020019064010000000081111561072957600080fd5b82018360208201111561073b57600080fd5b8035906020019184600183028401116401000000008311171561075d57600080fd5b91908080601f016020809104026020016040519081016040528093929190818152602001838380828437600081840152601f19601f82011690508083019250505050505050919291929050505061133f565b604051808215151515815260200191505060405180910390f35b3480156107d557600080fd5b5061091860048036036101008110156107ed57600080fd5b81019080803573ffffffffffffffffffffffffffffffffffffffff169060200190929190803573ffffffffffffffffffffffffffffffffffffffff169060200190929190803573ffffffffffffffffffffffffffffffffffffffff169060200190929190803590602001909291908035906020019092919080359060200190929190803590602001909291908035906020019064010000000081111561089257600080fd5b8201836020820111156108a457600080fd5b803590602001918460018302840111640100000000831117156108c657600080fd5b91908080601f016020809104026020016040519081016040528093929190818152602001838380828437600081840152601f19601f8201169050808301925050505050505091929192905050506119b1565b604051808215151515815260200191505060405180910390f35b34801561093e57600080fd5b5061096b6004803603602081101561095557600080fd5b8101908080359060200190929190505050611c53565b6040518082815260200191505060405180910390f35b60055481565b60006109a48261099685611c6b565b611cc390919063ffffffff16565b905092915050565b60035481565b600160009054906101000a900473ffffffffffffffffffffffffffffffffffffffff1681565b60045481565b600260009054906101000a900473ffffffffffffffffffffffffffffffffffffffff1681565b600080610a168b8b8b8b8b8b8b610db2565b90506000610a688286868080601f016020809104026020016040519081016040528093929190818152602001838380828437600081840152601f19601f82011690508083019250505050505050610987565b90508b73ffffffffffffffffffffffffffffffffffffffff168173ffffffffffffffffffffffffffffffffffffffff1614610aee576040517f08c379a000000000000000000000000000000000000000000000000000000000815260040180806020018281038252602f815260200180612025602f913960400191505060405180910390fd5b3373ffffffffffffffffffffffffffffffffffffffff168c73ffffffffffffffffffffffffffffffffffffffff1614610b8f576040517f08c379a00000000000000000000000000000000000000000000000000000000081526004018080602001828103825260208152602001807f6d73672e73656e646572206973206e6f7420746865207375627363726962657281525060200191505060405180910390fd5b7fffffffffffffffffffffffffffffffffffffffffffffffffffffffffffffffff60066000848152602001908152602001600020819055508a73ffffffffffffffffffffffffffffffffffffffff168c73ffffffffffffffffffffffffffffffffffffffff167f51a97a25211c2be9b0b1dd64ee1de490cdb047390e6eba984e6a1d126e6ac4568c8c8c8c8c604051808673ffffffffffffffffffffffffffffffffffffffff1673ffffffffffffffffffffffffffffffffffffffff1681526020018581526020018481526020018381526020018281526020019550505050505060405180910390a36001925050509998505050505050505050565b60076020528060005260406000206000915090505481565b6000809054906101000a900473ffffffffffffffffffffffffffffffffffffffff1681565b60007fffffffffffffffffffffffffffffffffffffffffffffffffffffffffffffffff60066000858152602001908152602001600020541415610d0e5760009050610d3a565b610d34826006600086815260200190815260200160002054611f5e90919063ffffffff16565b42111590505b92915050565b6000809054906101000a900473ffffffffffffffffffffffffffffffffffffffff1673ffffffffffffffffffffffffffffffffffffffff163373ffffffffffffffffffffffffffffffffffffffff1614610d9957600080fd5b3373ffffffffffffffffffffffffffffffffffffffff16ff5b60008073ffffffffffffffffffffffffffffffffffffffff16600160009054906101000a900473ffffffffffffffffffffffffffffffffffffffff1673ffffffffffffffffffffffffffffffffffffffff161480610e5d5750600160009054906101000a900473ffffffffffffffffffffffffffffffffffffffff1673ffffffffffffffffffffffffffffffffffffffff168773ffffffffffffffffffffffffffffffffffffffff16145b610ecf576040517f08c379a00000000000000000000000000000000000000000000000000000000081526004018080602001828103825260198152602001807f7265717569726564546f41646472657373204661696c7572650000000000000081525060200191505060405180910390fd5b600073ffffffffffffffffffffffffffffffffffffffff16600260009054906101000a900473ffffffffffffffffffffffffffffffffffffffff1673ffffffffffffffffffffffffffffffffffffffff161480610f795750600260009054906101000a900473ffffffffffffffffffffffffffffffffffffffff1673ffffffffffffffffffffffffffffffffffffffff168673ffffffffffffffffffffffffffffffffffffffff16145b610feb576040517f08c379a000000000000000000000000000000000000000000000000000000000815260040180806020018281038252601c8152602001807f7265717569726564546f6b656e41646472657373204661696c7572650000000081525060200191505060405180910390fd5b60006003541480610ffd575060035485145b61106f576040517f08c379a000000000000000000000000000000000000000000000000000000000815260040180806020018281038252601b8152602001807f7265717569726564546f6b656e416d6f756e74204661696c757265000000000081525060200191505060405180910390fd5b60006004541480611081575060045484145b6110f3576040517f08c379a000000000000000000000000000000000000000000000000000000000815260040180806020018281038252601d8152602001807f7265717569726564506572696f645365636f6e6473204661696c75726500000081525060200191505060405180910390fd5b60006005541480611105575060055483145b611177576040517f08c379a00000000000000000000000000000000000000000000000000000000081526004018080602001828103825260188152602001807f72657175697265644761735072696365204661696c757265000000000000000081525060200191505060405180910390fd5b601960f81b600060f81b308a8a8a8a8a8a8a604051602001808b7effffffffffffffffffffffffffffffffffffffffffffffffffffffffffffff19167effffffffffffffffffffffffffffffffffffffffffffffffffffffffffffff191681526001018a7effffffffffffffffffffffffffffffffffffffffffffffffffffffffffffff19167effffffffffffffffffffffffffffffffffffffffffffffffffffffffffffff191681526001018973ffffffffffffffffffffffffffffffffffffffff1673ffffffffffffffffffffffffffffffffffffffff1660601b81526014018873ffffffffffffffffffffffffffffffffffffffff1673ffffffffffffffffffffffffffffffffffffffff1660601b81526014018773ffffffffffffffffffffffffffffffffffffffff1673ffffffffffffffffffffffffffffffffffffffff1660601b81526014018673ffffffffffffffffffffffffffffffffffffffff1673ffffffffffffffffffffffffffffffffffffffff1660601b81526014018581526020018481526020018381526020018281526020019a5050505050505050505050604051602081830303815290604052805190602001209050979650505050505050565b600061135189898989898989896119b1565b6113a6576040517f08c379a00000000000000000000000000000000000000000000000000000000081526004018080602001828103825260418152602001806121106041913960600191505060405180910390fd5b60006113b78a8a8a8a8a8a8a610db2565b90506113cc8642611f5e90919063ffffffff16565b6006600083815260200190815260200160002081905550600760008b73ffffffffffffffffffffffffffffffffffffffff1673ffffffffffffffffffffffffffffffffffffffff1681526020019081526020016000205484111561146f5783600760008c73ffffffffffffffffffffffffffffffffffffffff1673ffffffffffffffffffffffffffffffffffffffff168152602001908152602001600020819055505b60008873ffffffffffffffffffffffffffffffffffffffff166370a082318b6040518263ffffffff1660e01b8152600401808273ffffffffffffffffffffffffffffffffffffffff1673ffffffffffffffffffffffffffffffffffffffff16815260200191505060206040518083038186803b1580156114ee57600080fd5b505afa158015611502573d6000803e3d6000fd5b505050506040513d602081101561151857600080fd5b810190808051906020019092919050505090508873ffffffffffffffffffffffffffffffffffffffff166323b872dd8c8c8b6040518463ffffffff1660e01b8152600401808473ffffffffffffffffffffffffffffffffffffffff1673ffffffffffffffffffffffffffffffffffffffff1681526020018373ffffffffffffffffffffffffffffffffffffffff1673ffffffffffffffffffffffffffffffffffffffff1681526020018281526020019350505050602060405180830381600087803b1580156115e657600080fd5b505af11580156115fa573d6000803e3d6000fd5b505050506040513d602081101561161057600080fd5b8101908080519060200190929190505050508873ffffffffffffffffffffffffffffffffffffffff166370a082318b6040518263ffffffff1660e01b8152600401808273ffffffffffffffffffffffffffffffffffffffff1673ffffffffffffffffffffffffffffffffffffffff16815260200191505060206040518083038186803b15801561169f57600080fd5b505afa1580156116b3573d6000803e3d6000fd5b505050506040513d60208110156116c957600080fd5b810190808051906020019092919050505088820114611733576040517f08c379a00000000000000000000000000000000000000000000000000000000081526004018080602001828103825260268152602001806121516026913960400191505060405180910390fd5b61173b611fe6565b611790576040517f08c379a00000000000000000000000000000000000000000000000000000000081526004018080602001828103825260358152602001806120546035913960400191505060405180910390fd5b8973ffffffffffffffffffffffffffffffffffffffff168b73ffffffffffffffffffffffffffffffffffffffff167f96d296c945eee0618d3cc6f435f4d59f14bcefd708eab22c3de30df20b1347938b8b8b8b8b604051808673ffffffffffffffffffffffffffffffffffffffff1673ffffffffffffffffffffffffffffffffffffffff1681526020018581526020018481526020018381526020018281526020019550505050505060405180910390a3600086111561199f578873ffffffffffffffffffffffffffffffffffffffff166323b872dd8c33896040518463ffffffff1660e01b8152600401808473ffffffffffffffffffffffffffffffffffffffff1673ffffffffffffffffffffffffffffffffffffffff1681526020018373ffffffffffffffffffffffffffffffffffffffff1673ffffffffffffffffffffffffffffffffffffffff1681526020018281526020019350505050602060405180830381600087803b15801561190557600080fd5b505af1158015611919573d6000803e3d6000fd5b505050506040513d602081101561192f57600080fd5b810190808051906020019092919050505050611949611fe6565b61199e576040517f08c379a00000000000000000000000000000000000000000000000000000000081526004018080602001828103825260438152602001806120cd6043913960600191505060405180910390fd5b5b60019250505098975050505050505050565b6000806119c38a8a8a8a8a8a8a610db2565b905060006119d18285610987565b905060008973ffffffffffffffffffffffffffffffffffffffff1663dd62ed3e8d306040518363ffffffff1660e01b8152600401808373ffffffffffffffffffffffffffffffffffffffff1673ffffffffffffffffffffffffffffffffffffffff1681526020018273ffffffffffffffffffffffffffffffffffffffff1673ffffffffffffffffffffffffffffffffffffffff1681526020019250505060206040518083038186803b158015611a8657600080fd5b505afa158015611a9a573d6000803e3d6000fd5b505050506040513d6020811015611ab057600080fd5b8101908080519060200190929190505050905060008a73ffffffffffffffffffffffffffffffffffffffff166370a082318e6040518263ffffffff1660e01b8152600401808273ffffffffffffffffffffffffffffffffffffffff1673ffffffffffffffffffffffffffffffffffffffff16815260200191505060206040518083038186803b158015611b4257600080fd5b505afa158015611b56573d6000803e3d6000fd5b505050506040513d6020811015611b6c57600080fd5b810190808051906020019092919050505090508c73ffffffffffffffffffffffffffffffffffffffff168373ffffffffffffffffffffffffffffffffffffffff16148015611be657508b73ffffffffffffffffffffffffffffffffffffffff168d73ffffffffffffffffffffffffffffffffffffffff1614155b8015611c05575060066000858152602001908152602001600020544210155b8015611c235750611c1f888b611f5e90919063ffffffff16565b8210155b8015611c415750611c3d888b611f5e90919063ffffffff16565b8110155b94505050505098975050505050505050565b60066020528060005260406000206000915090505481565b60008160405160200180807f19457468657265756d205369676e6564204d6573736167653a0a333200000000815250601c01828152602001915050604051602081830303815290604052805190602001209050919050565b60006041825114611d3c576040517f08c379a000000000000000000000000000000000000000000000000000000000815260040180806020018281038252601f8152602001807f45434453413a20696e76616c6964207369676e6174757265206c656e6774680081525060200191505060405180910390fd5b60008060006020850151925060408501519150606085015160001a90507f7fffffffffffffffffffffffffffffff5d576e7357a4501ddfe92f46681b20a08260001c1115611dd5576040517f08c379a00000000000000000000000000000000000000000000000000000000081526004018080602001828103825260228152602001806120896022913960400191505060405180910390fd5b601b8160ff1614158015611ded5750601c8160ff1614155b15611e43576040517f08c379a00000000000000000000000000000000000000000000000000000000081526004018080602001828103825260228152602001806120ab6022913960400191505060405180910390fd5b600060018783868660405160008152602001604052604051808581526020018460ff1660ff1681526020018381526020018281526020019450505050506020604051602081039080840390855afa158015611ea2573d6000803e3d6000fd5b505050602060405103519050600073ffffffffffffffffffffffffffffffffffffffff168173ffffffffffffffffffffffffffffffffffffffff161415611f51576040517f08c379a00000000000000000000000000000000000000000000000000000000081526004018080602001828103825260188152602001807f45434453413a20696e76616c6964207369676e6174757265000000000000000081525060200191505060405180910390fd5b8094505050505092915050565b600080828401905083811015611fdc576040517f08c379a000000000000000000000000000000000000000000000000000000000815260040180806020018281038252601b8152602001807f536166654d6174683a206164646974696f6e206f766572666c6f77000000000081525060200191505060405180910390fd5b8091505092915050565b600080600090503d60008114612003576020811461200c57612018565b60019150612018565b60206000803e60005191505b5060008114159150509056fe496e76616c6964205369676e617475726520666f7220737562736372697074696f6e2063616e63656c6c6174696f6e537562736372697074696f6e3a3a65786563757465537562736372697074696f6e205472616e7366657246726f6d206661696c656445434453413a20696e76616c6964207369676e6174757265202773272076616c756545434453413a20696e76616c6964207369676e6174757265202776272076616c7565537562736372697074696f6e3a3a65786563757465537562736372697074696f6e204661696c656420746f20706179206761732061732066726f6d206163636f756e74537562736372697074696f6e206973206e6f74207265616479206f7220636f6e646974696f6e73206f66207472616e736374696f6e20617265206e6f74206d657445524332302042616c616e636520646964206e6f74206368616e676520636f72726563746c79a2646970667358221220cbe66855e979e2ccd8891e93837666f218e314b351b3c16c068d8c31d4d8a04464736f6c63430006020033437572766520636f656666696369656e742073686f756c64206265206c657373207468616e2031303025436f6d6d697373696f6e2073686f756c64206265206c657373207468616e2031303025536166654d6174683a206d756c7469706c69636174696f6e206f766572666c6f7745544820697320726571756972656420746f20666f726d20626f6e757320746f6b656e7320706f6f6c",
  "source": "pragma solidity >=0.6.0 <0.7.0;\n\nimport \"./interfaces/IUniswapExchange.sol\";\nimport \"./SimplePOSToken.sol\";\nimport \"./subscription/Subscription.sol\";\nimport \"@openzeppelin/contracts/math/SafeMath.sol\";\nimport \"@openzeppelin/contracts/token/ERC20/IERC20.sol\";\n\ncontract SimplePOS {\n    address payable public owner;\n    IUniswapExchange public exchange;\n    SimplePOSToken public sposToken;\n    Subscription public subscription;\n    uint public commission;\n    uint public curveCoefficient;\n\n    using SafeMath for uint;\n\n    /**\n     * @dev Constructor\n     * @param _exchange Exchange for bonus token owners\n     * @param _sposTokenName SimplePOSToken name; SimplePOSToken controls bonus tokens pool\n     * @param _sposTokenSymbol SimplePOSToken symbol; SimplePOSToken controls bonus tokens pool\n     * @param _initialRatio SimplePOS creator sets up the initial ratio of bonus tokens pool to the SimplePOSToken supply\n     * @param _commission Commission on incoming payments that should form bonus tokens pool; [0..10000); 1 unit == 0.01%\n     * @param _curveCoefficient The bonding curve coefficient; [0..10000); 1 unit == 0.01%\n     */\n    constructor(\n        IUniswapExchange _exchange,\n        string memory _sposTokenName,\n        string memory _sposTokenSymbol,\n        uint _initialRatio,\n        uint _commission,\n        uint _curveCoefficient\n    )\n        public\n        payable\n    {\n        require(msg.value > 0, \"ETH is required to form bonus tokens pool\");\n        require(_initialRatio > 0, \"Initial ratio should be positive\");\n        require(_commission < 10000, \"Commission should be less than 100%\");\n        require(_curveCoefficient < 10000, \"Curve coefficient should be less than 100%\");\n        owner = msg.sender;\n        exchange = _exchange;\n        sposToken = new SimplePOSToken(_sposTokenName, _sposTokenSymbol);\n        commission = _commission;\n        curveCoefficient = _curveCoefficient;\n        uint initialExchangeTokenValue = exchange.ethToTokenSwapInput.value(msg.value)(0, now);\n        uint initialMintedPOSTokens = initialExchangeTokenValue.mul(_initialRatio);\n        sposToken.mint(msg.sender, initialMintedPOSTokens);\n        // Deploy subscription contract (_toAddress, _tokenAddress, _tokenAmount, _periodSeconds, _gasPrice).\n        // No limitation on required subscription fee and period. \n        // _gasPrice = 0 meaning we do not expect transactions relaying\n        subscription = new Subscription(address(this), exchange.tokenAddress(), 0, 0, 0);\n    }\n\n    receive() \n        external \n        payable\n    {                \n        uint bonusPart = msg.value.mul(commission).div(10000);\n        owner.transfer(msg.value.sub(bonusPart));\n        (uint bonusTokenBalance, uint sposTokenSupply, uint invariant) = getBalanceSupplyInvariant();\n        uint incomingBonusTokens = exchange.ethToTokenSwapInput.value(bonusPart)(0, now);\n        mintSPOSTokens(incomingBonusTokens, bonusTokenBalance, sposTokenSupply, invariant, msg.sender);\n    }\n\n    function getBalanceSupplyInvariant()\n        internal\n        returns (uint bonusTokenBalance, uint sposTokenSupply, uint invariant)\n    {\n        bonusTokenBalance = IERC20(exchange.tokenAddress()).balanceOf(address(this));\n        sposTokenSupply = sposToken.totalSupply();\n        // We calculate with a precesion of 4 numbers\n        invariant = bonusTokenBalance.mul(10000).div(sposTokenSupply);\n    }\n\n    function mintSPOSTokens(\n        uint incomingBonusTokens,\n        uint bonusTokenBalance,\n        uint sposTokenSupply,\n        uint invariant,\n        address receiver\n    )\n        internal\n    {\n        uint newBonusTokenBalanceForInvariant = bonusTokenBalance + incomingBonusTokens - incomingBonusTokens.mul(curveCoefficient).div(10000);\n        uint toMintSPOSTokens = newBonusTokenBalanceForInvariant.mul(10000).div(invariant) - sposTokenSupply;\n        sposToken.mint(receiver, toMintSPOSTokens);\n    }\n\n    /**\n     * @dev Exchange SPOS tokens on bonus tokens. This action burns 'amount' of SPOS and transfers bonus tokens to a caller.\n     * @param _amount Amount of SPOS tokens to exchange     \n     */\n    function exchangeSposTokensOnBonusTokens(\n        uint _amount\n    )\n        external        \n    {\n        // There should be always spos tokens minted to properly calculate invariant\n        require(_amount < sposToken.totalSupply(), \"SPOS token amount should be less than total supply.\");\n        // We do not check tokens availability here as 'burn' will check it\n        IERC20 bonusToken = IERC20(exchange.tokenAddress());\n        // toTransferBonusTokens < bonusToken.balanceOf(address(this) will always be true\n        uint toTransferBonusTokens = _amount.mul(bonusToken.balanceOf(address(this))).div(sposToken.totalSupply());\n        sposToken.burn(msg.sender, _amount);\n        bonusToken.transfer(msg.sender, toTransferBonusTokens);        \n    }\n\n    /**\n     * @dev Execute subscription for a user. This will accepting payment in bonus tokens (signed by a user). SPOS tokens will be minted accordingly.\n     * @param _from the SimplePOS subscriber\n     * @param _tokenAmount amount of SimplePOS exchange tokens payed for the subscription\n     * @param _periodSeconds the period in seconds between payments\n     */\n    function executeSubscription(\n        address _from,\n        uint256 _tokenAmount,\n        uint256 _periodSeconds,\n        bytes calldata _signature\n    ) \n        external\n        returns (bool success)\n    {\n        // calculate current parameters necessary for proper SPOS token minting\n        (uint bonusTokenBalance, uint sposTokenSupply, uint invariant) = getBalanceSupplyInvariant();\n        // execute subscription -- it will transfer bonus tokens to this contract\n        // (from, to, tokenAddress, tokenAmount, periodSeconds, gasPrice, nonce, signature)\n        require(subscription.executeSubscription(_from, address(this), exchange.tokenAddress(), _tokenAmount, _periodSeconds, 0, 0, _signature),\n                \"Could not execute subscription.\");\n        // transfer the owner part\n        uint ownerPart = _tokenAmount.mul(10000 - commission).div(10000);\n        IERC20 bonusToken = IERC20(exchange.tokenAddress());\n        bonusToken.transfer(owner, ownerPart);\n        // mint SPOS tokens to the subscriber\n        mintSPOSTokens(_tokenAmount - ownerPart, bonusTokenBalance, sposTokenSupply, invariant, _from);\n    }\n\n    function getBonusTokenAddress()\n        public\n        view\n        returns (address)\n    {\n        return exchange.tokenAddress();\n    }\n}\n",
  "sourcePath": "/Users/mmv/projects/simple-pos/simple-pos-contracts/contracts/SimplePOS.sol",
  "compiler": {
    "name": "solc",
    "version": "0.6.2+commit.bacdbe57.Emscripten.clang"
  },
  "schemaVersion": "3.3.1",
  "updatedAt": "2020-10-16T09:47:38.431Z",
  "devdoc": {
    "methods": {
      "constructor": {
        "details": "Constructor",
        "params": {
          "_commission": "Commission on incoming payments that should form bonus tokens pool; [0..10000); 1 unit == 0.01%",
          "_curveCoefficient": "The bonding curve coefficient; [0..10000); 1 unit == 0.01%",
          "_exchange": "Exchange for bonus token owners",
          "_initialRatio": "SimplePOS creator sets up the initial ratio of bonus tokens pool to the SimplePOSToken supply",
          "_sposTokenName": "SimplePOSToken name; SimplePOSToken controls bonus tokens pool",
          "_sposTokenSymbol": "SimplePOSToken symbol; SimplePOSToken controls bonus tokens pool"
        }
      },
      "exchangeSposTokensOnBonusTokens(uint256)": {
        "details": "Exchange SPOS tokens on bonus tokens. This action burns 'amount' of SPOS and transfers bonus tokens to a caller.",
        "params": {
          "_amount": "Amount of SPOS tokens to exchange     "
        }
      },
      "executeSubscription(address,uint256,uint256,bytes)": {
        "details": "Execute subscription for a user. This will accepting payment in bonus tokens (signed by a user). SPOS tokens will be minted accordingly.",
        "params": {
          "_from": "the SimplePOS subscriber",
          "_periodSeconds": "the period in seconds between payments",
          "_tokenAmount": "amount of SimplePOS exchange tokens payed for the subscription"
        }
      }
    }
  },
  "userdoc": {
    "methods": {}
  }
}