{
  "contractName": "Subscription",
  "abi": [
    {
      "inputs": [
        {
          "internalType": "address",
          "name": "_toAddress",
          "type": "address"
        },
        {
          "internalType": "address",
          "name": "_tokenAddress",
          "type": "address"
        },
        {
          "internalType": "uint256",
          "name": "_tokenAmount",
          "type": "uint256"
        },
        {
          "internalType": "uint256",
          "name": "_periodSeconds",
          "type": "uint256"
        },
        {
          "internalType": "uint256",
          "name": "_gasPrice",
          "type": "uint256"
        }
      ],
      "stateMutability": "nonpayable",
      "type": "constructor"
    },
    {
      "anonymous": false,
      "inputs": [
        {
          "indexed": true,
          "internalType": "address",
          "name": "from",
          "type": "address"
        },
        {
          "indexed": true,
          "internalType": "address",
          "name": "to",
          "type": "address"
        },
        {
          "indexed": false,
          "internalType": "address",
          "name": "tokenAddress",
          "type": "address"
        },
        {
          "indexed": false,
          "internalType": "uint256",
          "name": "tokenAmount",
          "type": "uint256"
        },
        {
          "indexed": false,
          "internalType": "uint256",
          "name": "periodSeconds",
          "type": "uint256"
        },
        {
          "indexed": false,
          "internalType": "uint256",
          "name": "gasPrice",
          "type": "uint256"
        },
        {
          "indexed": false,
          "internalType": "uint256",
          "name": "nonce",
          "type": "uint256"
        }
      ],
      "name": "CancelSubscription",
      "type": "event"
    },
    {
      "anonymous": false,
      "inputs": [
        {
          "indexed": true,
          "internalType": "address",
          "name": "from",
          "type": "address"
        },
        {
          "indexed": true,
          "internalType": "address",
          "name": "to",
          "type": "address"
        },
        {
          "indexed": false,
          "internalType": "address",
          "name": "tokenAddress",
          "type": "address"
        },
        {
          "indexed": false,
          "internalType": "uint256",
          "name": "tokenAmount",
          "type": "uint256"
        },
        {
          "indexed": false,
          "internalType": "uint256",
          "name": "periodSeconds",
          "type": "uint256"
        },
        {
          "indexed": false,
          "internalType": "uint256",
          "name": "gasPrice",
          "type": "uint256"
        },
        {
          "indexed": false,
          "internalType": "uint256",
          "name": "nonce",
          "type": "uint256"
        }
      ],
      "name": "ExecuteSubscription",
      "type": "event"
    },
    {
      "inputs": [],
      "name": "author",
      "outputs": [
        {
          "internalType": "address",
          "name": "",
          "type": "address"
        }
      ],
      "stateMutability": "view",
      "type": "function"
    },
    {
      "inputs": [
        {
          "internalType": "address",
          "name": "",
          "type": "address"
        }
      ],
      "name": "extraNonce",
      "outputs": [
        {
          "internalType": "uint256",
          "name": "",
          "type": "uint256"
        }
      ],
      "stateMutability": "view",
      "type": "function"
    },
    {
      "inputs": [
        {
          "internalType": "bytes32",
          "name": "",
          "type": "bytes32"
        }
      ],
      "name": "nextValidTimestamp",
      "outputs": [
        {
          "internalType": "uint256",
          "name": "",
          "type": "uint256"
        }
      ],
      "stateMutability": "view",
      "type": "function"
    },
    {
      "inputs": [],
      "name": "requiredGasPrice",
      "outputs": [
        {
          "internalType": "uint256",
          "name": "",
          "type": "uint256"
        }
      ],
      "stateMutability": "view",
      "type": "function"
    },
    {
      "inputs": [],
      "name": "requiredPeriodSeconds",
      "outputs": [
        {
          "internalType": "uint256",
          "name": "",
          "type": "uint256"
        }
      ],
      "stateMutability": "view",
      "type": "function"
    },
    {
      "inputs": [],
      "name": "requiredToAddress",
      "outputs": [
        {
          "internalType": "address",
          "name": "",
          "type": "address"
        }
      ],
      "stateMutability": "view",
      "type": "function"
    },
    {
      "inputs": [],
      "name": "requiredTokenAddress",
      "outputs": [
        {
          "internalType": "address",
          "name": "",
          "type": "address"
        }
      ],
      "stateMutability": "view",
      "type": "function"
    },
    {
      "inputs": [],
      "name": "requiredTokenAmount",
      "outputs": [
        {
          "internalType": "uint256",
          "name": "",
          "type": "uint256"
        }
      ],
      "stateMutability": "view",
      "type": "function"
    },
    {
      "stateMutability": "payable",
      "type": "receive"
    },
    {
      "inputs": [
        {
          "internalType": "bytes32",
          "name": "subscriptionHash",
          "type": "bytes32"
        },
        {
          "internalType": "uint256",
          "name": "gracePeriodSeconds",
          "type": "uint256"
        }
      ],
      "name": "isSubscriptionActive",
      "outputs": [
        {
          "internalType": "bool",
          "name": "",
          "type": "bool"
        }
      ],
      "stateMutability": "view",
      "type": "function"
    },
    {
      "inputs": [
        {
          "internalType": "address",
          "name": "from",
          "type": "address"
        },
        {
          "internalType": "address",
          "name": "to",
          "type": "address"
        },
        {
          "internalType": "address",
          "name": "tokenAddress",
          "type": "address"
        },
        {
          "internalType": "uint256",
          "name": "tokenAmount",
          "type": "uint256"
        },
        {
          "internalType": "uint256",
          "name": "periodSeconds",
          "type": "uint256"
        },
        {
          "internalType": "uint256",
          "name": "gasPrice",
          "type": "uint256"
        },
        {
          "internalType": "uint256",
          "name": "nonce",
          "type": "uint256"
        }
      ],
      "name": "getSubscriptionHash",
      "outputs": [
        {
          "internalType": "bytes32",
          "name": "",
          "type": "bytes32"
        }
      ],
      "stateMutability": "view",
      "type": "function"
    },
    {
      "inputs": [
        {
          "internalType": "bytes32",
          "name": "subscriptionHash",
          "type": "bytes32"
        },
        {
          "internalType": "bytes",
          "name": "signature",
          "type": "bytes"
        }
      ],
      "name": "getSubscriptionSigner",
      "outputs": [
        {
          "internalType": "address",
          "name": "",
          "type": "address"
        }
      ],
      "stateMutability": "pure",
      "type": "function"
    },
    {
      "inputs": [
        {
          "internalType": "address",
          "name": "from",
          "type": "address"
        },
        {
          "internalType": "address",
          "name": "to",
          "type": "address"
        },
        {
          "internalType": "address",
          "name": "tokenAddress",
          "type": "address"
        },
        {
          "internalType": "uint256",
          "name": "tokenAmount",
          "type": "uint256"
        },
        {
          "internalType": "uint256",
          "name": "periodSeconds",
          "type": "uint256"
        },
        {
          "internalType": "uint256",
          "name": "gasPrice",
          "type": "uint256"
        },
        {
          "internalType": "uint256",
          "name": "nonce",
          "type": "uint256"
        },
        {
          "internalType": "bytes",
          "name": "signature",
          "type": "bytes"
        }
      ],
      "name": "isSubscriptionReady",
      "outputs": [
        {
          "internalType": "bool",
          "name": "",
          "type": "bool"
        }
      ],
      "stateMutability": "view",
      "type": "function"
    },
    {
      "inputs": [
        {
          "internalType": "address",
          "name": "from",
          "type": "address"
        },
        {
          "internalType": "address",
          "name": "to",
          "type": "address"
        },
        {
          "internalType": "address",
          "name": "tokenAddress",
          "type": "address"
        },
        {
          "internalType": "uint256",
          "name": "tokenAmount",
          "type": "uint256"
        },
        {
          "internalType": "uint256",
          "name": "periodSeconds",
          "type": "uint256"
        },
        {
          "internalType": "uint256",
          "name": "gasPrice",
          "type": "uint256"
        },
        {
          "internalType": "uint256",
          "name": "nonce",
          "type": "uint256"
        },
        {
          "internalType": "bytes",
          "name": "signature",
          "type": "bytes"
        }
      ],
      "name": "cancelSubscription",
      "outputs": [
        {
          "internalType": "bool",
          "name": "success",
          "type": "bool"
        }
      ],
      "stateMutability": "nonpayable",
      "type": "function"
    },
    {
      "inputs": [
        {
          "internalType": "address",
          "name": "from",
          "type": "address"
        },
        {
          "internalType": "address",
          "name": "to",
          "type": "address"
        },
        {
          "internalType": "address",
          "name": "tokenAddress",
          "type": "address"
        },
        {
          "internalType": "uint256",
          "name": "tokenAmount",
          "type": "uint256"
        },
        {
          "internalType": "uint256",
          "name": "periodSeconds",
          "type": "uint256"
        },
        {
          "internalType": "uint256",
          "name": "gasPrice",
          "type": "uint256"
        },
        {
          "internalType": "uint256",
          "name": "nonce",
          "type": "uint256"
        },
        {
          "internalType": "bytes",
          "name": "signature",
          "type": "bytes"
        }
      ],
      "name": "executeSubscription",
      "outputs": [
        {
          "internalType": "bool",
          "name": "success",
          "type": "bool"
        }
      ],
      "stateMutability": "nonpayable",
      "type": "function"
    },
    {
      "inputs": [],
      "name": "endContract",
      "outputs": [],
      "stateMutability": "nonpayable",
      "type": "function"
    }
  ],
  "bytecode": "0x608060405234801561001057600080fd5b50604051612303380380612303833981810160405260a081101561003357600080fd5b81019080805190602001909291908051906020019092919080519060200190929190805190602001909291908051906020019092919050505084600160006101000a81548173ffffffffffffffffffffffffffffffffffffffff021916908373ffffffffffffffffffffffffffffffffffffffff16021790555083600260006101000a81548173ffffffffffffffffffffffffffffffffffffffff021916908373ffffffffffffffffffffffffffffffffffffffff160217905550826003819055508160048190555080600581905550336000806101000a81548173ffffffffffffffffffffffffffffffffffffffff021916908373ffffffffffffffffffffffffffffffffffffffff16021790555050505050506121ac806101576000396000f3fe6080604052600436106100ec5760003560e01c8063a3d53d181161008a578063c814786511610059578063c814786514610593578063d3c576cd14610660578063d933c066146107c9578063ff59bff814610932576100f6565b8063a3d53d1814610463578063a6c3e6b9146104c8578063ae702ba41461051f578063bb6e7de91461057c576100f6565b8063384c3335116100c6578063384c3335146102635780636b40bba1146102ba5780636f264b2e146102e557806371d22d4d1461033c576100f6565b806310d92060146100fb57806318f321a31461012657806329d428ca14610238576100f6565b366100f657600080fd5b600080fd5b34801561010757600080fd5b50610110610981565b6040518082815260200191505060405180910390f35b34801561013257600080fd5b506101f66004803603604081101561014957600080fd5b81019080803590602001909291908035906020019064010000000081111561017057600080fd5b82018360208201111561018257600080fd5b803590602001918460018302840111640100000000831117156101a457600080fd5b91908080601f016020809104026020016040519081016040528093929190818152602001838380828437600081840152601f19601f820116905080830192505050505050509192919290505050610987565b604051808273ffffffffffffffffffffffffffffffffffffffff1673ffffffffffffffffffffffffffffffffffffffff16815260200191505060405180910390f35b34801561024457600080fd5b5061024d6109ac565b6040518082815260200191505060405180910390f35b34801561026f57600080fd5b506102786109b2565b604051808273ffffffffffffffffffffffffffffffffffffffff1673ffffffffffffffffffffffffffffffffffffffff16815260200191505060405180910390f35b3480156102c657600080fd5b506102cf6109d8565b6040518082815260200191505060405180910390f35b3480156102f157600080fd5b506102fa6109de565b604051808273ffffffffffffffffffffffffffffffffffffffff1673ffffffffffffffffffffffffffffffffffffffff16815260200191505060405180910390f35b34801561034857600080fd5b50610449600480360361010081101561036057600080fd5b81019080803573ffffffffffffffffffffffffffffffffffffffff169060200190929190803573ffffffffffffffffffffffffffffffffffffffff169060200190929190803573ffffffffffffffffffffffffffffffffffffffff169060200190929190803590602001909291908035906020019092919080359060200190929190803590602001909291908035906020019064010000000081111561040557600080fd5b82018360208201111561041757600080fd5b8035906020019184600183028401116401000000008311171561043957600080fd5b9091929391929390505050610a04565b604051808215151515815260200191505060405180910390f35b34801561046f57600080fd5b506104b26004803603602081101561048657600080fd5b81019080803573ffffffffffffffffffffffffffffffffffffffff169060200190929190505050610c8b565b6040518082815260200191505060405180910390f35b3480156104d457600080fd5b506104dd610ca3565b604051808273ffffffffffffffffffffffffffffffffffffffff1673ffffffffffffffffffffffffffffffffffffffff16815260200191505060405180910390f35b34801561052b57600080fd5b506105626004803603604081101561054257600080fd5b810190808035906020019092919080359060200190929190505050610cc8565b604051808215151515815260200191505060405180910390f35b34801561058857600080fd5b50610591610d40565b005b34801561059f57600080fd5b5061064a600480360360e08110156105b657600080fd5b81019080803573ffffffffffffffffffffffffffffffffffffffff169060200190929190803573ffffffffffffffffffffffffffffffffffffffff169060200190929190803573ffffffffffffffffffffffffffffffffffffffff16906020019092919080359060200190929190803590602001909291908035906020019092919080359060200190929190505050610db2565b6040518082815260200191505060405180910390f35b34801561066c57600080fd5b506107af600480360361010081101561068457600080fd5b81019080803573ffffffffffffffffffffffffffffffffffffffff169060200190929190803573ffffffffffffffffffffffffffffffffffffffff169060200190929190803573ffffffffffffffffffffffffffffffffffffffff169060200190929190803590602001909291908035906020019092919080359060200190929190803590602001909291908035906020019064010000000081111561072957600080fd5b82018360208201111561073b57600080fd5b8035906020019184600183028401116401000000008311171561075d57600080fd5b91908080601f016020809104026020016040519081016040528093929190818152602001838380828437600081840152601f19601f82011690508083019250505050505050919291929050505061133f565b604051808215151515815260200191505060405180910390f35b3480156107d557600080fd5b5061091860048036036101008110156107ed57600080fd5b81019080803573ffffffffffffffffffffffffffffffffffffffff169060200190929190803573ffffffffffffffffffffffffffffffffffffffff169060200190929190803573ffffffffffffffffffffffffffffffffffffffff169060200190929190803590602001909291908035906020019092919080359060200190929190803590602001909291908035906020019064010000000081111561089257600080fd5b8201836020820111156108a457600080fd5b803590602001918460018302840111640100000000831117156108c657600080fd5b91908080601f016020809104026020016040519081016040528093929190818152602001838380828437600081840152601f19601f8201169050808301925050505050505091929192905050506119b1565b604051808215151515815260200191505060405180910390f35b34801561093e57600080fd5b5061096b6004803603602081101561095557600080fd5b8101908080359060200190929190505050611c53565b6040518082815260200191505060405180910390f35b60055481565b60006109a48261099685611c6b565b611cc390919063ffffffff16565b905092915050565b60035481565b600160009054906101000a900473ffffffffffffffffffffffffffffffffffffffff1681565b60045481565b600260009054906101000a900473ffffffffffffffffffffffffffffffffffffffff1681565b600080610a168b8b8b8b8b8b8b610db2565b90506000610a688286868080601f016020809104026020016040519081016040528093929190818152602001838380828437600081840152601f19601f82011690508083019250505050505050610987565b90508b73ffffffffffffffffffffffffffffffffffffffff168173ffffffffffffffffffffffffffffffffffffffff1614610aee576040517f08c379a000000000000000000000000000000000000000000000000000000000815260040180806020018281038252602f815260200180612025602f913960400191505060405180910390fd5b3373ffffffffffffffffffffffffffffffffffffffff168c73ffffffffffffffffffffffffffffffffffffffff1614610b8f576040517f08c379a00000000000000000000000000000000000000000000000000000000081526004018080602001828103825260208152602001807f6d73672e73656e646572206973206e6f7420746865207375627363726962657281525060200191505060405180910390fd5b7fffffffffffffffffffffffffffffffffffffffffffffffffffffffffffffffff60066000848152602001908152602001600020819055508a73ffffffffffffffffffffffffffffffffffffffff168c73ffffffffffffffffffffffffffffffffffffffff167f51a97a25211c2be9b0b1dd64ee1de490cdb047390e6eba984e6a1d126e6ac4568c8c8c8c8c604051808673ffffffffffffffffffffffffffffffffffffffff1673ffffffffffffffffffffffffffffffffffffffff1681526020018581526020018481526020018381526020018281526020019550505050505060405180910390a36001925050509998505050505050505050565b60076020528060005260406000206000915090505481565b6000809054906101000a900473ffffffffffffffffffffffffffffffffffffffff1681565b60007fffffffffffffffffffffffffffffffffffffffffffffffffffffffffffffffff60066000858152602001908152602001600020541415610d0e5760009050610d3a565b610d34826006600086815260200190815260200160002054611f5e90919063ffffffff16565b42111590505b92915050565b6000809054906101000a900473ffffffffffffffffffffffffffffffffffffffff1673ffffffffffffffffffffffffffffffffffffffff163373ffffffffffffffffffffffffffffffffffffffff1614610d9957600080fd5b3373ffffffffffffffffffffffffffffffffffffffff16ff5b60008073ffffffffffffffffffffffffffffffffffffffff16600160009054906101000a900473ffffffffffffffffffffffffffffffffffffffff1673ffffffffffffffffffffffffffffffffffffffff161480610e5d5750600160009054906101000a900473ffffffffffffffffffffffffffffffffffffffff1673ffffffffffffffffffffffffffffffffffffffff168773ffffffffffffffffffffffffffffffffffffffff16145b610ecf576040517f08c379a00000000000000000000000000000000000000000000000000000000081526004018080602001828103825260198152602001807f7265717569726564546f41646472657373204661696c7572650000000000000081525060200191505060405180910390fd5b600073ffffffffffffffffffffffffffffffffffffffff16600260009054906101000a900473ffffffffffffffffffffffffffffffffffffffff1673ffffffffffffffffffffffffffffffffffffffff161480610f795750600260009054906101000a900473ffffffffffffffffffffffffffffffffffffffff1673ffffffffffffffffffffffffffffffffffffffff168673ffffffffffffffffffffffffffffffffffffffff16145b610feb576040517f08c379a000000000000000000000000000000000000000000000000000000000815260040180806020018281038252601c8152602001807f7265717569726564546f6b656e41646472657373204661696c7572650000000081525060200191505060405180910390fd5b60006003541480610ffd575060035485145b61106f576040517f08c379a000000000000000000000000000000000000000000000000000000000815260040180806020018281038252601b8152602001807f7265717569726564546f6b656e416d6f756e74204661696c757265000000000081525060200191505060405180910390fd5b60006004541480611081575060045484145b6110f3576040517f08c379a000000000000000000000000000000000000000000000000000000000815260040180806020018281038252601d8152602001807f7265717569726564506572696f645365636f6e6473204661696c75726500000081525060200191505060405180910390fd5b60006005541480611105575060055483145b611177576040517f08c379a00000000000000000000000000000000000000000000000000000000081526004018080602001828103825260188152602001807f72657175697265644761735072696365204661696c757265000000000000000081525060200191505060405180910390fd5b601960f81b600060f81b308a8a8a8a8a8a8a604051602001808b7effffffffffffffffffffffffffffffffffffffffffffffffffffffffffffff19167effffffffffffffffffffffffffffffffffffffffffffffffffffffffffffff191681526001018a7effffffffffffffffffffffffffffffffffffffffffffffffffffffffffffff19167effffffffffffffffffffffffffffffffffffffffffffffffffffffffffffff191681526001018973ffffffffffffffffffffffffffffffffffffffff1673ffffffffffffffffffffffffffffffffffffffff1660601b81526014018873ffffffffffffffffffffffffffffffffffffffff1673ffffffffffffffffffffffffffffffffffffffff1660601b81526014018773ffffffffffffffffffffffffffffffffffffffff1673ffffffffffffffffffffffffffffffffffffffff1660601b81526014018673ffffffffffffffffffffffffffffffffffffffff1673ffffffffffffffffffffffffffffffffffffffff1660601b81526014018581526020018481526020018381526020018281526020019a5050505050505050505050604051602081830303815290604052805190602001209050979650505050505050565b600061135189898989898989896119b1565b6113a6576040517f08c379a00000000000000000000000000000000000000000000000000000000081526004018080602001828103825260418152602001806121106041913960600191505060405180910390fd5b60006113b78a8a8a8a8a8a8a610db2565b90506113cc8642611f5e90919063ffffffff16565b6006600083815260200190815260200160002081905550600760008b73ffffffffffffffffffffffffffffffffffffffff1673ffffffffffffffffffffffffffffffffffffffff1681526020019081526020016000205484111561146f5783600760008c73ffffffffffffffffffffffffffffffffffffffff1673ffffffffffffffffffffffffffffffffffffffff168152602001908152602001600020819055505b60008873ffffffffffffffffffffffffffffffffffffffff166370a082318b6040518263ffffffff1660e01b8152600401808273ffffffffffffffffffffffffffffffffffffffff1673ffffffffffffffffffffffffffffffffffffffff16815260200191505060206040518083038186803b1580156114ee57600080fd5b505afa158015611502573d6000803e3d6000fd5b505050506040513d602081101561151857600080fd5b810190808051906020019092919050505090508873ffffffffffffffffffffffffffffffffffffffff166323b872dd8c8c8b6040518463ffffffff1660e01b8152600401808473ffffffffffffffffffffffffffffffffffffffff1673ffffffffffffffffffffffffffffffffffffffff1681526020018373ffffffffffffffffffffffffffffffffffffffff1673ffffffffffffffffffffffffffffffffffffffff1681526020018281526020019350505050602060405180830381600087803b1580156115e657600080fd5b505af11580156115fa573d6000803e3d6000fd5b505050506040513d602081101561161057600080fd5b8101908080519060200190929190505050508873ffffffffffffffffffffffffffffffffffffffff166370a082318b6040518263ffffffff1660e01b8152600401808273ffffffffffffffffffffffffffffffffffffffff1673ffffffffffffffffffffffffffffffffffffffff16815260200191505060206040518083038186803b15801561169f57600080fd5b505afa1580156116b3573d6000803e3d6000fd5b505050506040513d60208110156116c957600080fd5b810190808051906020019092919050505088820114611733576040517f08c379a00000000000000000000000000000000000000000000000000000000081526004018080602001828103825260268152602001806121516026913960400191505060405180910390fd5b61173b611fe6565b611790576040517f08c379a00000000000000000000000000000000000000000000000000000000081526004018080602001828103825260358152602001806120546035913960400191505060405180910390fd5b8973ffffffffffffffffffffffffffffffffffffffff168b73ffffffffffffffffffffffffffffffffffffffff167f96d296c945eee0618d3cc6f435f4d59f14bcefd708eab22c3de30df20b1347938b8b8b8b8b604051808673ffffffffffffffffffffffffffffffffffffffff1673ffffffffffffffffffffffffffffffffffffffff1681526020018581526020018481526020018381526020018281526020019550505050505060405180910390a3600086111561199f578873ffffffffffffffffffffffffffffffffffffffff166323b872dd8c33896040518463ffffffff1660e01b8152600401808473ffffffffffffffffffffffffffffffffffffffff1673ffffffffffffffffffffffffffffffffffffffff1681526020018373ffffffffffffffffffffffffffffffffffffffff1673ffffffffffffffffffffffffffffffffffffffff1681526020018281526020019350505050602060405180830381600087803b15801561190557600080fd5b505af1158015611919573d6000803e3d6000fd5b505050506040513d602081101561192f57600080fd5b810190808051906020019092919050505050611949611fe6565b61199e576040517f08c379a00000000000000000000000000000000000000000000000000000000081526004018080602001828103825260438152602001806120cd6043913960600191505060405180910390fd5b5b60019250505098975050505050505050565b6000806119c38a8a8a8a8a8a8a610db2565b905060006119d18285610987565b905060008973ffffffffffffffffffffffffffffffffffffffff1663dd62ed3e8d306040518363ffffffff1660e01b8152600401808373ffffffffffffffffffffffffffffffffffffffff1673ffffffffffffffffffffffffffffffffffffffff1681526020018273ffffffffffffffffffffffffffffffffffffffff1673ffffffffffffffffffffffffffffffffffffffff1681526020019250505060206040518083038186803b158015611a8657600080fd5b505afa158015611a9a573d6000803e3d6000fd5b505050506040513d6020811015611ab057600080fd5b8101908080519060200190929190505050905060008a73ffffffffffffffffffffffffffffffffffffffff166370a082318e6040518263ffffffff1660e01b8152600401808273ffffffffffffffffffffffffffffffffffffffff1673ffffffffffffffffffffffffffffffffffffffff16815260200191505060206040518083038186803b158015611b4257600080fd5b505afa158015611b56573d6000803e3d6000fd5b505050506040513d6020811015611b6c57600080fd5b810190808051906020019092919050505090508c73ffffffffffffffffffffffffffffffffffffffff168373ffffffffffffffffffffffffffffffffffffffff16148015611be657508b73ffffffffffffffffffffffffffffffffffffffff168d73ffffffffffffffffffffffffffffffffffffffff1614155b8015611c05575060066000858152602001908152602001600020544210155b8015611c235750611c1f888b611f5e90919063ffffffff16565b8210155b8015611c415750611c3d888b611f5e90919063ffffffff16565b8110155b94505050505098975050505050505050565b60066020528060005260406000206000915090505481565b60008160405160200180807f19457468657265756d205369676e6564204d6573736167653a0a333200000000815250601c01828152602001915050604051602081830303815290604052805190602001209050919050565b60006041825114611d3c576040517f08c379a000000000000000000000000000000000000000000000000000000000815260040180806020018281038252601f8152602001807f45434453413a20696e76616c6964207369676e6174757265206c656e6774680081525060200191505060405180910390fd5b60008060006020850151925060408501519150606085015160001a90507f7fffffffffffffffffffffffffffffff5d576e7357a4501ddfe92f46681b20a08260001c1115611dd5576040517f08c379a00000000000000000000000000000000000000000000000000000000081526004018080602001828103825260228152602001806120896022913960400191505060405180910390fd5b601b8160ff1614158015611ded5750601c8160ff1614155b15611e43576040517f08c379a00000000000000000000000000000000000000000000000000000000081526004018080602001828103825260228152602001806120ab6022913960400191505060405180910390fd5b600060018783868660405160008152602001604052604051808581526020018460ff1660ff1681526020018381526020018281526020019450505050506020604051602081039080840390855afa158015611ea2573d6000803e3d6000fd5b505050602060405103519050600073ffffffffffffffffffffffffffffffffffffffff168173ffffffffffffffffffffffffffffffffffffffff161415611f51576040517f08c379a00000000000000000000000000000000000000000000000000000000081526004018080602001828103825260188152602001807f45434453413a20696e76616c6964207369676e6174757265000000000000000081525060200191505060405180910390fd5b8094505050505092915050565b600080828401905083811015611fdc576040517f08c379a000000000000000000000000000000000000000000000000000000000815260040180806020018281038252601b8152602001807f536166654d6174683a206164646974696f6e206f766572666c6f77000000000081525060200191505060405180910390fd5b8091505092915050565b600080600090503d60008114612003576020811461200c57612018565b60019150612018565b60206000803e60005191505b5060008114159150509056fe496e76616c6964205369676e617475726520666f7220737562736372697074696f6e2063616e63656c6c6174696f6e537562736372697074696f6e3a3a65786563757465537562736372697074696f6e205472616e7366657246726f6d206661696c656445434453413a20696e76616c6964207369676e6174757265202773272076616c756545434453413a20696e76616c6964207369676e6174757265202776272076616c7565537562736372697074696f6e3a3a65786563757465537562736372697074696f6e204661696c656420746f20706179206761732061732066726f6d206163636f756e74537562736372697074696f6e206973206e6f74207265616479206f7220636f6e646974696f6e73206f66207472616e736374696f6e20617265206e6f74206d657445524332302042616c616e636520646964206e6f74206368616e676520636f72726563746c79a2646970667358221220cbe66855e979e2ccd8891e93837666f218e314b351b3c16c068d8c31d4d8a04464736f6c63430006020033",
  "source": "pragma solidity >=0.6.0 <0.7.0;\n\n/*\n  I took it from here https://github.com/austintgriffith/tokensubscription.com/commit/bbefebf9c203b8700a34f56c15732ad30c368846\n  and fixed it (new solidity version; fixing executeSubscription)\n\n  Super Simple Token Subscriptions - https://tokensubscription.com\n  //// Breakin Through @ University of Wyoming ////\n  Austin Thomas Griffith - https://austingriffith.com\n  Building on previous works:\n    https://github.com/austintgriffith/token-subscription\n    https://gist.github.com/androolloyd/0a62ef48887be00a5eff5c17f2be849a\n    https://media.consensys.net/subscription-services-on-the-blockchain-erc-948-6ef64b083a36\n    https://medium.com/gitcoin/technical-deep-dive-architecture-choices-for-subscriptions-on-the-blockchain-erc948-5fae89cabc7a\n    https://github.com/ethereum/EIPs/pull/1337\n    https://github.com/ethereum/EIPs/blob/master/EIPS/eip-1077.md\n    https://github.com/gnosis/safe-contracts\n  Earlier Meta Transaction Demo:\n    https://github.com/austintgriffith/bouncer-proxy\n  Huge thanks, as always, to OpenZeppelin for the rad contracts:\n */\n\nimport \"@openzeppelin/contracts/cryptography/ECDSA.sol\";\nimport \"@openzeppelin/contracts/math/SafeMath.sol\";\nimport \"@openzeppelin/contracts/token/ERC20/ERC20.sol\";\n\n\ncontract Subscription {\n    using ECDSA for bytes32;\n    using SafeMath for uint256;\n\n    //who deploys the contract\n    address public author;\n\n    // the publisher may optionally deploy requirements for the subscription\n    // so only meta transactions that match the requirements can be relayed\n    address public requiredToAddress;\n    address public requiredTokenAddress;\n    uint256 public requiredTokenAmount;\n    uint256 public requiredPeriodSeconds;\n    uint256 public requiredGasPrice;\n\n    // similar to a nonce that avoids replay attacks this allows a single execution\n    // every x seconds for a given subscription\n    // subscriptionHash  => next valid block number\n    mapping(bytes32 => uint256) public nextValidTimestamp;\n\n    //we'll use a nonce for each from but because transactions can go through\n    //multiple times, we allow anything but users can use this as a signal for\n    //uniqueness\n    mapping(address => uint256) public extraNonce;\n\n    event ExecuteSubscription(\n        address indexed from, //the subscriber\n        address indexed to, //the publisher\n        address tokenAddress, //the token address paid to the publisher\n        uint256 tokenAmount, //the token amount paid to the publisher\n        uint256 periodSeconds, //the period in seconds between payments\n        uint256 gasPrice, //the amount of tokens to pay relayer (0 for free)\n        uint256 nonce // to allow multiple subscriptions with the same parameters\n    );\n\n    event CancelSubscription(\n        address indexed from, //the subscriber\n        address indexed to, //the publisher\n        address tokenAddress, //the token address paid to the publisher\n        uint256 tokenAmount, //the token amount paid to the publisher\n        uint256 periodSeconds, //the period in seconds between payments\n        uint256 gasPrice, //the amount of tokens to pay relayer (0 for free)\n        uint256 nonce // to allow multiple subscriptions with the same parameters\n    );\n\n    constructor(\n        address _toAddress,\n        address _tokenAddress,\n        uint256 _tokenAmount,\n        uint256 _periodSeconds,\n        uint256 _gasPrice\n    ) public {\n        requiredToAddress=_toAddress;\n        requiredTokenAddress=_tokenAddress;\n        requiredTokenAmount=_tokenAmount;\n        requiredPeriodSeconds=_periodSeconds;\n        requiredGasPrice=_gasPrice;\n        author=msg.sender;\n    }\n\n    // this is used by external smart contracts to verify on-chain that a\n    // particular subscription is \"paid\" and \"active\"\n    // there must be a small grace period added to allow the publisher\n    // or desktop miner to execute\n    function isSubscriptionActive(\n        bytes32 subscriptionHash,\n        uint256 gracePeriodSeconds\n    )\n        external\n        view\n        returns (bool)\n    {\n        if(nextValidTimestamp[subscriptionHash]==uint256(-1)){\n          return false;\n        }\n        return (block.timestamp <=\n                nextValidTimestamp[subscriptionHash].add(gracePeriodSeconds)\n        );\n    }\n\n    // given the subscription details, generate a hash and try to kind of follow\n    // the eip-191 standard and eip-1077 standard from my dude @avsa\n    function getSubscriptionHash(\n        address from, //the subscriber\n        address to, //the publisher\n        address tokenAddress, //the token address paid to the publisher\n        uint256 tokenAmount, //the token amount paid to the publisher\n        uint256 periodSeconds, //the period in seconds between payments\n        uint256 gasPrice, //the amount of tokens or eth to pay relayer (0 for free)\n        uint256 nonce // to allow multiple subscriptions with the same parameters\n    )\n        public\n        view\n        returns (bytes32)\n    {\n        // if there are requirements from the deployer, let's make sure\n        // those are met exactly\n        require( requiredToAddress == address(0) || to == requiredToAddress, \"requiredToAddress Failure\" );\n        require( requiredTokenAddress == address(0) || tokenAddress == requiredTokenAddress, \"requiredTokenAddress Failure\"  );\n        require( requiredTokenAmount == 0 || tokenAmount == requiredTokenAmount, \"requiredTokenAmount Failure\"  );\n        require( requiredPeriodSeconds == 0 || periodSeconds == requiredPeriodSeconds, \"requiredPeriodSeconds Failure\"  );\n        require( requiredGasPrice == 0 || gasPrice == requiredGasPrice, \"requiredGasPrice Failure\"  );\n\n        return keccak256(\n            abi.encodePacked(\n                byte(0x19),\n                byte(0),\n                address(this),\n                from,\n                to,\n                tokenAddress,\n                tokenAmount,\n                periodSeconds,\n                gasPrice,\n                nonce\n        ));\n    }\n\n    //ecrecover the signer from hash and the signature\n    function getSubscriptionSigner(\n        bytes32 subscriptionHash, //hash of subscription\n        bytes memory signature //proof the subscriber signed the meta trasaction\n    )\n        public\n        pure\n        returns (address)\n    {\n        return subscriptionHash.toEthSignedMessageHash().recover(signature);\n    }\n\n    //check if a subscription is signed correctly and the timestamp is ready for\n    // the next execution to happen\n    function isSubscriptionReady(\n        address from, //the subscriber\n        address to, //the publisher\n        address tokenAddress, //the token address paid to the publisher\n        uint256 tokenAmount, //the token amount paid to the publisher\n        uint256 periodSeconds, //the period in seconds between payments\n        uint256 gasPrice, //the amount of the token to incentivize the relay network\n        uint256 nonce,// to allow multiple subscriptions with the same parameters\n        bytes memory signature //proof the subscriber signed the meta trasaction\n    )\n        public\n        view\n        returns (bool)\n    {\n        bytes32 subscriptionHash = getSubscriptionHash(\n            from, to, tokenAddress, tokenAmount, periodSeconds, gasPrice, nonce\n        );\n        address signer = getSubscriptionSigner(subscriptionHash, signature);\n        uint256 allowance = ERC20(tokenAddress).allowance(from, address(this));\n        uint256 balance = ERC20(tokenAddress).balanceOf(from);\n\n        return (\n            signer == from &&\n            from != to &&\n            block.timestamp >= nextValidTimestamp[subscriptionHash] &&\n            allowance >= tokenAmount.add(gasPrice) &&\n            balance >= tokenAmount.add(gasPrice)\n        );\n    }\n\n    // you don't really need this if you are using the approve/transferFrom method\n    // because you control the flow of tokens by approving this contract address,\n    // but to make the contract an extensible example for later user I'll add this\n    function cancelSubscription(\n        address from, //the subscriber\n        address to, //the publisher\n        address tokenAddress, //the token address paid to the publisher\n        uint256 tokenAmount, //the token amount paid to the publisher\n        uint256 periodSeconds, //the period in seconds between payments\n        uint256 gasPrice, //the amount of tokens or eth to pay relayer (0 for free)\n        uint256 nonce, //to allow multiple subscriptions with the same parameters\n        bytes calldata signature //proof the subscriber signed the meta trasaction\n    )\n        external\n        returns (bool success)\n    {\n        bytes32 subscriptionHash = getSubscriptionHash(\n            from, to, tokenAddress, tokenAmount, periodSeconds, gasPrice, nonce\n        );\n        address signer = getSubscriptionSigner(subscriptionHash, signature);\n\n        //the signature must be valid\n        require(signer == from, \"Invalid Signature for subscription cancellation\");\n\n        //make sure it's the subscriber\n        require(from == msg.sender, 'msg.sender is not the subscriber');\n\n        //nextValidTimestamp should be a timestamp that will never\n        //be reached during the brief window human existence\n        nextValidTimestamp[subscriptionHash]=uint256(-1);\n\n        emit CancelSubscription(\n            from, to, tokenAddress, tokenAmount, periodSeconds, gasPrice, nonce\n        );\n\n        return true;\n    }\n\n    // execute the transferFrom to pay the publisher from the subscriber\n    // the subscriber has full control by approving this contract an allowance\n    function executeSubscription(\n        address from, //the subscriber\n        address to, //the publisher\n        address tokenAddress, //the token address paid to the publisher\n        uint256 tokenAmount, //the token amount paid to the publisher\n        uint256 periodSeconds, //the period in seconds between payments\n        uint256 gasPrice, //the amount of tokens or eth to pay relayer (0 for free)\n        uint256 nonce, // to allow multiple subscriptions with the same parameters\n        bytes memory signature //proof the subscriber signed the meta trasaction\n    )\n        public\n        returns (bool success)\n    {\n        // make sure the subscription is valid and ready\n        require(isSubscriptionReady(from, to, tokenAddress, tokenAmount, periodSeconds, gasPrice, nonce, signature), \n                \"Subscription is not ready or conditions of transction are not met\");\n\n        // pulled this out so I have the hash, should be exact code as \"isSubscriptionReady\"\n        bytes32 subscriptionHash = getSubscriptionHash(\n            from, to, tokenAddress, tokenAmount, periodSeconds, gasPrice, nonce\n        );\n\n        //increment the timestamp by the period so it wont be valid until then\n        nextValidTimestamp[subscriptionHash] = block.timestamp.add(periodSeconds);\n\n        //check to see if this nonce is larger than the current count and we'll set that for this 'from'\n        if(nonce > extraNonce[from]){\n          extraNonce[from] = nonce;\n        }\n\n        // now, let make the transfer from the subscriber to the publisher\n        uint256 startingBalance = ERC20(tokenAddress).balanceOf(to);\n        ERC20(tokenAddress).transferFrom(from,to,tokenAmount);\n        require(\n          (startingBalance+tokenAmount) == ERC20(tokenAddress).balanceOf(to),\n          \"ERC20 Balance did not change correctly\"\n        );\n\n        require(\n          checkSuccess(),\n          \"Subscription::executeSubscription TransferFrom failed\"\n        );\n\n\n        emit ExecuteSubscription(\n            from, to, tokenAddress, tokenAmount, periodSeconds, gasPrice, nonce\n        );\n\n        // it is possible for the subscription execution to be run by a third party\n        // incentivized in the terms of the subscription with a gasPrice of the tokens\n        //  - pay that out now...\n        if (gasPrice > 0) {\n            //the relayer is incentivized by a little of the same token from\n            // the subscriber ... as far as the subscriber knows, they are\n            // just sending X tokens to the publisher, but the publisher can\n            // choose to send Y of those X to a relayer to run their transactions\n            // the publisher will receive X - Y tokens\n            // this must all be setup in the constructor\n            // if not, the subscriber chooses all the params including what goes\n            // to the publisher and what goes to the relayer\n            ERC20(tokenAddress).transferFrom(from, msg.sender, gasPrice);\n            require(\n                checkSuccess(),\n                \"Subscription::executeSubscription Failed to pay gas as from account\"\n            );\n        }\n\n        return true;\n    }\n\n    // because of issues with non-standard erc20s the transferFrom can always return false\n    // to fix this we run it and then check the return of the previous function:\n    //    https://github.com/ethereum/solidity/issues/4116\n    /**\n     * Checks the return value of the previous function. Returns true if the previous function\n     * function returned 32 non-zero bytes or returned zero bytes.\n     */\n    function checkSuccess(\n    )\n        private\n        pure\n        returns (bool)\n    {\n        uint256 returnValue = 0;\n\n        /* solium-disable-next-line security/no-inline-assembly */\n        assembly {\n            // check number of bytes returned from last function call\n            switch returndatasize()\n            // no bytes returned: assume success\n            case 0x0 {\n                returnValue := 1\n            }\n\n            // 32 bytes returned: check if non-zero\n            case 0x20 {\n                // copy 32 bytes into scratch space\n                returndatacopy(0x0, 0x0, 0x20)\n\n                // load those bytes into returnValue\n                returnValue := mload(0x0)\n            }\n            // not sure what was returned: dont mark as success\n            default { }\n        }\n\n        return returnValue != 0;\n    }\n\n    // we would like a way for the author to completly destroy the subscription\n    // contract to prevent further transfers\n    function endContract()\n        external\n    {\n      require(msg.sender==author);\n      selfdestruct(msg.sender);\n    }\n\n    // let's go ahead and revert any ETH sent directly to the contract\n    receive() external payable {\n       revert ();\n    }\n}\n",
  "sourcePath": "/Users/mmv/projects/simple-pos/simple-pos-contracts/contracts/subscription/Subscription.sol",
  "compiler": {
    "name": "solc",
    "version": "0.6.2+commit.bacdbe57.Emscripten.clang"
  },
  "schemaVersion": "3.3.1",
  "updatedAt": "2020-10-16T09:47:38.441Z",
  "devdoc": {
    "methods": {}
  },
  "userdoc": {
    "methods": {}
  }
}