{
  "contractName": "MockUniswapExchange",
  "abi": [
    {
      "inputs": [],
      "stateMutability": "nonpayable",
      "type": "constructor"
    },
    {
      "anonymous": false,
      "inputs": [
        {
          "indexed": true,
          "internalType": "address",
          "name": "stableCoin",
          "type": "address"
        }
      ],
      "name": "MockExchangeCreated",
      "type": "event"
    },
    {
      "inputs": [],
      "name": "tokenAddress",
      "outputs": [
        {
          "internalType": "address",
          "name": "token",
          "type": "address"
        }
      ],
      "stateMutability": "view",
      "type": "function"
    },
    {
      "inputs": [
        {
          "internalType": "uint256",
          "name": "min_tokens",
          "type": "uint256"
        },
        {
          "internalType": "uint256",
          "name": "deadline",
          "type": "uint256"
        }
      ],
      "name": "ethToTokenSwapInput",
      "outputs": [
        {
          "internalType": "uint256",
          "name": "tokens_bought",
          "type": "uint256"
        }
      ],
      "stateMutability": "payable",
      "type": "function"
    },
    {
      "inputs": [
        {
          "internalType": "uint256",
          "name": "tokens_sold",
          "type": "uint256"
        },
        {
          "internalType": "uint256",
          "name": "min_tokens_bought",
          "type": "uint256"
        },
        {
          "internalType": "uint256",
          "name": "min_eth_bought",
          "type": "uint256"
        },
        {
          "internalType": "uint256",
          "name": "deadline",
          "type": "uint256"
        },
        {
          "internalType": "address",
          "name": "token_addr",
          "type": "address"
        }
      ],
      "name": "tokenToTokenSwapInput",
      "outputs": [
        {
          "internalType": "uint256",
          "name": "tokens_bought",
          "type": "uint256"
        }
      ],
      "stateMutability": "nonpayable",
      "type": "function"
    },
    {
      "inputs": [
        {
          "internalType": "uint256",
          "name": "newRate",
          "type": "uint256"
        }
      ],
      "name": "setEthToTokenSwapRate",
      "outputs": [],
      "stateMutability": "nonpayable",
      "type": "function"
    }
  ],
  "bytecode": "0x608060405234801561001057600080fd5b5060405161001d906100cb565b6040808252600b818301526a29ba30b136329021b7b4b760a91b60608301526080602083018190526004908301526314d5109360e21b60a0830152519081900360c001906000f080158015610076573d6000803e3d6000fd5b50600080546001600160a01b0319166001600160a01b039283161780825560018080556002556040519216917fb589ac0bdea06400f965e269b0625a60cc9b67b51aac778ed85b3968cff388369190a26100d8565b6116b2806102d683390190565b6101ef806100e76000396000f3fe60806040526004361061003f5760003560e01c806392a06eb4146100445780639d76ea5814610070578063ddf7e1a7146100a1578063f39b5b9b146100fe575b600080fd5b34801561005057600080fd5b5061006e6004803603602081101561006757600080fd5b5035610121565b005b34801561007c57600080fd5b50610085610126565b604080516001600160a01b039092168252519081900360200190f35b3480156100ad57600080fd5b506100ec600480360360a08110156100c457600080fd5b50803590602081013590604081013590606081013590608001356001600160a01b0316610135565b60408051918252519081900360200190f35b6100ec6004803603604081101561011457600080fd5b5080359060200135610143565b600155565b6000546001600160a01b031690565b600254850295945050505050565b60015460008054604080516340c10f1960e01b81523360048201523490940260248501819052905190936001600160a01b03909216926340c10f19926044808201939182900301818387803b15801561019b57600080fd5b505af11580156101af573d6000803e3d6000fd5b505050509291505056fea2646970667358221220aacca122db8bfa25af3e699fe5088a11e8f374672a378a6478e1dbbd8ac115e564736f6c6343000602003360806040523480156200001157600080fd5b50604051620016b2380380620016b2833981810160405260408110156200003757600080fd5b81019080805160405193929190846401000000008211156200005857600080fd5b9083019060208201858111156200006e57600080fd5b82516401000000008111828201881017156200008957600080fd5b82525081516020918201929091019080838360005b83811015620000b85781810151838201526020016200009e565b50505050905090810190601f168015620000e65780820380516001836020036101000a031916815260200191505b50604052602001805160405193929190846401000000008211156200010a57600080fd5b9083019060208201858111156200012057600080fd5b82516401000000008111828201881017156200013b57600080fd5b82525081516020918201929091019080838360005b838110156200016a57818101518382015260200162000150565b50505050905090810190601f168015620001985780820380516001836020036101000a031916815260200191505b50604052505082518391508290620001b890600390602085019062000356565b508051620001ce90600490602084019062000356565b50506005805460ff1916601217905550604080516a4d494e5445525f524f4c4560a81b8152905190819003600b0190206200021390336001600160e01b036200021b16565b5050620003f8565b6200023082826001600160e01b036200023416565b5050565b60008281526006602090815260409091206200025b91839062000f09620002b8821b17901c565b156200023057620002746001600160e01b03620002e116565b6001600160a01b0316816001600160a01b0316837f2f8788117e7eff1d82e926ec794901d17c78024a50270940304540a733656f0d60405160405180910390a45050565b6000620002d8836001600160a01b0384166001600160e01b03620002e616565b90505b92915050565b335b90565b6000620002fd83836001600160e01b036200033e16565b6200033557508154600181810184556000848152602080822090930184905584548482528286019093526040902091909155620002db565b506000620002db565b60009081526001919091016020526040902054151590565b828054600181600116156101000203166002900490600052602060002090601f016020900481019282601f106200039957805160ff1916838001178555620003c9565b82800160010185558215620003c9579182015b82811115620003c9578251825591602001919060010190620003ac565b50620003d7929150620003db565b5090565b620002e391905b80821115620003d75760008155600101620003e2565b6112aa80620004086000396000f3fe608060405234801561001057600080fd5b50600436106101375760003560e01c806370a08231116100b8578063a457c2d71161007c578063a457c2d7146103d7578063a9059cbb14610403578063ca15c8731461042f578063d53913931461044c578063d547741f14610454578063dd62ed3e1461048057610137565b806370a08231146103365780639010d07c1461035c57806391d148541461039b57806395d89b41146103c7578063a217fddf146103cf57610137565b80632f2ff15d116100ff5780632f2ff15d14610266578063313ce5671461029457806336568abe146102b257806339509351146102de57806340c10f191461030a57610137565b806306fdde031461013c578063095ea7b3146101b957806318160ddd146101f957806323b872dd14610213578063248a9ca314610249575b600080fd5b6101446104ae565b6040805160208082528351818301528351919283929083019185019080838360005b8381101561017e578181015183820152602001610166565b50505050905090810190601f1680156101ab5780820380516001836020036101000a031916815260200191505b509250505060405180910390f35b6101e5600480360360408110156101cf57600080fd5b506001600160a01b038135169060200135610544565b604080519115158252519081900360200190f35b610201610562565b60408051918252519081900360200190f35b6101e56004803603606081101561022957600080fd5b506001600160a01b03813581169160208101359091169060400135610568565b6102016004803603602081101561025f57600080fd5b50356105f5565b6102926004803603604081101561027c57600080fd5b50803590602001356001600160a01b031661060a565b005b61029c610676565b6040805160ff9092168252519081900360200190f35b610292600480360360408110156102c857600080fd5b50803590602001356001600160a01b031661067f565b6101e5600480360360408110156102f457600080fd5b506001600160a01b0381351690602001356106e0565b6102926004803603604081101561032057600080fd5b506001600160a01b038135169060200135610734565b6102016004803603602081101561034c57600080fd5b50356001600160a01b03166107b2565b61037f6004803603604081101561037257600080fd5b50803590602001356107cd565b604080516001600160a01b039092168252519081900360200190f35b6101e5600480360360408110156103b157600080fd5b50803590602001356001600160a01b03166107f2565b610144610810565b610201610871565b6101e5600480360360408110156103ed57600080fd5b506001600160a01b038135169060200135610876565b6101e56004803603604081101561041957600080fd5b506001600160a01b0381351690602001356108e4565b6102016004803603602081101561044557600080fd5b50356108f8565b61020161090f565b6102926004803603604081101561046a57600080fd5b50803590602001356001600160a01b0316610932565b6102016004803603604081101561049657600080fd5b506001600160a01b038135811691602001351661098b565b60038054604080516020601f600260001961010060018816150201909516949094049384018190048102820181019092528281526060939092909183018282801561053a5780601f1061050f5761010080835404028352916020019161053a565b820191906000526020600020905b81548152906001019060200180831161051d57829003601f168201915b5050505050905090565b60006105586105516109b6565b84846109ba565b5060015b92915050565b60025490565b6000610575848484610aa6565b6105eb846105816109b6565b6105e6856040518060600160405280602881526020016111b0602891396001600160a01b038a166000908152600160205260408120906105bf6109b6565b6001600160a01b03168152602081019190915260400160002054919063ffffffff610c0d16565b6109ba565b5060019392505050565b60009081526006602052604090206002015490565b60008281526006602052604090206002015461062d906106286109b6565b6107f2565b6106685760405162461bcd60e51b815260040180806020018281038252602f815260200180611109602f913960400191505060405180910390fd5b6106728282610ca4565b5050565b60055460ff1690565b6106876109b6565b6001600160a01b0316816001600160a01b0316146106d65760405162461bcd60e51b815260040180806020018281038252602f815260200180611246602f913960400191505060405180910390fd5b6106728282610d13565b60006105586106ed6109b6565b846105e685600160006106fe6109b6565b6001600160a01b03908116825260208083019390935260409182016000908120918c16815292529020549063ffffffff610d8216565b604080516a4d494e5445525f524f4c4560a81b8152905190819003600b01902061075e90336107f2565b6107a8576040805162461bcd60e51b815260206004820152601660248201527521b0b63632b91034b9903737ba10309036b4b73a32b960511b604482015290519081900360640190fd5b6106728282610ddc565b6001600160a01b031660009081526020819052604090205490565b60008281526006602052604081206107eb908363ffffffff610ed816565b9392505050565b60008281526006602052604081206107eb908363ffffffff610ee416565b60048054604080516020601f600260001961010060018816150201909516949094049384018190048102820181019092528281526060939092909183018282801561053a5780601f1061050f5761010080835404028352916020019161053a565b600081565b60006105586108836109b6565b846105e68560405180606001604052806025815260200161122160259139600160006108ad6109b6565b6001600160a01b03908116825260208083019390935260409182016000908120918d1681529252902054919063ffffffff610c0d16565b60006105586108f16109b6565b8484610aa6565b600081815260066020526040812061055c90610ef9565b604080516a4d494e5445525f524f4c4560a81b8152905190819003600b01902081565b600082815260066020526040902060020154610950906106286109b6565b6106d65760405162461bcd60e51b81526004018080602001828103825260308152602001806111806030913960400191505060405180910390fd5b6001600160a01b03918216600090815260016020908152604080832093909416825291909152205490565b3390565b6001600160a01b0383166109ff5760405162461bcd60e51b81526004018080602001828103825260248152602001806111fd6024913960400191505060405180910390fd5b6001600160a01b038216610a445760405162461bcd60e51b81526004018080602001828103825260228152602001806111386022913960400191505060405180910390fd5b6001600160a01b03808416600081815260016020908152604080832094871680845294825291829020859055815185815291517f8c5be1e5ebec7d5bd14f71427d1e84f3dd0314c0f7b2291e5b200ac8c7c3b9259281900390910190a3505050565b6001600160a01b038316610aeb5760405162461bcd60e51b81526004018080602001828103825260258152602001806111d86025913960400191505060405180910390fd5b6001600160a01b038216610b305760405162461bcd60e51b81526004018080602001828103825260238152602001806110e66023913960400191505060405180910390fd5b610b3b838383610f04565b610b7e8160405180606001604052806026815260200161115a602691396001600160a01b038616600090815260208190526040902054919063ffffffff610c0d16565b6001600160a01b038085166000908152602081905260408082209390935590841681522054610bb3908263ffffffff610d8216565b6001600160a01b038084166000818152602081815260409182902094909455805185815290519193928716927fddf252ad1be2c89b69c2b068fc378daa952ba7f163c4a11628f55a4df523b3ef92918290030190a3505050565b60008184841115610c9c5760405162461bcd60e51b81526004018080602001828103825283818151815260200191508051906020019080838360005b83811015610c61578181015183820152602001610c49565b50505050905090810190601f168015610c8e5780820380516001836020036101000a031916815260200191505b509250505060405180910390fd5b505050900390565b6000828152600660205260409020610cc2908263ffffffff610f0916565b1561067257610ccf6109b6565b6001600160a01b0316816001600160a01b0316837f2f8788117e7eff1d82e926ec794901d17c78024a50270940304540a733656f0d60405160405180910390a45050565b6000828152600660205260409020610d31908263ffffffff610f1e16565b1561067257610d3e6109b6565b6001600160a01b0316816001600160a01b0316837ff6391f5c32d9c69d2a47ea670b442974b53935d1edc7fd64eb21e047a839171b60405160405180910390a45050565b6000828201838110156107eb576040805162461bcd60e51b815260206004820152601b60248201527f536166654d6174683a206164646974696f6e206f766572666c6f770000000000604482015290519081900360640190fd5b6001600160a01b038216610e37576040805162461bcd60e51b815260206004820152601f60248201527f45524332303a206d696e7420746f20746865207a65726f206164647265737300604482015290519081900360640190fd5b610e4360008383610f04565b600254610e56908263ffffffff610d8216565b6002556001600160a01b038216600090815260208190526040902054610e82908263ffffffff610d8216565b6001600160a01b0383166000818152602081815260408083209490945583518581529351929391927fddf252ad1be2c89b69c2b068fc378daa952ba7f163c4a11628f55a4df523b3ef9281900390910190a35050565b60006107eb8383610f33565b60006107eb836001600160a01b038416610f97565b600061055c82610faf565b505050565b60006107eb836001600160a01b038416610fb3565b60006107eb836001600160a01b038416610ffd565b81546000908210610f755760405162461bcd60e51b81526004018080602001828103825260228152602001806110c46022913960400191505060405180910390fd5b826000018281548110610f8457fe5b9060005260206000200154905092915050565b60009081526001919091016020526040902054151590565b5490565b6000610fbf8383610f97565b610ff55750815460018181018455600084815260208082209093018490558454848252828601909352604090209190915561055c565b50600061055c565b600081815260018301602052604081205480156110b9578354600019808301919081019060009087908390811061103057fe5b906000526020600020015490508087600001848154811061104d57fe5b60009182526020808320909101929092558281526001898101909252604090209084019055865487908061107d57fe5b6001900381819060005260206000200160009055905586600101600087815260200190815260200160002060009055600194505050505061055c565b600091505061055c56fe456e756d657261626c655365743a20696e646578206f7574206f6620626f756e647345524332303a207472616e7366657220746f20746865207a65726f2061646472657373416363657373436f6e74726f6c3a2073656e646572206d75737420626520616e2061646d696e20746f206772616e7445524332303a20617070726f766520746f20746865207a65726f206164647265737345524332303a207472616e7366657220616d6f756e7420657863656564732062616c616e6365416363657373436f6e74726f6c3a2073656e646572206d75737420626520616e2061646d696e20746f207265766f6b6545524332303a207472616e7366657220616d6f756e74206578636565647320616c6c6f77616e636545524332303a207472616e736665722066726f6d20746865207a65726f206164647265737345524332303a20617070726f76652066726f6d20746865207a65726f206164647265737345524332303a2064656372656173656420616c6c6f77616e63652062656c6f77207a65726f416363657373436f6e74726f6c3a2063616e206f6e6c792072656e6f756e636520726f6c657320666f722073656c66a26469706673582212206b45514ba92bdd04d478eca51f6ef3e652dbb50a9c6b8be0542c891a70aeff9a64736f6c63430006020033",
  "source": "pragma solidity >=0.6.0 <0.7.0;\n\nimport \"../interfaces/IUniswapExchange.sol\";\nimport \"./MockStableCoin.sol\";\nimport \"@openzeppelin/contracts/token/ERC20/ERC20.sol\";\n\ncontract MockUniswapExchange is IUniswapExchange {\n    MockStableCoin _exchangeToken;\n    uint _ethToTokenSwapRate;\n    uint _tokenToTokenSwapRate;\n\n    event MockExchangeCreated(address indexed stableCoin);\n\n    constructor () \n        public \n    {\n        _exchangeToken = new MockStableCoin(\"Stable Coin\", \"STBL\");\n        _ethToTokenSwapRate = 1;\n        _tokenToTokenSwapRate = 1;\n        emit MockExchangeCreated(address(_exchangeToken));\n    }\n\n    // Address of ERC20 token sold on this exchange\n    function tokenAddress() \n        external \n        view \n        override \n        returns (address token) \n    {\n        return address(_exchangeToken);\n    }\n\n    // Trade ETH to ERC20\n    function ethToTokenSwapInput(uint256 min_tokens, uint256 deadline) \n        external \n        payable \n        override\n        returns (uint256 tokens_bought) \n    {\n        tokens_bought = msg.value * _ethToTokenSwapRate;\n        _exchangeToken.mint(msg.sender, tokens_bought);\n    }\n\n    // Trade ERC20 to ERC20\n    function tokenToTokenSwapInput(uint256 tokens_sold, uint256 min_tokens_bought, uint256 min_eth_bought, uint256 deadline, address token_addr) \n        external \n        override\n        returns (uint256  tokens_bought) \n    {\n        return tokens_sold * _tokenToTokenSwapRate;\n    }\n\n    function setEthToTokenSwapRate(uint newRate) \n        external\n    {\n        _ethToTokenSwapRate = newRate;\n    }\n}\n",
  "sourcePath": "/Users/mmv/projects/simple-pos/simple-pos-contracts/contracts/test-helpers/MockUniswapExchange.sol",
  "compiler": {
    "name": "solc",
    "version": "0.6.2+commit.bacdbe57.Emscripten.clang"
  },
  "schemaVersion": "3.3.1",
  "updatedAt": "2020-12-26T05:35:07.829Z",
  "devdoc": {
    "methods": {}
  },
  "userdoc": {
    "methods": {}
  }
}