{
  "contractName": "SimplePOSToken",
  "abi": [
    {
      "inputs": [
        {
          "internalType": "string",
          "name": "name",
          "type": "string"
        },
        {
          "internalType": "string",
          "name": "symbol",
          "type": "string"
        }
      ],
      "stateMutability": "nonpayable",
      "type": "constructor"
    },
    {
      "anonymous": false,
      "inputs": [
        {
          "indexed": true,
          "internalType": "address",
          "name": "owner",
          "type": "address"
        },
        {
          "indexed": true,
          "internalType": "address",
          "name": "spender",
          "type": "address"
        },
        {
          "indexed": false,
          "internalType": "uint256",
          "name": "value",
          "type": "uint256"
        }
      ],
      "name": "Approval",
      "type": "event"
    },
    {
      "anonymous": false,
      "inputs": [
        {
          "indexed": true,
          "internalType": "bytes32",
          "name": "role",
          "type": "bytes32"
        },
        {
          "indexed": true,
          "internalType": "bytes32",
          "name": "previousAdminRole",
          "type": "bytes32"
        },
        {
          "indexed": true,
          "internalType": "bytes32",
          "name": "newAdminRole",
          "type": "bytes32"
        }
      ],
      "name": "RoleAdminChanged",
      "type": "event"
    },
    {
      "anonymous": false,
      "inputs": [
        {
          "indexed": true,
          "internalType": "bytes32",
          "name": "role",
          "type": "bytes32"
        },
        {
          "indexed": true,
          "internalType": "address",
          "name": "account",
          "type": "address"
        },
        {
          "indexed": true,
          "internalType": "address",
          "name": "sender",
          "type": "address"
        }
      ],
      "name": "RoleGranted",
      "type": "event"
    },
    {
      "anonymous": false,
      "inputs": [
        {
          "indexed": true,
          "internalType": "bytes32",
          "name": "role",
          "type": "bytes32"
        },
        {
          "indexed": true,
          "internalType": "address",
          "name": "account",
          "type": "address"
        },
        {
          "indexed": true,
          "internalType": "address",
          "name": "sender",
          "type": "address"
        }
      ],
      "name": "RoleRevoked",
      "type": "event"
    },
    {
      "anonymous": false,
      "inputs": [
        {
          "indexed": true,
          "internalType": "address",
          "name": "from",
          "type": "address"
        },
        {
          "indexed": true,
          "internalType": "address",
          "name": "to",
          "type": "address"
        },
        {
          "indexed": false,
          "internalType": "uint256",
          "name": "value",
          "type": "uint256"
        }
      ],
      "name": "Transfer",
      "type": "event"
    },
    {
      "inputs": [],
      "name": "DEFAULT_ADMIN_ROLE",
      "outputs": [
        {
          "internalType": "bytes32",
          "name": "",
          "type": "bytes32"
        }
      ],
      "stateMutability": "view",
      "type": "function"
    },
    {
      "inputs": [],
      "name": "TOKEN_MANAGER_ROLE",
      "outputs": [
        {
          "internalType": "bytes32",
          "name": "",
          "type": "bytes32"
        }
      ],
      "stateMutability": "view",
      "type": "function"
    },
    {
      "inputs": [
        {
          "internalType": "address",
          "name": "owner",
          "type": "address"
        },
        {
          "internalType": "address",
          "name": "spender",
          "type": "address"
        }
      ],
      "name": "allowance",
      "outputs": [
        {
          "internalType": "uint256",
          "name": "",
          "type": "uint256"
        }
      ],
      "stateMutability": "view",
      "type": "function"
    },
    {
      "inputs": [
        {
          "internalType": "address",
          "name": "spender",
          "type": "address"
        },
        {
          "internalType": "uint256",
          "name": "amount",
          "type": "uint256"
        }
      ],
      "name": "approve",
      "outputs": [
        {
          "internalType": "bool",
          "name": "",
          "type": "bool"
        }
      ],
      "stateMutability": "nonpayable",
      "type": "function"
    },
    {
      "inputs": [
        {
          "internalType": "address",
          "name": "account",
          "type": "address"
        }
      ],
      "name": "balanceOf",
      "outputs": [
        {
          "internalType": "uint256",
          "name": "",
          "type": "uint256"
        }
      ],
      "stateMutability": "view",
      "type": "function"
    },
    {
      "inputs": [],
      "name": "decimals",
      "outputs": [
        {
          "internalType": "uint8",
          "name": "",
          "type": "uint8"
        }
      ],
      "stateMutability": "view",
      "type": "function"
    },
    {
      "inputs": [
        {
          "internalType": "address",
          "name": "spender",
          "type": "address"
        },
        {
          "internalType": "uint256",
          "name": "subtractedValue",
          "type": "uint256"
        }
      ],
      "name": "decreaseAllowance",
      "outputs": [
        {
          "internalType": "bool",
          "name": "",
          "type": "bool"
        }
      ],
      "stateMutability": "nonpayable",
      "type": "function"
    },
    {
      "inputs": [
        {
          "internalType": "bytes32",
          "name": "role",
          "type": "bytes32"
        }
      ],
      "name": "getRoleAdmin",
      "outputs": [
        {
          "internalType": "bytes32",
          "name": "",
          "type": "bytes32"
        }
      ],
      "stateMutability": "view",
      "type": "function"
    },
    {
      "inputs": [
        {
          "internalType": "bytes32",
          "name": "role",
          "type": "bytes32"
        },
        {
          "internalType": "uint256",
          "name": "index",
          "type": "uint256"
        }
      ],
      "name": "getRoleMember",
      "outputs": [
        {
          "internalType": "address",
          "name": "",
          "type": "address"
        }
      ],
      "stateMutability": "view",
      "type": "function"
    },
    {
      "inputs": [
        {
          "internalType": "bytes32",
          "name": "role",
          "type": "bytes32"
        }
      ],
      "name": "getRoleMemberCount",
      "outputs": [
        {
          "internalType": "uint256",
          "name": "",
          "type": "uint256"
        }
      ],
      "stateMutability": "view",
      "type": "function"
    },
    {
      "inputs": [
        {
          "internalType": "bytes32",
          "name": "role",
          "type": "bytes32"
        },
        {
          "internalType": "address",
          "name": "account",
          "type": "address"
        }
      ],
      "name": "grantRole",
      "outputs": [],
      "stateMutability": "nonpayable",
      "type": "function"
    },
    {
      "inputs": [
        {
          "internalType": "bytes32",
          "name": "role",
          "type": "bytes32"
        },
        {
          "internalType": "address",
          "name": "account",
          "type": "address"
        }
      ],
      "name": "hasRole",
      "outputs": [
        {
          "internalType": "bool",
          "name": "",
          "type": "bool"
        }
      ],
      "stateMutability": "view",
      "type": "function"
    },
    {
      "inputs": [
        {
          "internalType": "address",
          "name": "spender",
          "type": "address"
        },
        {
          "internalType": "uint256",
          "name": "addedValue",
          "type": "uint256"
        }
      ],
      "name": "increaseAllowance",
      "outputs": [
        {
          "internalType": "bool",
          "name": "",
          "type": "bool"
        }
      ],
      "stateMutability": "nonpayable",
      "type": "function"
    },
    {
      "inputs": [],
      "name": "name",
      "outputs": [
        {
          "internalType": "string",
          "name": "",
          "type": "string"
        }
      ],
      "stateMutability": "view",
      "type": "function"
    },
    {
      "inputs": [
        {
          "internalType": "bytes32",
          "name": "role",
          "type": "bytes32"
        },
        {
          "internalType": "address",
          "name": "account",
          "type": "address"
        }
      ],
      "name": "renounceRole",
      "outputs": [],
      "stateMutability": "nonpayable",
      "type": "function"
    },
    {
      "inputs": [
        {
          "internalType": "bytes32",
          "name": "role",
          "type": "bytes32"
        },
        {
          "internalType": "address",
          "name": "account",
          "type": "address"
        }
      ],
      "name": "revokeRole",
      "outputs": [],
      "stateMutability": "nonpayable",
      "type": "function"
    },
    {
      "inputs": [],
      "name": "symbol",
      "outputs": [
        {
          "internalType": "string",
          "name": "",
          "type": "string"
        }
      ],
      "stateMutability": "view",
      "type": "function"
    },
    {
      "inputs": [],
      "name": "totalSupply",
      "outputs": [
        {
          "internalType": "uint256",
          "name": "",
          "type": "uint256"
        }
      ],
      "stateMutability": "view",
      "type": "function"
    },
    {
      "inputs": [
        {
          "internalType": "address",
          "name": "recipient",
          "type": "address"
        },
        {
          "internalType": "uint256",
          "name": "amount",
          "type": "uint256"
        }
      ],
      "name": "transfer",
      "outputs": [
        {
          "internalType": "bool",
          "name": "",
          "type": "bool"
        }
      ],
      "stateMutability": "nonpayable",
      "type": "function"
    },
    {
      "inputs": [
        {
          "internalType": "address",
          "name": "sender",
          "type": "address"
        },
        {
          "internalType": "address",
          "name": "recipient",
          "type": "address"
        },
        {
          "internalType": "uint256",
          "name": "amount",
          "type": "uint256"
        }
      ],
      "name": "transferFrom",
      "outputs": [
        {
          "internalType": "bool",
          "name": "",
          "type": "bool"
        }
      ],
      "stateMutability": "nonpayable",
      "type": "function"
    },
    {
      "inputs": [
        {
          "internalType": "address",
          "name": "to",
          "type": "address"
        },
        {
          "internalType": "uint256",
          "name": "amount",
          "type": "uint256"
        }
      ],
      "name": "mint",
      "outputs": [],
      "stateMutability": "nonpayable",
      "type": "function"
    },
    {
      "inputs": [
        {
          "internalType": "address",
          "name": "from",
          "type": "address"
        },
        {
          "internalType": "uint256",
          "name": "amount",
          "type": "uint256"
        }
      ],
      "name": "burn",
      "outputs": [],
      "stateMutability": "nonpayable",
      "type": "function"
    }
  ],
  "bytecode": "0x60806040523480156200001157600080fd5b506040516200192138038062001921833981810160405260408110156200003757600080fd5b81019080805160405193929190846401000000008211156200005857600080fd5b9083019060208201858111156200006e57600080fd5b82516401000000008111828201881017156200008957600080fd5b82525081516020918201929091019080838360005b83811015620000b85781810151838201526020016200009e565b50505050905090810190601f168015620000e65780820380516001836020036101000a031916815260200191505b50604052602001805160405193929190846401000000008211156200010a57600080fd5b9083019060208201858111156200012057600080fd5b82516401000000008111828201881017156200013b57600080fd5b82525081516020918201929091019080838360005b838110156200016a57818101518382015260200162000150565b50505050905090810190601f168015620001985780820380516001836020036101000a031916815260200191505b50604052505082518391508290620001b890600390602085019062000360565b508051620001ce90600490602084019062000360565b50506005805460ff191660129081179091556040805171544f4b454e5f4d414e414745525f524f4c4560701b815290519081900390910190206200021d9150336001600160e01b036200022516565b505062000402565b6200023a82826001600160e01b036200023e16565b5050565b600082815260066020908152604090912062000265918390620010e9620002c2821b17901c565b156200023a576200027e6001600160e01b03620002eb16565b6001600160a01b0316816001600160a01b0316837f2f8788117e7eff1d82e926ec794901d17c78024a50270940304540a733656f0d60405160405180910390a45050565b6000620002e2836001600160a01b0384166001600160e01b03620002f016565b90505b92915050565b335b90565b60006200030783836001600160e01b036200034816565b6200033f57508154600181810184556000848152602080822090930184905584548482528286019093526040902091909155620002e5565b506000620002e5565b60009081526001919091016020526040902054151590565b828054600181600116156101000203166002900490600052602060002090601f016020900481019282601f10620003a357805160ff1916838001178555620003d3565b82800160010185558215620003d3579182015b82811115620003d3578251825591602001919060010190620003b6565b50620003e1929150620003e5565b5090565b620002ed91905b80821115620003e15760008155600101620003ec565b61150f80620004126000396000f3fe608060405234801561001057600080fd5b50600436106101425760003560e01c80639010d07c116100b8578063a457c2d71161007c578063a457c2d71461040e578063a9059cbb1461043a578063c2840e6014610466578063ca15c8731461046e578063d547741f1461048b578063dd62ed3e146104b757610142565b80639010d07c1461036757806391d14854146103a657806395d89b41146103d25780639dc29fac146103da578063a217fddf1461040657610142565b80632f2ff15d1161010a5780632f2ff15d14610271578063313ce5671461029f57806336568abe146102bd57806339509351146102e957806340c10f191461031557806370a082311461034157610142565b806306fdde0314610147578063095ea7b3146101c457806318160ddd1461020457806323b872dd1461021e578063248a9ca314610254575b600080fd5b61014f6104e5565b6040805160208082528351818301528351919283929083019185019080838360005b83811015610189578181015183820152602001610171565b50505050905090810190601f1680156101b65780820380516001836020036101000a031916815260200191505b509250505060405180910390f35b6101f0600480360360408110156101da57600080fd5b506001600160a01b03813516906020013561057b565b604080519115158252519081900360200190f35b61020c610599565b60408051918252519081900360200190f35b6101f06004803603606081101561023457600080fd5b506001600160a01b0381358116916020810135909116906040013561059f565b61020c6004803603602081101561026a57600080fd5b503561062c565b61029d6004803603604081101561028757600080fd5b50803590602001356001600160a01b0316610641565b005b6102a76106ad565b6040805160ff9092168252519081900360200190f35b61029d600480360360408110156102d357600080fd5b50803590602001356001600160a01b03166106b6565b6101f0600480360360408110156102ff57600080fd5b506001600160a01b038135169060200135610717565b61029d6004803603604081101561032b57600080fd5b506001600160a01b03813516906020013561076b565b61020c6004803603602081101561035757600080fd5b50356001600160a01b03166107f7565b61038a6004803603604081101561037d57600080fd5b5080359060200135610812565b604080516001600160a01b039092168252519081900360200190f35b6101f0600480360360408110156103bc57600080fd5b50803590602001356001600160a01b0316610837565b61014f610855565b61029d600480360360408110156103f057600080fd5b506001600160a01b0381351690602001356108b6565b61020c610942565b6101f06004803603604081101561042457600080fd5b506001600160a01b038135169060200135610947565b6101f06004803603604081101561045057600080fd5b506001600160a01b0381351690602001356109b5565b61020c6109c9565b61020c6004803603602081101561048457600080fd5b50356109f3565b61029d600480360360408110156104a157600080fd5b50803590602001356001600160a01b0316610a0a565b61020c600480360360408110156104cd57600080fd5b506001600160a01b0381358116916020013516610a63565b60038054604080516020601f60026000196101006001881615020190951694909404938401819004810282018101909252828152606093909290918301828280156105715780601f1061054657610100808354040283529160200191610571565b820191906000526020600020905b81548152906001019060200180831161055457829003601f168201915b5050505050905090565b600061058f610588610a8e565b8484610a92565b5060015b92915050565b60025490565b60006105ac848484610b7e565b610622846105b8610a8e565b61061d856040518060600160405280602881526020016113f4602891396001600160a01b038a166000908152600160205260408120906105f6610a8e565b6001600160a01b03168152602081019190915260400160002054919063ffffffff610ce516565b610a92565b5060019392505050565b60009081526006602052604090206002015490565b6000828152600660205260409020600201546106649061065f610a8e565b610837565b61069f5760405162461bcd60e51b815260040180806020018281038252602f81526020018061132b602f913960400191505060405180910390fd5b6106a98282610d7c565b5050565b60055460ff1690565b6106be610a8e565b6001600160a01b0316816001600160a01b03161461070d5760405162461bcd60e51b815260040180806020018281038252602f8152602001806114ab602f913960400191505060405180910390fd5b6106a98282610deb565b600061058f610724610a8e565b8461061d8560016000610735610a8e565b6001600160a01b03908116825260208083019390935260409182016000908120918c16815292529020549063ffffffff610e5a16565b6040805171544f4b454e5f4d414e414745525f524f4c4560701b8152905190819003601201902061079c9033610837565b6107ed576040805162461bcd60e51b815260206004820152601d60248201527f43616c6c6572206973206e6f74206120746f6b656e206d616e61676572000000604482015290519081900360640190fd5b6106a98282610eb4565b6001600160a01b031660009081526020819052604090205490565b6000828152600660205260408120610830908363ffffffff610fb016565b9392505050565b6000828152600660205260408120610830908363ffffffff610fbc16565b60048054604080516020601f60026000196101006001881615020190951694909404938401819004810282018101909252828152606093909290918301828280156105715780601f1061054657610100808354040283529160200191610571565b6040805171544f4b454e5f4d414e414745525f524f4c4560701b815290519081900360120190206108e79033610837565b610938576040805162461bcd60e51b815260206004820152601d60248201527f43616c6c6572206973206e6f74206120746f6b656e206d616e61676572000000604482015290519081900360640190fd5b6106a98282610fd1565b600081565b600061058f610954610a8e565b8461061d85604051806060016040528060258152602001611486602591396001600061097e610a8e565b6001600160a01b03908116825260208083019390935260409182016000908120918d1681529252902054919063ffffffff610ce516565b600061058f6109c2610a8e565b8484610b7e565b6040805171544f4b454e5f4d414e414745525f524f4c4560701b8152905190819003601201902081565b6000818152600660205260408120610593906110d9565b600082815260066020526040902060020154610a289061065f610a8e565b61070d5760405162461bcd60e51b81526004018080602001828103825260308152602001806113c46030913960400191505060405180910390fd5b6001600160a01b03918216600090815260016020908152604080832093909416825291909152205490565b3390565b6001600160a01b038316610ad75760405162461bcd60e51b81526004018080602001828103825260248152602001806114626024913960400191505060405180910390fd5b6001600160a01b038216610b1c5760405162461bcd60e51b815260040180806020018281038252602281526020018061137c6022913960400191505060405180910390fd5b6001600160a01b03808416600081815260016020908152604080832094871680845294825291829020859055815185815291517f8c5be1e5ebec7d5bd14f71427d1e84f3dd0314c0f7b2291e5b200ac8c7c3b9259281900390910190a3505050565b6001600160a01b038316610bc35760405162461bcd60e51b815260040180806020018281038252602581526020018061143d6025913960400191505060405180910390fd5b6001600160a01b038216610c085760405162461bcd60e51b81526004018080602001828103825260238152602001806113086023913960400191505060405180910390fd5b610c138383836110e4565b610c568160405180606001604052806026815260200161139e602691396001600160a01b038616600090815260208190526040902054919063ffffffff610ce516565b6001600160a01b038085166000908152602081905260408082209390935590841681522054610c8b908263ffffffff610e5a16565b6001600160a01b038084166000818152602081815260409182902094909455805185815290519193928716927fddf252ad1be2c89b69c2b068fc378daa952ba7f163c4a11628f55a4df523b3ef92918290030190a3505050565b60008184841115610d745760405162461bcd60e51b81526004018080602001828103825283818151815260200191508051906020019080838360005b83811015610d39578181015183820152602001610d21565b50505050905090810190601f168015610d665780820380516001836020036101000a031916815260200191505b509250505060405180910390fd5b505050900390565b6000828152600660205260409020610d9a908263ffffffff6110e916565b156106a957610da7610a8e565b6001600160a01b0316816001600160a01b0316837f2f8788117e7eff1d82e926ec794901d17c78024a50270940304540a733656f0d60405160405180910390a45050565b6000828152600660205260409020610e09908263ffffffff6110fe16565b156106a957610e16610a8e565b6001600160a01b0316816001600160a01b0316837ff6391f5c32d9c69d2a47ea670b442974b53935d1edc7fd64eb21e047a839171b60405160405180910390a45050565b600082820183811015610830576040805162461bcd60e51b815260206004820152601b60248201527f536166654d6174683a206164646974696f6e206f766572666c6f770000000000604482015290519081900360640190fd5b6001600160a01b038216610f0f576040805162461bcd60e51b815260206004820152601f60248201527f45524332303a206d696e7420746f20746865207a65726f206164647265737300604482015290519081900360640190fd5b610f1b600083836110e4565b600254610f2e908263ffffffff610e5a16565b6002556001600160a01b038216600090815260208190526040902054610f5a908263ffffffff610e5a16565b6001600160a01b0383166000818152602081815260408083209490945583518581529351929391927fddf252ad1be2c89b69c2b068fc378daa952ba7f163c4a11628f55a4df523b3ef9281900390910190a35050565b60006108308383611113565b6000610830836001600160a01b038416611177565b6001600160a01b0382166110165760405162461bcd60e51b815260040180806020018281038252602181526020018061141c6021913960400191505060405180910390fd5b611022826000836110e4565b6110658160405180606001604052806022815260200161135a602291396001600160a01b038516600090815260208190526040902054919063ffffffff610ce516565b6001600160a01b038316600090815260208190526040902055600254611091908263ffffffff61118f16565b6002556040805182815290516000916001600160a01b038516917fddf252ad1be2c89b69c2b068fc378daa952ba7f163c4a11628f55a4df523b3ef9181900360200190a35050565b6000610593826111d1565b505050565b6000610830836001600160a01b0384166111d5565b6000610830836001600160a01b03841661121f565b815460009082106111555760405162461bcd60e51b81526004018080602001828103825260228152602001806112e66022913960400191505060405180910390fd5b82600001828154811061116457fe5b9060005260206000200154905092915050565b60009081526001919091016020526040902054151590565b600061083083836040518060400160405280601e81526020017f536166654d6174683a207375627472616374696f6e206f766572666c6f770000815250610ce5565b5490565b60006111e18383611177565b61121757508154600181810184556000848152602080822090930184905584548482528286019093526040902091909155610593565b506000610593565b600081815260018301602052604081205480156112db578354600019808301919081019060009087908390811061125257fe5b906000526020600020015490508087600001848154811061126f57fe5b60009182526020808320909101929092558281526001898101909252604090209084019055865487908061129f57fe5b60019003818190600052602060002001600090559055866001016000878152602001908152602001600020600090556001945050505050610593565b600091505061059356fe456e756d657261626c655365743a20696e646578206f7574206f6620626f756e647345524332303a207472616e7366657220746f20746865207a65726f2061646472657373416363657373436f6e74726f6c3a2073656e646572206d75737420626520616e2061646d696e20746f206772616e7445524332303a206275726e20616d6f756e7420657863656564732062616c616e636545524332303a20617070726f766520746f20746865207a65726f206164647265737345524332303a207472616e7366657220616d6f756e7420657863656564732062616c616e6365416363657373436f6e74726f6c3a2073656e646572206d75737420626520616e2061646d696e20746f207265766f6b6545524332303a207472616e7366657220616d6f756e74206578636565647320616c6c6f77616e636545524332303a206275726e2066726f6d20746865207a65726f206164647265737345524332303a207472616e736665722066726f6d20746865207a65726f206164647265737345524332303a20617070726f76652066726f6d20746865207a65726f206164647265737345524332303a2064656372656173656420616c6c6f77616e63652062656c6f77207a65726f416363657373436f6e74726f6c3a2063616e206f6e6c792072656e6f756e636520726f6c657320666f722073656c66a2646970667358221220de0917a24d1afa46062b0591abd37e21077628d1ca8abafdeef1e6af07f0594b64736f6c63430006020033",
  "source": "pragma solidity >=0.6.0 <0.7.0;\n\nimport \"@openzeppelin/contracts/token/ERC20/ERC20.sol\";\nimport \"@openzeppelin/contracts/access/AccessControl.sol\";\n\ncontract SimplePOSToken is ERC20, AccessControl {\n    bytes32 public constant TOKEN_MANAGER_ROLE = keccak256(\"TOKEN_MANAGER_ROLE\");\n\n    constructor (string memory name, string memory symbol) ERC20(name, symbol) public {\n        _setupRole(TOKEN_MANAGER_ROLE, msg.sender);\n    }\n\n    function mint(address to, uint256 amount) public {\n        require(hasRole(TOKEN_MANAGER_ROLE, msg.sender), \"Caller is not a token manager\");\n        _mint(to, amount);\n    }\n\n    function burn(address from, uint256 amount) public {\n        require(hasRole(TOKEN_MANAGER_ROLE, msg.sender), \"Caller is not a token manager\");\n        _burn(from, amount);\n    }\n}\n",
  "sourcePath": "/Users/mmv/projects/simple-pos/simple-pos-contracts/contracts/SimplePOSToken.sol",
  "compiler": {
    "name": "solc",
    "version": "0.6.2+commit.bacdbe57.Emscripten.clang"
  },
  "schemaVersion": "3.3.1",
  "updatedAt": "2020-12-26T05:35:07.821Z",
  "devdoc": {
    "methods": {
      "allowance(address,address)": {
        "details": "See {IERC20-allowance}."
      },
      "approve(address,uint256)": {
        "details": "See {IERC20-approve}.     * Requirements:     * - `spender` cannot be the zero address."
      },
      "balanceOf(address)": {
        "details": "See {IERC20-balanceOf}."
      },
      "decimals()": {
        "details": "Returns the number of decimals used to get its user representation. For example, if `decimals` equals `2`, a balance of `505` tokens should be displayed to a user as `5,05` (`505 / 10 ** 2`).     * Tokens usually opt for a value of 18, imitating the relationship between Ether and Wei. This is the value {ERC20} uses, unless {_setupDecimals} is called.     * NOTE: This information is only used for _display_ purposes: it in no way affects any of the arithmetic of the contract, including {IERC20-balanceOf} and {IERC20-transfer}."
      },
      "decreaseAllowance(address,uint256)": {
        "details": "Atomically decreases the allowance granted to `spender` by the caller.     * This is an alternative to {approve} that can be used as a mitigation for problems described in {IERC20-approve}.     * Emits an {Approval} event indicating the updated allowance.     * Requirements:     * - `spender` cannot be the zero address. - `spender` must have allowance for the caller of at least `subtractedValue`."
      },
      "getRoleAdmin(bytes32)": {
        "details": "Returns the admin role that controls `role`. See {grantRole} and {revokeRole}.     * To change a role's admin, use {_setRoleAdmin}."
      },
      "getRoleMember(bytes32,uint256)": {
        "details": "Returns one of the accounts that have `role`. `index` must be a value between 0 and {getRoleMemberCount}, non-inclusive.     * Role bearers are not sorted in any particular way, and their ordering may change at any point.     * WARNING: When using {getRoleMember} and {getRoleMemberCount}, make sure you perform all queries on the same block. See the following https://forum.openzeppelin.com/t/iterating-over-elements-on-enumerableset-in-openzeppelin-contracts/2296[forum post] for more information."
      },
      "getRoleMemberCount(bytes32)": {
        "details": "Returns the number of accounts that have `role`. Can be used together with {getRoleMember} to enumerate all bearers of a role."
      },
      "grantRole(bytes32,address)": {
        "details": "Grants `role` to `account`.     * If `account` had not been already granted `role`, emits a {RoleGranted} event.     * Requirements:     * - the caller must have ``role``'s admin role."
      },
      "hasRole(bytes32,address)": {
        "details": "Returns `true` if `account` has been granted `role`."
      },
      "increaseAllowance(address,uint256)": {
        "details": "Atomically increases the allowance granted to `spender` by the caller.     * This is an alternative to {approve} that can be used as a mitigation for problems described in {IERC20-approve}.     * Emits an {Approval} event indicating the updated allowance.     * Requirements:     * - `spender` cannot be the zero address."
      },
      "name()": {
        "details": "Returns the name of the token."
      },
      "renounceRole(bytes32,address)": {
        "details": "Revokes `role` from the calling account.     * Roles are often managed via {grantRole} and {revokeRole}: this function's purpose is to provide a mechanism for accounts to lose their privileges if they are compromised (such as when a trusted device is misplaced).     * If the calling account had been granted `role`, emits a {RoleRevoked} event.     * Requirements:     * - the caller must be `account`."
      },
      "revokeRole(bytes32,address)": {
        "details": "Revokes `role` from `account`.     * If `account` had been granted `role`, emits a {RoleRevoked} event.     * Requirements:     * - the caller must have ``role``'s admin role."
      },
      "symbol()": {
        "details": "Returns the symbol of the token, usually a shorter version of the name."
      },
      "totalSupply()": {
        "details": "See {IERC20-totalSupply}."
      },
      "transfer(address,uint256)": {
        "details": "See {IERC20-transfer}.     * Requirements:     * - `recipient` cannot be the zero address. - the caller must have a balance of at least `amount`."
      },
      "transferFrom(address,address,uint256)": {
        "details": "See {IERC20-transferFrom}.     * Emits an {Approval} event indicating the updated allowance. This is not required by the EIP. See the note at the beginning of {ERC20};     * Requirements: - `sender` and `recipient` cannot be the zero address. - `sender` must have a balance of at least `amount`. - the caller must have allowance for ``sender``'s tokens of at least `amount`."
      }
    }
  },
  "userdoc": {
    "methods": {}
  }
}