{
  "contractName": "SimplePOSFactory",
  "abi": [
    {
      "anonymous": false,
      "inputs": [
        {
          "indexed": false,
          "internalType": "contract SimplePOS",
          "name": "spos",
          "type": "address"
        }
      ],
      "name": "POSCreated",
      "type": "event"
    },
    {
      "inputs": [
        {
          "internalType": "contract IUniswapExchange",
          "name": "_exchange",
          "type": "address"
        },
        {
          "internalType": "string",
          "name": "_sposTokenName",
          "type": "string"
        },
        {
          "internalType": "string",
          "name": "_sposTokenSymbol",
          "type": "string"
        },
        {
          "internalType": "uint256",
          "name": "_initialRatio",
          "type": "uint256"
        },
        {
          "internalType": "uint256",
          "name": "_commission",
          "type": "uint256"
        },
        {
          "internalType": "uint256",
          "name": "_curveCoefficient",
          "type": "uint256"
        }
      ],
      "name": "createPOS",
      "outputs": [],
      "stateMutability": "payable",
      "type": "function"
    }
  ],
  "bytecode": "0x608060405234801561001057600080fd5b506147fd806100206000396000f3fe60806040526004361061001e5760003560e01c80636271691014610023575b600080fd5b610101600480360360c081101561003957600080fd5b6001600160a01b03823516919081019060408101602082013564010000000081111561006457600080fd5b82018360208201111561007657600080fd5b8035906020019184600183028401116401000000008311171561009857600080fd5b9193909290916020810190356401000000008111156100b657600080fd5b8201836020820111156100c857600080fd5b803590602001918460018302840111640100000000831117156100ea57600080fd5b919350915080359060208101359060400135610103565b005b60003489898989898989893360405161011b90610210565b6001600160a01b03808b168252606082018690526080820185905260a08201849052821660c082015260e0602082018181529082018990526040820161010083018b8b80828437600083820152601f01601f191690910184810383528981526020019050898980828437600083820152604051601f909101601f19169092018290039d50909b508d9a5050505050505050505050f09050801580156101c4573d6000803e3d6000fd5b50604080516001600160a01b038316815290519192507fc2cafb802a4f4bdb3ef68b0ad8c830fe15be851b83011c09860ca4cbd7a1be2e919081900360200190a1505050505050505050565b6145aa8061021e8339019056fe6080604052604051620045aa380380620045aa833981810160405260e08110156200002957600080fd5b8151602083018051604051929492938301929190846401000000008211156200005157600080fd5b9083019060208201858111156200006757600080fd5b82516401000000008111828201881017156200008257600080fd5b82525081516020918201929091019080838360005b83811015620000b157818101518382015260200162000097565b50505050905090810190601f168015620000df5780820380516001836020036101000a031916815260200191505b50604052602001805160405193929190846401000000008211156200010357600080fd5b9083019060208201858111156200011957600080fd5b82516401000000008111828201881017156200013457600080fd5b82525081516020918201929091019080838360005b838110156200016357818101518382015260200162000149565b50505050905090810190601f168015620001915780820380516001836020036101000a031916815260200191505b5060409081526020820151908201516060830151608090930151919450925034620001ee5760405162461bcd60e51b8152600401808060200182810382526029815260200180620045816029913960400191505060405180910390fd5b6000841162000244576040805162461bcd60e51b815260206004820181905260248201527f496e697469616c20726174696f2073686f756c6420626520706f736974697665604482015290519081900360640190fd5b6127108310620002865760405162461bcd60e51b81526004018080602001828103825260238152602001806200453d6023913960400191505060405180910390fd5b6127108210620002c85760405162461bcd60e51b815260040180806020018281038252602a81526020018062004513602a913960400191505060405180910390fd5b6001600160a01b03811662000324576040805162461bcd60e51b815260206004820181905260248201527f53656e64657220616464726573732068617320746f20626520646566696e6564604482015290519081900360640190fd5b600080546001600160a01b038084166001600160a01b03199283161790925560018054928a169290911691909117905560405186908690620003669062000703565b604080825283519082015282518190602080830191606084019187019080838360005b83811015620003a357818101518382015260200162000389565b50505050905090810190601f168015620003d15780820380516001836020036101000a031916815260200191505b50838103825284518152845160209182019186019080838360005b8381101562000406578181015183820152602001620003ec565b50505050905090810190601f168015620004345780820380516001836020036101000a031916815260200191505b50945050505050604051809103906000f08015801562000458573d6000803e3d6000fd5b50600280546001600160a01b0319166001600160a01b03928316179055600484815560058490556001546040805163f39b5b9b60e01b8152600093810184905242602482015290519293919091169163f39b5b9b913491604480830192602092919082900301818588803b158015620004d057600080fd5b505af1158015620004e5573d6000803e3d6000fd5b50505050506040513d6020811015620004fd57600080fd5b5051905060006200051b82876200069c602090811b6200035e17901c565b600254604080516340c10f1960e01b81526001600160a01b0387811660048301526024820185905291519394509116916340c10f199160448082019260009290919082900301818387803b1580156200057357600080fd5b505af115801562000588573d6000803e3d6000fd5b5050505030600160009054906101000a90046001600160a01b03166001600160a01b0316639d76ea586040518163ffffffff1660e01b815260040160206040518083038186803b158015620005dc57600080fd5b505afa158015620005f1573d6000803e3d6000fd5b505050506040513d60208110156200060857600080fd5b5051604051600090819081906200061f9062000711565b6001600160a01b0395861681529390941660208401526040808401929092526060830152608082019290925290519081900360a001906000f0801580156200066b573d6000803e3d6000fd5b50600380546001600160a01b0319166001600160a01b0392909216919091179055506200071f975050505050505050565b600082620006ad57506000620006fd565b82820282848281620006bb57fe5b0414620006fa5760405162461bcd60e51b8152600401808060200182810382526021815260200180620045606021913960400191505060405180910390fd5b90505b92915050565b611921806200163e83390190565b6115b48062002f5f83390190565b610f0f806200072f6000396000f3fe60806040526004361061008a5760003560e01c8063ac2c03a311610059578063ac2c03a3146102cc578063d0524d62146102e1578063d2f7265a14610308578063df202b9e1461031d578063e148919114610349576101bf565b806306af92eb146101c457806344387cc2146102715780638da5cb5b146102a25780639fee1ade146102b7576101bf565b366101bf5760006100b86127106100ac6004543461035e90919063ffffffff16565b9063ffffffff6103c016565b6000549091506001600160a01b03166108fc6100da348463ffffffff61040216565b6040518115909202916000818181858888f19350505050158015610102573d6000803e3d6000fd5b506000806000610110610444565b9250925092506000600160009054906101000a90046001600160a01b03166001600160a01b031663f39b5b9b866000426040518463ffffffff1660e01b815260040180838152602001828152602001925050506020604051808303818588803b15801561017c57600080fd5b505af1158015610190573d6000803e3d6000fd5b50505050506040513d60208110156101a757600080fd5b505190506101b881858585336105ca565b5050505050005b600080fd5b3480156101d057600080fd5b5061025d600480360360808110156101e757600080fd5b6001600160a01b03823516916020810135916040820135919081019060808101606082013564010000000081111561021e57600080fd5b82018360208201111561023057600080fd5b8035906020019184600183028401116401000000008311171561025257600080fd5b509092509050610682565b604080519115158252519081900360200190f35b34801561027d57600080fd5b506102866109b9565b604080516001600160a01b039092168252519081900360200190f35b3480156102ae57600080fd5b506102866109c8565b3480156102c357600080fd5b506102866109d7565b3480156102d857600080fd5b506102866109e6565b3480156102ed57600080fd5b506102f6610a5c565b60408051918252519081900360200190f35b34801561031457600080fd5b50610286610a62565b34801561032957600080fd5b506103476004803603602081101561034057600080fd5b5035610a71565b005b34801561035557600080fd5b506102f6610d83565b60008261036d575060006103ba565b8282028284828161037a57fe5b04146103b75760405162461bcd60e51b8152600401808060200182810382526021815260200180610eb96021913960400191505060405180910390fd5b90505b92915050565b60006103b783836040518060400160405280601a81526020017f536166654d6174683a206469766973696f6e206279207a65726f000000000000815250610d89565b60006103b783836040518060400160405280601e81526020017f536166654d6174683a207375627472616374696f6e206f766572666c6f770000815250610e2b565b6000806000600160009054906101000a90046001600160a01b03166001600160a01b0316639d76ea586040518163ffffffff1660e01b815260040160206040518083038186803b15801561049757600080fd5b505afa1580156104ab573d6000803e3d6000fd5b505050506040513d60208110156104c157600080fd5b5051604080516370a0823160e01b815230600482015290516001600160a01b03909216916370a0823191602480820192602092909190829003018186803b15801561050b57600080fd5b505afa15801561051f573d6000803e3d6000fd5b505050506040513d602081101561053557600080fd5b5051600254604080516318160ddd60e01b815290519295506001600160a01b03909116916318160ddd91600480820192602092909190829003018186803b15801561057f57600080fd5b505afa158015610593573d6000803e3d6000fd5b505050506040513d60208110156105a957600080fd5b505191506105c3826100ac8561271063ffffffff61035e16565b9050909192565b60006105e76127106100ac6005548961035e90919063ffffffff16565b858701039050600084610606856100ac8561271063ffffffff61035e16565b600254604080516340c10f1960e01b81526001600160a01b038881166004830152949093036024840181905290519094509216916340c10f199160448082019260009290919082900301818387803b15801561066157600080fd5b505af1158015610675573d6000803e3d6000fd5b5050505050505050505050565b600080600080610690610444565b600354600154604080516313aedd4b60e31b815290519598509396509194506001600160a01b039081169363d3c576cd938e9330931691639d76ea5891600480820192602092909190829003018186803b1580156106ed57600080fd5b505afa158015610701573d6000803e3d6000fd5b505050506040513d602081101561071757600080fd5b81019080805190602001909291905050508c8c600060018e8e6040518a63ffffffff1660e01b8152600401808a6001600160a01b03166001600160a01b03168152602001896001600160a01b03166001600160a01b03168152602001886001600160a01b03166001600160a01b03168152602001878152602001868152602001858152602001848152602001806020018281038252848482818152602001925080828437600081840152601f19601f8201169050808301925050509a5050505050505050505050602060405180830381600087803b1580156107f857600080fd5b505af115801561080c573d6000803e3d6000fd5b505050506040513d602081101561082257600080fd5b5051610875576040805162461bcd60e51b815260206004820152601f60248201527f436f756c64206e6f74206578656375746520737562736372697074696f6e2e00604482015290519081900360640190fd5b60006108966127106100ac600454612710038c61035e90919063ffffffff16565b90506000600160009054906101000a90046001600160a01b03166001600160a01b0316639d76ea586040518163ffffffff1660e01b815260040160206040518083038186803b1580156108e857600080fd5b505afa1580156108fc573d6000803e3d6000fd5b505050506040513d602081101561091257600080fd5b5051600080546040805163a9059cbb60e01b81526001600160a01b0392831660048201526024810187905290519394509084169263a9059cbb92604480840193602093929083900390910190829087803b15801561096f57600080fd5b505af1158015610983573d6000803e3d6000fd5b505050506040513d602081101561099957600080fd5b506109ab9050828b038686868f6105ca565b505050505095945050505050565b6003546001600160a01b031681565b6000546001600160a01b031681565b6002546001600160a01b031681565b600154604080516313aedd4b60e31b815290516000926001600160a01b031691639d76ea58916004808301926020929190829003018186803b158015610a2b57600080fd5b505afa158015610a3f573d6000803e3d6000fd5b505050506040513d6020811015610a5557600080fd5b5051905090565b60055481565b6001546001600160a01b031681565b600260009054906101000a90046001600160a01b03166001600160a01b03166318160ddd6040518163ffffffff1660e01b815260040160206040518083038186803b158015610abf57600080fd5b505afa158015610ad3573d6000803e3d6000fd5b505050506040513d6020811015610ae957600080fd5b50518110610b285760405162461bcd60e51b8152600401808060200182810382526033815260200180610e866033913960400191505060405180910390fd5b600154604080516313aedd4b60e31b815290516000926001600160a01b031691639d76ea58916004808301926020929190829003018186803b158015610b6d57600080fd5b505afa158015610b81573d6000803e3d6000fd5b505050506040513d6020811015610b9757600080fd5b5051600254604080516318160ddd60e01b81529051929350600092610c95926001600160a01b0316916318160ddd916004808301926020929190829003018186803b158015610be557600080fd5b505afa158015610bf9573d6000803e3d6000fd5b505050506040513d6020811015610c0f57600080fd5b5051604080516370a0823160e01b815230600482015290516100ac916001600160a01b038716916370a0823191602480820192602092909190829003018186803b158015610c5c57600080fd5b505afa158015610c70573d6000803e3d6000fd5b505050506040513d6020811015610c8657600080fd5b5051869063ffffffff61035e16565b60025460408051632770a7eb60e21b81523360048201526024810187905290519293506001600160a01b0390911691639dc29fac9160448082019260009290919082900301818387803b158015610ceb57600080fd5b505af1158015610cff573d6000803e3d6000fd5b50506040805163a9059cbb60e01b81523360048201526024810185905290516001600160a01b038616935063a9059cbb925060448083019260209291908290030181600087803b158015610d5257600080fd5b505af1158015610d66573d6000803e3d6000fd5b505050506040513d6020811015610d7c57600080fd5b5050505050565b60045481565b60008183610e155760405162461bcd60e51b81526004018080602001828103825283818151815260200191508051906020019080838360005b83811015610dda578181015183820152602001610dc2565b50505050905090810190601f168015610e075780820380516001836020036101000a031916815260200191505b509250505060405180910390fd5b506000838581610e2157fe5b0495945050505050565b60008184841115610e7d5760405162461bcd60e51b8152602060048201818152835160248401528351909283926044909101919085019080838360008315610dda578181015183820152602001610dc2565b50505090039056fe53504f5320746f6b656e20616d6f756e742073686f756c64206265206c657373207468616e20746f74616c20737570706c792e536166654d6174683a206d756c7469706c69636174696f6e206f766572666c6f77a26469706673582212202fabcbe9c426a91f8056178acc3b4e9aa6f84a4529d92db6a4b778f9addacd5d64736f6c6343000602003360806040523480156200001157600080fd5b506040516200192138038062001921833981810160405260408110156200003757600080fd5b81019080805160405193929190846401000000008211156200005857600080fd5b9083019060208201858111156200006e57600080fd5b82516401000000008111828201881017156200008957600080fd5b82525081516020918201929091019080838360005b83811015620000b85781810151838201526020016200009e565b50505050905090810190601f168015620000e65780820380516001836020036101000a031916815260200191505b50604052602001805160405193929190846401000000008211156200010a57600080fd5b9083019060208201858111156200012057600080fd5b82516401000000008111828201881017156200013b57600080fd5b82525081516020918201929091019080838360005b838110156200016a57818101518382015260200162000150565b50505050905090810190601f168015620001985780820380516001836020036101000a031916815260200191505b50604052505082518391508290620001b890600390602085019062000360565b508051620001ce90600490602084019062000360565b50506005805460ff191660129081179091556040805171544f4b454e5f4d414e414745525f524f4c4560701b815290519081900390910190206200021d9150336001600160e01b036200022516565b505062000402565b6200023a82826001600160e01b036200023e16565b5050565b600082815260066020908152604090912062000265918390620010e9620002c2821b17901c565b156200023a576200027e6001600160e01b03620002eb16565b6001600160a01b0316816001600160a01b0316837f2f8788117e7eff1d82e926ec794901d17c78024a50270940304540a733656f0d60405160405180910390a45050565b6000620002e2836001600160a01b0384166001600160e01b03620002f016565b90505b92915050565b335b90565b60006200030783836001600160e01b036200034816565b6200033f57508154600181810184556000848152602080822090930184905584548482528286019093526040902091909155620002e5565b506000620002e5565b60009081526001919091016020526040902054151590565b828054600181600116156101000203166002900490600052602060002090601f016020900481019282601f10620003a357805160ff1916838001178555620003d3565b82800160010185558215620003d3579182015b82811115620003d3578251825591602001919060010190620003b6565b50620003e1929150620003e5565b5090565b620002ed91905b80821115620003e15760008155600101620003ec565b61150f80620004126000396000f3fe608060405234801561001057600080fd5b50600436106101425760003560e01c80639010d07c116100b8578063a457c2d71161007c578063a457c2d71461040e578063a9059cbb1461043a578063c2840e6014610466578063ca15c8731461046e578063d547741f1461048b578063dd62ed3e146104b757610142565b80639010d07c1461036757806391d14854146103a657806395d89b41146103d25780639dc29fac146103da578063a217fddf1461040657610142565b80632f2ff15d1161010a5780632f2ff15d14610271578063313ce5671461029f57806336568abe146102bd57806339509351146102e957806340c10f191461031557806370a082311461034157610142565b806306fdde0314610147578063095ea7b3146101c457806318160ddd1461020457806323b872dd1461021e578063248a9ca314610254575b600080fd5b61014f6104e5565b6040805160208082528351818301528351919283929083019185019080838360005b83811015610189578181015183820152602001610171565b50505050905090810190601f1680156101b65780820380516001836020036101000a031916815260200191505b509250505060405180910390f35b6101f0600480360360408110156101da57600080fd5b506001600160a01b03813516906020013561057b565b604080519115158252519081900360200190f35b61020c610599565b60408051918252519081900360200190f35b6101f06004803603606081101561023457600080fd5b506001600160a01b0381358116916020810135909116906040013561059f565b61020c6004803603602081101561026a57600080fd5b503561062c565b61029d6004803603604081101561028757600080fd5b50803590602001356001600160a01b0316610641565b005b6102a76106ad565b6040805160ff9092168252519081900360200190f35b61029d600480360360408110156102d357600080fd5b50803590602001356001600160a01b03166106b6565b6101f0600480360360408110156102ff57600080fd5b506001600160a01b038135169060200135610717565b61029d6004803603604081101561032b57600080fd5b506001600160a01b03813516906020013561076b565b61020c6004803603602081101561035757600080fd5b50356001600160a01b03166107f7565b61038a6004803603604081101561037d57600080fd5b5080359060200135610812565b604080516001600160a01b039092168252519081900360200190f35b6101f0600480360360408110156103bc57600080fd5b50803590602001356001600160a01b0316610837565b61014f610855565b61029d600480360360408110156103f057600080fd5b506001600160a01b0381351690602001356108b6565b61020c610942565b6101f06004803603604081101561042457600080fd5b506001600160a01b038135169060200135610947565b6101f06004803603604081101561045057600080fd5b506001600160a01b0381351690602001356109b5565b61020c6109c9565b61020c6004803603602081101561048457600080fd5b50356109f3565b61029d600480360360408110156104a157600080fd5b50803590602001356001600160a01b0316610a0a565b61020c600480360360408110156104cd57600080fd5b506001600160a01b0381358116916020013516610a63565b60038054604080516020601f60026000196101006001881615020190951694909404938401819004810282018101909252828152606093909290918301828280156105715780601f1061054657610100808354040283529160200191610571565b820191906000526020600020905b81548152906001019060200180831161055457829003601f168201915b5050505050905090565b600061058f610588610a8e565b8484610a92565b5060015b92915050565b60025490565b60006105ac848484610b7e565b610622846105b8610a8e565b61061d856040518060600160405280602881526020016113f4602891396001600160a01b038a166000908152600160205260408120906105f6610a8e565b6001600160a01b03168152602081019190915260400160002054919063ffffffff610ce516565b610a92565b5060019392505050565b60009081526006602052604090206002015490565b6000828152600660205260409020600201546106649061065f610a8e565b610837565b61069f5760405162461bcd60e51b815260040180806020018281038252602f81526020018061132b602f913960400191505060405180910390fd5b6106a98282610d7c565b5050565b60055460ff1690565b6106be610a8e565b6001600160a01b0316816001600160a01b03161461070d5760405162461bcd60e51b815260040180806020018281038252602f8152602001806114ab602f913960400191505060405180910390fd5b6106a98282610deb565b600061058f610724610a8e565b8461061d8560016000610735610a8e565b6001600160a01b03908116825260208083019390935260409182016000908120918c16815292529020549063ffffffff610e5a16565b6040805171544f4b454e5f4d414e414745525f524f4c4560701b8152905190819003601201902061079c9033610837565b6107ed576040805162461bcd60e51b815260206004820152601d60248201527f43616c6c6572206973206e6f74206120746f6b656e206d616e61676572000000604482015290519081900360640190fd5b6106a98282610eb4565b6001600160a01b031660009081526020819052604090205490565b6000828152600660205260408120610830908363ffffffff610fb016565b9392505050565b6000828152600660205260408120610830908363ffffffff610fbc16565b60048054604080516020601f60026000196101006001881615020190951694909404938401819004810282018101909252828152606093909290918301828280156105715780601f1061054657610100808354040283529160200191610571565b6040805171544f4b454e5f4d414e414745525f524f4c4560701b815290519081900360120190206108e79033610837565b610938576040805162461bcd60e51b815260206004820152601d60248201527f43616c6c6572206973206e6f74206120746f6b656e206d616e61676572000000604482015290519081900360640190fd5b6106a98282610fd1565b600081565b600061058f610954610a8e565b8461061d85604051806060016040528060258152602001611486602591396001600061097e610a8e565b6001600160a01b03908116825260208083019390935260409182016000908120918d1681529252902054919063ffffffff610ce516565b600061058f6109c2610a8e565b8484610b7e565b6040805171544f4b454e5f4d414e414745525f524f4c4560701b8152905190819003601201902081565b6000818152600660205260408120610593906110d9565b600082815260066020526040902060020154610a289061065f610a8e565b61070d5760405162461bcd60e51b81526004018080602001828103825260308152602001806113c46030913960400191505060405180910390fd5b6001600160a01b03918216600090815260016020908152604080832093909416825291909152205490565b3390565b6001600160a01b038316610ad75760405162461bcd60e51b81526004018080602001828103825260248152602001806114626024913960400191505060405180910390fd5b6001600160a01b038216610b1c5760405162461bcd60e51b815260040180806020018281038252602281526020018061137c6022913960400191505060405180910390fd5b6001600160a01b03808416600081815260016020908152604080832094871680845294825291829020859055815185815291517f8c5be1e5ebec7d5bd14f71427d1e84f3dd0314c0f7b2291e5b200ac8c7c3b9259281900390910190a3505050565b6001600160a01b038316610bc35760405162461bcd60e51b815260040180806020018281038252602581526020018061143d6025913960400191505060405180910390fd5b6001600160a01b038216610c085760405162461bcd60e51b81526004018080602001828103825260238152602001806113086023913960400191505060405180910390fd5b610c138383836110e4565b610c568160405180606001604052806026815260200161139e602691396001600160a01b038616600090815260208190526040902054919063ffffffff610ce516565b6001600160a01b038085166000908152602081905260408082209390935590841681522054610c8b908263ffffffff610e5a16565b6001600160a01b038084166000818152602081815260409182902094909455805185815290519193928716927fddf252ad1be2c89b69c2b068fc378daa952ba7f163c4a11628f55a4df523b3ef92918290030190a3505050565b60008184841115610d745760405162461bcd60e51b81526004018080602001828103825283818151815260200191508051906020019080838360005b83811015610d39578181015183820152602001610d21565b50505050905090810190601f168015610d665780820380516001836020036101000a031916815260200191505b509250505060405180910390fd5b505050900390565b6000828152600660205260409020610d9a908263ffffffff6110e916565b156106a957610da7610a8e565b6001600160a01b0316816001600160a01b0316837f2f8788117e7eff1d82e926ec794901d17c78024a50270940304540a733656f0d60405160405180910390a45050565b6000828152600660205260409020610e09908263ffffffff6110fe16565b156106a957610e16610a8e565b6001600160a01b0316816001600160a01b0316837ff6391f5c32d9c69d2a47ea670b442974b53935d1edc7fd64eb21e047a839171b60405160405180910390a45050565b600082820183811015610830576040805162461bcd60e51b815260206004820152601b60248201527f536166654d6174683a206164646974696f6e206f766572666c6f770000000000604482015290519081900360640190fd5b6001600160a01b038216610f0f576040805162461bcd60e51b815260206004820152601f60248201527f45524332303a206d696e7420746f20746865207a65726f206164647265737300604482015290519081900360640190fd5b610f1b600083836110e4565b600254610f2e908263ffffffff610e5a16565b6002556001600160a01b038216600090815260208190526040902054610f5a908263ffffffff610e5a16565b6001600160a01b0383166000818152602081815260408083209490945583518581529351929391927fddf252ad1be2c89b69c2b068fc378daa952ba7f163c4a11628f55a4df523b3ef9281900390910190a35050565b60006108308383611113565b6000610830836001600160a01b038416611177565b6001600160a01b0382166110165760405162461bcd60e51b815260040180806020018281038252602181526020018061141c6021913960400191505060405180910390fd5b611022826000836110e4565b6110658160405180606001604052806022815260200161135a602291396001600160a01b038516600090815260208190526040902054919063ffffffff610ce516565b6001600160a01b038316600090815260208190526040902055600254611091908263ffffffff61118f16565b6002556040805182815290516000916001600160a01b038516917fddf252ad1be2c89b69c2b068fc378daa952ba7f163c4a11628f55a4df523b3ef9181900360200190a35050565b6000610593826111d1565b505050565b6000610830836001600160a01b0384166111d5565b6000610830836001600160a01b03841661121f565b815460009082106111555760405162461bcd60e51b81526004018080602001828103825260228152602001806112e66022913960400191505060405180910390fd5b82600001828154811061116457fe5b9060005260206000200154905092915050565b60009081526001919091016020526040902054151590565b600061083083836040518060400160405280601e81526020017f536166654d6174683a207375627472616374696f6e206f766572666c6f770000815250610ce5565b5490565b60006111e18383611177565b61121757508154600181810184556000848152602080822090930184905584548482528286019093526040902091909155610593565b506000610593565b600081815260018301602052604081205480156112db578354600019808301919081019060009087908390811061125257fe5b906000526020600020015490508087600001848154811061126f57fe5b60009182526020808320909101929092558281526001898101909252604090209084019055865487908061129f57fe5b60019003818190600052602060002001600090559055866001016000878152602001908152602001600020600090556001945050505050610593565b600091505061059356fe456e756d657261626c655365743a20696e646578206f7574206f6620626f756e647345524332303a207472616e7366657220746f20746865207a65726f2061646472657373416363657373436f6e74726f6c3a2073656e646572206d75737420626520616e2061646d696e20746f206772616e7445524332303a206275726e20616d6f756e7420657863656564732062616c616e636545524332303a20617070726f766520746f20746865207a65726f206164647265737345524332303a207472616e7366657220616d6f756e7420657863656564732062616c616e6365416363657373436f6e74726f6c3a2073656e646572206d75737420626520616e2061646d696e20746f207265766f6b6545524332303a207472616e7366657220616d6f756e74206578636565647320616c6c6f77616e636545524332303a206275726e2066726f6d20746865207a65726f206164647265737345524332303a207472616e736665722066726f6d20746865207a65726f206164647265737345524332303a20617070726f76652066726f6d20746865207a65726f206164647265737345524332303a2064656372656173656420616c6c6f77616e63652062656c6f77207a65726f416363657373436f6e74726f6c3a2063616e206f6e6c792072656e6f756e636520726f6c657320666f722073656c66a2646970667358221220de0917a24d1afa46062b0591abd37e21077628d1ca8abafdeef1e6af07f0594b64736f6c63430006020033608060405234801561001057600080fd5b506040516115b43803806115b4833981810160405260a081101561003357600080fd5b508051602082015160408301516060840151608090940151600180546001600160a01b039586166001600160a01b031991821617909155600280549590941694811694909417909255600355600492909255600591909155600080549091163317905561150f806100a56000396000f3fe6080604052600436106100ec5760003560e01c8063a3d53d181161008a578063c814786511610059578063c8147865146103a3578063d3c576cd146103fe578063d933c066146104ea578063ff59bff8146105d6576100f6565b8063a3d53d1814610314578063a6c3e6b914610347578063ae702ba41461035c578063bb6e7de91461038c576100f6565b8063384c3335116100c6578063384c33351461020b5780636b40bba1146102205780636f264b2e1461023557806371d22d4d1461024a576100f6565b806310d92060146100fb57806318f321a31461012257806329d428ca146101f6576100f6565b366100f657600080fd5b600080fd5b34801561010757600080fd5b50610110610600565b60408051918252519081900360200190f35b34801561012e57600080fd5b506101da6004803603604081101561014557600080fd5b81359190810190604081016020820135600160201b81111561016657600080fd5b82018360208201111561017857600080fd5b803590602001918460018302840111600160201b8311171561019957600080fd5b91908080601f016020809104026020016040519081016040528093929190818152602001838380828437600092019190915250929550610606945050505050565b604080516001600160a01b039092168252519081900360200190f35b34801561020257600080fd5b5061011061062a565b34801561021757600080fd5b506101da610630565b34801561022c57600080fd5b5061011061063f565b34801561024157600080fd5b506101da610645565b34801561025657600080fd5b50610300600480360361010081101561026e57600080fd5b6001600160a01b038235811692602081013582169260408201359092169160608201359160808101359160a08201359160c081013591810190610100810160e0820135600160201b8111156102c257600080fd5b8201836020820111156102d457600080fd5b803590602001918460018302840111600160201b831117156102f557600080fd5b509092509050610654565b604080519115158252519081900360200190f35b34801561032057600080fd5b506101106004803603602081101561033757600080fd5b50356001600160a01b03166107e0565b34801561035357600080fd5b506101da6107f2565b34801561036857600080fd5b506103006004803603604081101561037f57600080fd5b5080359060200135610801565b34801561039857600080fd5b506103a161084a565b005b3480156103af57600080fd5b50610110600480360360e08110156103c657600080fd5b506001600160a01b03813581169160208101358216916040820135169060608101359060808101359060a08101359060c00135610864565b34801561040a57600080fd5b50610300600480360361010081101561042257600080fd5b6001600160a01b038235811692602081013582169260408201359092169160608201359160808101359160a08201359160c081013591810190610100810160e0820135600160201b81111561047657600080fd5b82018360208201111561048857600080fd5b803590602001918460018302840111600160201b831117156104a957600080fd5b91908080601f016020809104026020016040519081016040528093929190818152602001838380828437600092019190915250929550610b01945050505050565b3480156104f657600080fd5b50610300600480360361010081101561050e57600080fd5b6001600160a01b038235811692602081013582169260408201359092169160608201359160808101359160a08201359160c081013591810190610100810160e0820135600160201b81111561056257600080fd5b82018360208201111561057457600080fd5b803590602001918460018302840111600160201b8311171561059557600080fd5b91908080601f016020809104026020016040519081016040528093929190818152602001838380828437600092019190915250929550610f01945050505050565b3480156105e257600080fd5b50610110600480360360208110156105f957600080fd5b50356110af565b60055481565b600061062182610615856110c1565b9063ffffffff61111216565b90505b92915050565b60035481565b6001546001600160a01b031681565b60045481565b6002546001600160a01b031681565b6000806106668b8b8b8b8b8b8b610864565b905060006106aa8286868080601f01602080910402602001604051908101604052809392919081815260200183838082843760009201919091525061060692505050565b90508b6001600160a01b0316816001600160a01b0316146106fc5760405162461bcd60e51b815260040180806020018281038252602f815260200180611388602f913960400191505060405180910390fd5b6001600160a01b038c163314610759576040805162461bcd60e51b815260206004820181905260248201527f6d73672e73656e646572206973206e6f74207468652073756273637269626572604482015290519081900360640190fd5b600082815260066020908152604091829020600019905581516001600160a01b038d811682529181018c90528083018b9052606081018a9052608081018990529151818e1692918f16917f51a97a25211c2be9b0b1dd64ee1de490cdb047390e6eba984e6a1d126e6ac456919081900360a00190a35060019b9a5050505050505050505050565b60076020526000908152604090205481565b6000546001600160a01b031681565b600082815260066020526040812054600019141561082157506000610624565b600083815260066020526040902054610840908363ffffffff6112f916565b4211159392505050565b6000546001600160a01b0316331461086157600080fd5b33ff5b6001546000906001600160a01b0316158061088c57506001546001600160a01b038881169116145b6108dd576040805162461bcd60e51b815260206004820152601960248201527f7265717569726564546f41646472657373204661696c75726500000000000000604482015290519081900360640190fd5b6002546001600160a01b0316158061090257506002546001600160a01b038781169116145b610953576040805162461bcd60e51b815260206004820152601c60248201527f7265717569726564546f6b656e41646472657373204661696c75726500000000604482015290519081900360640190fd5b6003541580610963575060035485145b6109b4576040805162461bcd60e51b815260206004820152601b60248201527f7265717569726564546f6b656e416d6f756e74204661696c7572650000000000604482015290519081900360640190fd5b60045415806109c4575060045484145b610a15576040805162461bcd60e51b815260206004820152601d60248201527f7265717569726564506572696f645365636f6e6473204661696c757265000000604482015290519081900360640190fd5b6005541580610a25575060055483145b610a76576040805162461bcd60e51b815260206004820152601860248201527f72657175697265644761735072696365204661696c7572650000000000000000604482015290519081900360640190fd5b5060408051601960f81b6020808301919091526000602183015230606090811b60228401526bffffffffffffffffffffffff199a811b8b16603684015298891b8a16604a8301529690971b909716605e8701526072860193909352609285019190915260b284015260d2808401919091528351808403909101815260f2909201909252805191012090565b6000610b138989898989898989610f01565b610b4e5760405162461bcd60e51b81526004018080602001828103825260418152602001806114736041913960600191505060405180910390fd5b6000610b5f8a8a8a8a8a8a8a610864565b9050610b71428763ffffffff6112f916565b6000828152600660209081526040808320939093556001600160a01b038d168252600790522054841115610bbb576001600160a01b038a1660009081526007602052604090208490555b6000886001600160a01b03166370a082318b6040518263ffffffff1660e01b815260040180826001600160a01b03166001600160a01b0316815260200191505060206040518083038186803b158015610c1357600080fd5b505afa158015610c27573d6000803e3d6000fd5b505050506040513d6020811015610c3d57600080fd5b5051604080516323b872dd60e01b81526001600160a01b038e811660048301528d81166024830152604482018c90529151929350908b16916323b872dd916064808201926020929091908290030181600087803b158015610c9d57600080fd5b505af1158015610cb1573d6000803e3d6000fd5b505050506040513d6020811015610cc757600080fd5b5050604080516370a0823160e01b81526001600160a01b038c811660048301529151918b16916370a0823191602480820192602092909190829003018186803b158015610d1357600080fd5b505afa158015610d27573d6000803e3d6000fd5b505050506040513d6020811015610d3d57600080fd5b505181890114610d7e5760405162461bcd60e51b81526004018080602001828103825260268152602001806114b46026913960400191505060405180910390fd5b610d86611353565b610dc15760405162461bcd60e51b81526004018080602001828103825260358152602001806113b76035913960400191505060405180910390fd5b604080516001600160a01b038b81168252602082018b90528183018a905260608201899052608082018890529151828d16928e16917f96d296c945eee0618d3cc6f435f4d59f14bcefd708eab22c3de30df20b134793919081900360a00190a38515610ef057604080516323b872dd60e01b81526001600160a01b038d81166004830152336024830152604482018990529151918b16916323b872dd916064808201926020929091908290030181600087803b158015610e8057600080fd5b505af1158015610e94573d6000803e3d6000fd5b505050506040513d6020811015610eaa57600080fd5b50610eb59050611353565b610ef05760405162461bcd60e51b81526004018080602001828103825260438152602001806114306043913960600191505060405180910390fd5b5060019a9950505050505050505050565b600080610f138a8a8a8a8a8a8a610864565b90506000610f218285610606565b60408051636eb1769f60e11b81526001600160a01b038e811660048301523060248301529151929350600092918c169163dd62ed3e91604480820192602092909190829003018186803b158015610f7757600080fd5b505afa158015610f8b573d6000803e3d6000fd5b505050506040513d6020811015610fa157600080fd5b5051604080516370a0823160e01b81526001600160a01b038f811660048301529151929350600092918d16916370a0823191602480820192602092909190829003018186803b158015610ff357600080fd5b505afa158015611007573d6000803e3d6000fd5b505050506040513d602081101561101d57600080fd5b505190506001600160a01b03838116908e1614801561104e57508b6001600160a01b03168d6001600160a01b031614155b801561106857506000848152600660205260409020544210155b8015611083575061107f8a8963ffffffff6112f916565b8210155b801561109e575061109a8a8963ffffffff6112f916565b8110155b9d9c50505050505050505050505050565b60066020526000908152604090205481565b604080517f19457468657265756d205369676e6564204d6573736167653a0a333200000000602080830191909152603c8083019490945282518083039094018452605c909101909152815191012090565b6000815160411461116a576040805162461bcd60e51b815260206004820152601f60248201527f45434453413a20696e76616c6964207369676e6174757265206c656e67746800604482015290519081900360640190fd5b60208201516040830151606084015160001a7f7fffffffffffffffffffffffffffffff5d576e7357a4501ddfe92f46681b20a08211156111db5760405162461bcd60e51b81526004018080602001828103825260228152602001806113ec6022913960400191505060405180910390fd5b8060ff16601b141580156111f357508060ff16601c14155b1561122f5760405162461bcd60e51b815260040180806020018281038252602281526020018061140e6022913960400191505060405180910390fd5b60408051600080825260208083018085528a905260ff85168385015260608301879052608083018690529251909260019260a080820193601f1981019281900390910190855afa158015611287573d6000803e3d6000fd5b5050604051601f1901519150506001600160a01b0381166112ef576040805162461bcd60e51b815260206004820152601860248201527f45434453413a20696e76616c6964207369676e61747572650000000000000000604482015290519081900360640190fd5b9695505050505050565b600082820183811015610621576040805162461bcd60e51b815260206004820152601b60248201527f536166654d6174683a206164646974696f6e206f766572666c6f770000000000604482015290519081900360640190fd5b6000803d801561136a57602081146113735761137f565b6001915061137f565b60206000803e60005191505b50151590509056fe496e76616c6964205369676e617475726520666f7220737562736372697074696f6e2063616e63656c6c6174696f6e537562736372697074696f6e3a3a65786563757465537562736372697074696f6e205472616e7366657246726f6d206661696c656445434453413a20696e76616c6964207369676e6174757265202773272076616c756545434453413a20696e76616c6964207369676e6174757265202776272076616c7565537562736372697074696f6e3a3a65786563757465537562736372697074696f6e204661696c656420746f20706179206761732061732066726f6d206163636f756e74537562736372697074696f6e206973206e6f74207265616479206f7220636f6e646974696f6e73206f66207472616e736374696f6e20617265206e6f74206d657445524332302042616c616e636520646964206e6f74206368616e676520636f72726563746c79a26469706673582212206d34fe8a3df3962bebbf950343425267a5501f73048d50d001b3f849f44df76264736f6c63430006020033437572766520636f656666696369656e742073686f756c64206265206c657373207468616e2031303025436f6d6d697373696f6e2073686f756c64206265206c657373207468616e2031303025536166654d6174683a206d756c7469706c69636174696f6e206f766572666c6f7745544820697320726571756972656420746f20666f726d20626f6e757320746f6b656e7320706f6f6ca2646970667358221220c041f2306ef87b4d9c317bdbc462bab02bc165302bfd0b2eea62ae32243228fc64736f6c63430006020033",
  "source": "// SPDX-License-Identifier: MIT\npragma solidity >=0.6.0 <0.7.5;\n\nimport \"./SimplePOS.sol\";\nimport \"./interfaces/IUniswapExchange.sol\";\n\ncontract SimplePOSFactory {\n    event POSCreated(SimplePOS spos);\n\n    /**\n     * @dev Deploys Point of Sale\n     * @param _exchange Exchange for bonus token owners\n     * @param _sposTokenName SimplePOSToken name; SimplePOSToken controls bonus tokens pool\n     * @param _sposTokenSymbol SimplePOSToken symbol; SimplePOSToken controls bonus tokens pool\n     * @param _initialRatio SimplePOS creator sets up the initial ratio of bonus tokens pool to the SimplePOSToken supply\n     * @param _commission Commission on incoming payments that should form bonus tokens pool; [0..10000); 1 unit == 0.01%\n     * @param _curveCoefficient The bonding curve coefficient; [0..10000); 1 unit == 0.01%\n     */\n    function createPOS(\n        IUniswapExchange _exchange,\n        string calldata _sposTokenName,\n        string calldata _sposTokenSymbol,\n        uint256 _initialRatio,\n        uint256 _commission,\n        uint256 _curveCoefficient\n    ) external payable {\n        SimplePOS spos =\n            new SimplePOS{value: msg.value}(\n                _exchange,\n                _sposTokenName,\n                _sposTokenSymbol,\n                _initialRatio,\n                _commission,\n                _curveCoefficient,\n                msg.sender\n            );\n\n        emit POSCreated(spos);\n    }\n}\n",
  "sourcePath": "/Users/mmv/projects/simple-pos/simple-pos-contracts/contracts/SimplePOSFactory.sol",
  "compiler": {
    "name": "solc",
    "version": "0.6.2+commit.bacdbe57.Emscripten.clang"
  },
  "schemaVersion": "3.3.1",
  "updatedAt": "2020-12-26T05:35:07.820Z",
  "devdoc": {
    "methods": {
      "createPOS(address,string,string,uint256,uint256,uint256)": {
        "details": "Deploys Point of Sale",
        "params": {
          "_commission": "Commission on incoming payments that should form bonus tokens pool; [0..10000); 1 unit == 0.01%",
          "_curveCoefficient": "The bonding curve coefficient; [0..10000); 1 unit == 0.01%",
          "_exchange": "Exchange for bonus token owners",
          "_initialRatio": "SimplePOS creator sets up the initial ratio of bonus tokens pool to the SimplePOSToken supply",
          "_sposTokenName": "SimplePOSToken name; SimplePOSToken controls bonus tokens pool",
          "_sposTokenSymbol": "SimplePOSToken symbol; SimplePOSToken controls bonus tokens pool"
        }
      }
    }
  },
  "userdoc": {
    "methods": {}
  }
}