{
  "contractName": "Subscription",
  "abi": [
    {
      "inputs": [
        {
          "internalType": "address",
          "name": "_toAddress",
          "type": "address"
        },
        {
          "internalType": "address",
          "name": "_tokenAddress",
          "type": "address"
        },
        {
          "internalType": "uint256",
          "name": "_tokenAmount",
          "type": "uint256"
        },
        {
          "internalType": "uint256",
          "name": "_periodSeconds",
          "type": "uint256"
        },
        {
          "internalType": "uint256",
          "name": "_gasPrice",
          "type": "uint256"
        }
      ],
      "stateMutability": "nonpayable",
      "type": "constructor"
    },
    {
      "anonymous": false,
      "inputs": [
        {
          "indexed": true,
          "internalType": "address",
          "name": "from",
          "type": "address"
        },
        {
          "indexed": true,
          "internalType": "address",
          "name": "to",
          "type": "address"
        },
        {
          "indexed": false,
          "internalType": "address",
          "name": "tokenAddress",
          "type": "address"
        },
        {
          "indexed": false,
          "internalType": "uint256",
          "name": "tokenAmount",
          "type": "uint256"
        },
        {
          "indexed": false,
          "internalType": "uint256",
          "name": "periodSeconds",
          "type": "uint256"
        },
        {
          "indexed": false,
          "internalType": "uint256",
          "name": "gasPrice",
          "type": "uint256"
        },
        {
          "indexed": false,
          "internalType": "uint256",
          "name": "nonce",
          "type": "uint256"
        }
      ],
      "name": "CancelSubscription",
      "type": "event"
    },
    {
      "anonymous": false,
      "inputs": [
        {
          "indexed": true,
          "internalType": "address",
          "name": "from",
          "type": "address"
        },
        {
          "indexed": true,
          "internalType": "address",
          "name": "to",
          "type": "address"
        },
        {
          "indexed": false,
          "internalType": "address",
          "name": "tokenAddress",
          "type": "address"
        },
        {
          "indexed": false,
          "internalType": "uint256",
          "name": "tokenAmount",
          "type": "uint256"
        },
        {
          "indexed": false,
          "internalType": "uint256",
          "name": "periodSeconds",
          "type": "uint256"
        },
        {
          "indexed": false,
          "internalType": "uint256",
          "name": "gasPrice",
          "type": "uint256"
        },
        {
          "indexed": false,
          "internalType": "uint256",
          "name": "nonce",
          "type": "uint256"
        }
      ],
      "name": "ExecuteSubscription",
      "type": "event"
    },
    {
      "inputs": [],
      "name": "author",
      "outputs": [
        {
          "internalType": "address",
          "name": "",
          "type": "address"
        }
      ],
      "stateMutability": "view",
      "type": "function"
    },
    {
      "inputs": [
        {
          "internalType": "address",
          "name": "",
          "type": "address"
        }
      ],
      "name": "extraNonce",
      "outputs": [
        {
          "internalType": "uint256",
          "name": "",
          "type": "uint256"
        }
      ],
      "stateMutability": "view",
      "type": "function"
    },
    {
      "inputs": [
        {
          "internalType": "bytes32",
          "name": "",
          "type": "bytes32"
        }
      ],
      "name": "nextValidTimestamp",
      "outputs": [
        {
          "internalType": "uint256",
          "name": "",
          "type": "uint256"
        }
      ],
      "stateMutability": "view",
      "type": "function"
    },
    {
      "inputs": [],
      "name": "requiredGasPrice",
      "outputs": [
        {
          "internalType": "uint256",
          "name": "",
          "type": "uint256"
        }
      ],
      "stateMutability": "view",
      "type": "function"
    },
    {
      "inputs": [],
      "name": "requiredPeriodSeconds",
      "outputs": [
        {
          "internalType": "uint256",
          "name": "",
          "type": "uint256"
        }
      ],
      "stateMutability": "view",
      "type": "function"
    },
    {
      "inputs": [],
      "name": "requiredToAddress",
      "outputs": [
        {
          "internalType": "address",
          "name": "",
          "type": "address"
        }
      ],
      "stateMutability": "view",
      "type": "function"
    },
    {
      "inputs": [],
      "name": "requiredTokenAddress",
      "outputs": [
        {
          "internalType": "address",
          "name": "",
          "type": "address"
        }
      ],
      "stateMutability": "view",
      "type": "function"
    },
    {
      "inputs": [],
      "name": "requiredTokenAmount",
      "outputs": [
        {
          "internalType": "uint256",
          "name": "",
          "type": "uint256"
        }
      ],
      "stateMutability": "view",
      "type": "function"
    },
    {
      "stateMutability": "payable",
      "type": "receive"
    },
    {
      "inputs": [
        {
          "internalType": "bytes32",
          "name": "subscriptionHash",
          "type": "bytes32"
        },
        {
          "internalType": "uint256",
          "name": "gracePeriodSeconds",
          "type": "uint256"
        }
      ],
      "name": "isSubscriptionActive",
      "outputs": [
        {
          "internalType": "bool",
          "name": "",
          "type": "bool"
        }
      ],
      "stateMutability": "view",
      "type": "function"
    },
    {
      "inputs": [
        {
          "internalType": "address",
          "name": "from",
          "type": "address"
        },
        {
          "internalType": "address",
          "name": "to",
          "type": "address"
        },
        {
          "internalType": "address",
          "name": "tokenAddress",
          "type": "address"
        },
        {
          "internalType": "uint256",
          "name": "tokenAmount",
          "type": "uint256"
        },
        {
          "internalType": "uint256",
          "name": "periodSeconds",
          "type": "uint256"
        },
        {
          "internalType": "uint256",
          "name": "gasPrice",
          "type": "uint256"
        },
        {
          "internalType": "uint256",
          "name": "nonce",
          "type": "uint256"
        }
      ],
      "name": "getSubscriptionHash",
      "outputs": [
        {
          "internalType": "bytes32",
          "name": "",
          "type": "bytes32"
        }
      ],
      "stateMutability": "view",
      "type": "function"
    },
    {
      "inputs": [
        {
          "internalType": "bytes32",
          "name": "subscriptionHash",
          "type": "bytes32"
        },
        {
          "internalType": "bytes",
          "name": "signature",
          "type": "bytes"
        }
      ],
      "name": "getSubscriptionSigner",
      "outputs": [
        {
          "internalType": "address",
          "name": "",
          "type": "address"
        }
      ],
      "stateMutability": "pure",
      "type": "function"
    },
    {
      "inputs": [
        {
          "internalType": "address",
          "name": "from",
          "type": "address"
        },
        {
          "internalType": "address",
          "name": "to",
          "type": "address"
        },
        {
          "internalType": "address",
          "name": "tokenAddress",
          "type": "address"
        },
        {
          "internalType": "uint256",
          "name": "tokenAmount",
          "type": "uint256"
        },
        {
          "internalType": "uint256",
          "name": "periodSeconds",
          "type": "uint256"
        },
        {
          "internalType": "uint256",
          "name": "gasPrice",
          "type": "uint256"
        },
        {
          "internalType": "uint256",
          "name": "nonce",
          "type": "uint256"
        },
        {
          "internalType": "bytes",
          "name": "signature",
          "type": "bytes"
        }
      ],
      "name": "isSubscriptionReady",
      "outputs": [
        {
          "internalType": "bool",
          "name": "",
          "type": "bool"
        }
      ],
      "stateMutability": "view",
      "type": "function"
    },
    {
      "inputs": [
        {
          "internalType": "address",
          "name": "from",
          "type": "address"
        },
        {
          "internalType": "address",
          "name": "to",
          "type": "address"
        },
        {
          "internalType": "address",
          "name": "tokenAddress",
          "type": "address"
        },
        {
          "internalType": "uint256",
          "name": "tokenAmount",
          "type": "uint256"
        },
        {
          "internalType": "uint256",
          "name": "periodSeconds",
          "type": "uint256"
        },
        {
          "internalType": "uint256",
          "name": "gasPrice",
          "type": "uint256"
        },
        {
          "internalType": "uint256",
          "name": "nonce",
          "type": "uint256"
        },
        {
          "internalType": "bytes",
          "name": "signature",
          "type": "bytes"
        }
      ],
      "name": "cancelSubscription",
      "outputs": [
        {
          "internalType": "bool",
          "name": "success",
          "type": "bool"
        }
      ],
      "stateMutability": "nonpayable",
      "type": "function"
    },
    {
      "inputs": [
        {
          "internalType": "address",
          "name": "from",
          "type": "address"
        },
        {
          "internalType": "address",
          "name": "to",
          "type": "address"
        },
        {
          "internalType": "address",
          "name": "tokenAddress",
          "type": "address"
        },
        {
          "internalType": "uint256",
          "name": "tokenAmount",
          "type": "uint256"
        },
        {
          "internalType": "uint256",
          "name": "periodSeconds",
          "type": "uint256"
        },
        {
          "internalType": "uint256",
          "name": "gasPrice",
          "type": "uint256"
        },
        {
          "internalType": "uint256",
          "name": "nonce",
          "type": "uint256"
        },
        {
          "internalType": "bytes",
          "name": "signature",
          "type": "bytes"
        }
      ],
      "name": "executeSubscription",
      "outputs": [
        {
          "internalType": "bool",
          "name": "success",
          "type": "bool"
        }
      ],
      "stateMutability": "nonpayable",
      "type": "function"
    },
    {
      "inputs": [],
      "name": "endContract",
      "outputs": [],
      "stateMutability": "nonpayable",
      "type": "function"
    }
  ],
  "bytecode": "0x608060405234801561001057600080fd5b506040516115b43803806115b4833981810160405260a081101561003357600080fd5b508051602082015160408301516060840151608090940151600180546001600160a01b039586166001600160a01b031991821617909155600280549590941694811694909417909255600355600492909255600591909155600080549091163317905561150f806100a56000396000f3fe6080604052600436106100ec5760003560e01c8063a3d53d181161008a578063c814786511610059578063c8147865146103a3578063d3c576cd146103fe578063d933c066146104ea578063ff59bff8146105d6576100f6565b8063a3d53d1814610314578063a6c3e6b914610347578063ae702ba41461035c578063bb6e7de91461038c576100f6565b8063384c3335116100c6578063384c33351461020b5780636b40bba1146102205780636f264b2e1461023557806371d22d4d1461024a576100f6565b806310d92060146100fb57806318f321a31461012257806329d428ca146101f6576100f6565b366100f657600080fd5b600080fd5b34801561010757600080fd5b50610110610600565b60408051918252519081900360200190f35b34801561012e57600080fd5b506101da6004803603604081101561014557600080fd5b81359190810190604081016020820135600160201b81111561016657600080fd5b82018360208201111561017857600080fd5b803590602001918460018302840111600160201b8311171561019957600080fd5b91908080601f016020809104026020016040519081016040528093929190818152602001838380828437600092019190915250929550610606945050505050565b604080516001600160a01b039092168252519081900360200190f35b34801561020257600080fd5b5061011061062a565b34801561021757600080fd5b506101da610630565b34801561022c57600080fd5b5061011061063f565b34801561024157600080fd5b506101da610645565b34801561025657600080fd5b50610300600480360361010081101561026e57600080fd5b6001600160a01b038235811692602081013582169260408201359092169160608201359160808101359160a08201359160c081013591810190610100810160e0820135600160201b8111156102c257600080fd5b8201836020820111156102d457600080fd5b803590602001918460018302840111600160201b831117156102f557600080fd5b509092509050610654565b604080519115158252519081900360200190f35b34801561032057600080fd5b506101106004803603602081101561033757600080fd5b50356001600160a01b03166107e0565b34801561035357600080fd5b506101da6107f2565b34801561036857600080fd5b506103006004803603604081101561037f57600080fd5b5080359060200135610801565b34801561039857600080fd5b506103a161084a565b005b3480156103af57600080fd5b50610110600480360360e08110156103c657600080fd5b506001600160a01b03813581169160208101358216916040820135169060608101359060808101359060a08101359060c00135610864565b34801561040a57600080fd5b50610300600480360361010081101561042257600080fd5b6001600160a01b038235811692602081013582169260408201359092169160608201359160808101359160a08201359160c081013591810190610100810160e0820135600160201b81111561047657600080fd5b82018360208201111561048857600080fd5b803590602001918460018302840111600160201b831117156104a957600080fd5b91908080601f016020809104026020016040519081016040528093929190818152602001838380828437600092019190915250929550610b01945050505050565b3480156104f657600080fd5b50610300600480360361010081101561050e57600080fd5b6001600160a01b038235811692602081013582169260408201359092169160608201359160808101359160a08201359160c081013591810190610100810160e0820135600160201b81111561056257600080fd5b82018360208201111561057457600080fd5b803590602001918460018302840111600160201b8311171561059557600080fd5b91908080601f016020809104026020016040519081016040528093929190818152602001838380828437600092019190915250929550610f01945050505050565b3480156105e257600080fd5b50610110600480360360208110156105f957600080fd5b50356110af565b60055481565b600061062182610615856110c1565b9063ffffffff61111216565b90505b92915050565b60035481565b6001546001600160a01b031681565b60045481565b6002546001600160a01b031681565b6000806106668b8b8b8b8b8b8b610864565b905060006106aa8286868080601f01602080910402602001604051908101604052809392919081815260200183838082843760009201919091525061060692505050565b90508b6001600160a01b0316816001600160a01b0316146106fc5760405162461bcd60e51b815260040180806020018281038252602f815260200180611388602f913960400191505060405180910390fd5b6001600160a01b038c163314610759576040805162461bcd60e51b815260206004820181905260248201527f6d73672e73656e646572206973206e6f74207468652073756273637269626572604482015290519081900360640190fd5b600082815260066020908152604091829020600019905581516001600160a01b038d811682529181018c90528083018b9052606081018a9052608081018990529151818e1692918f16917f51a97a25211c2be9b0b1dd64ee1de490cdb047390e6eba984e6a1d126e6ac456919081900360a00190a35060019b9a5050505050505050505050565b60076020526000908152604090205481565b6000546001600160a01b031681565b600082815260066020526040812054600019141561082157506000610624565b600083815260066020526040902054610840908363ffffffff6112f916565b4211159392505050565b6000546001600160a01b0316331461086157600080fd5b33ff5b6001546000906001600160a01b0316158061088c57506001546001600160a01b038881169116145b6108dd576040805162461bcd60e51b815260206004820152601960248201527f7265717569726564546f41646472657373204661696c75726500000000000000604482015290519081900360640190fd5b6002546001600160a01b0316158061090257506002546001600160a01b038781169116145b610953576040805162461bcd60e51b815260206004820152601c60248201527f7265717569726564546f6b656e41646472657373204661696c75726500000000604482015290519081900360640190fd5b6003541580610963575060035485145b6109b4576040805162461bcd60e51b815260206004820152601b60248201527f7265717569726564546f6b656e416d6f756e74204661696c7572650000000000604482015290519081900360640190fd5b60045415806109c4575060045484145b610a15576040805162461bcd60e51b815260206004820152601d60248201527f7265717569726564506572696f645365636f6e6473204661696c757265000000604482015290519081900360640190fd5b6005541580610a25575060055483145b610a76576040805162461bcd60e51b815260206004820152601860248201527f72657175697265644761735072696365204661696c7572650000000000000000604482015290519081900360640190fd5b5060408051601960f81b6020808301919091526000602183015230606090811b60228401526bffffffffffffffffffffffff199a811b8b16603684015298891b8a16604a8301529690971b909716605e8701526072860193909352609285019190915260b284015260d2808401919091528351808403909101815260f2909201909252805191012090565b6000610b138989898989898989610f01565b610b4e5760405162461bcd60e51b81526004018080602001828103825260418152602001806114736041913960600191505060405180910390fd5b6000610b5f8a8a8a8a8a8a8a610864565b9050610b71428763ffffffff6112f916565b6000828152600660209081526040808320939093556001600160a01b038d168252600790522054841115610bbb576001600160a01b038a1660009081526007602052604090208490555b6000886001600160a01b03166370a082318b6040518263ffffffff1660e01b815260040180826001600160a01b03166001600160a01b0316815260200191505060206040518083038186803b158015610c1357600080fd5b505afa158015610c27573d6000803e3d6000fd5b505050506040513d6020811015610c3d57600080fd5b5051604080516323b872dd60e01b81526001600160a01b038e811660048301528d81166024830152604482018c90529151929350908b16916323b872dd916064808201926020929091908290030181600087803b158015610c9d57600080fd5b505af1158015610cb1573d6000803e3d6000fd5b505050506040513d6020811015610cc757600080fd5b5050604080516370a0823160e01b81526001600160a01b038c811660048301529151918b16916370a0823191602480820192602092909190829003018186803b158015610d1357600080fd5b505afa158015610d27573d6000803e3d6000fd5b505050506040513d6020811015610d3d57600080fd5b505181890114610d7e5760405162461bcd60e51b81526004018080602001828103825260268152602001806114b46026913960400191505060405180910390fd5b610d86611353565b610dc15760405162461bcd60e51b81526004018080602001828103825260358152602001806113b76035913960400191505060405180910390fd5b604080516001600160a01b038b81168252602082018b90528183018a905260608201899052608082018890529151828d16928e16917f96d296c945eee0618d3cc6f435f4d59f14bcefd708eab22c3de30df20b134793919081900360a00190a38515610ef057604080516323b872dd60e01b81526001600160a01b038d81166004830152336024830152604482018990529151918b16916323b872dd916064808201926020929091908290030181600087803b158015610e8057600080fd5b505af1158015610e94573d6000803e3d6000fd5b505050506040513d6020811015610eaa57600080fd5b50610eb59050611353565b610ef05760405162461bcd60e51b81526004018080602001828103825260438152602001806114306043913960600191505060405180910390fd5b5060019a9950505050505050505050565b600080610f138a8a8a8a8a8a8a610864565b90506000610f218285610606565b60408051636eb1769f60e11b81526001600160a01b038e811660048301523060248301529151929350600092918c169163dd62ed3e91604480820192602092909190829003018186803b158015610f7757600080fd5b505afa158015610f8b573d6000803e3d6000fd5b505050506040513d6020811015610fa157600080fd5b5051604080516370a0823160e01b81526001600160a01b038f811660048301529151929350600092918d16916370a0823191602480820192602092909190829003018186803b158015610ff357600080fd5b505afa158015611007573d6000803e3d6000fd5b505050506040513d602081101561101d57600080fd5b505190506001600160a01b03838116908e1614801561104e57508b6001600160a01b03168d6001600160a01b031614155b801561106857506000848152600660205260409020544210155b8015611083575061107f8a8963ffffffff6112f916565b8210155b801561109e575061109a8a8963ffffffff6112f916565b8110155b9d9c50505050505050505050505050565b60066020526000908152604090205481565b604080517f19457468657265756d205369676e6564204d6573736167653a0a333200000000602080830191909152603c8083019490945282518083039094018452605c909101909152815191012090565b6000815160411461116a576040805162461bcd60e51b815260206004820152601f60248201527f45434453413a20696e76616c6964207369676e6174757265206c656e67746800604482015290519081900360640190fd5b60208201516040830151606084015160001a7f7fffffffffffffffffffffffffffffff5d576e7357a4501ddfe92f46681b20a08211156111db5760405162461bcd60e51b81526004018080602001828103825260228152602001806113ec6022913960400191505060405180910390fd5b8060ff16601b141580156111f357508060ff16601c14155b1561122f5760405162461bcd60e51b815260040180806020018281038252602281526020018061140e6022913960400191505060405180910390fd5b60408051600080825260208083018085528a905260ff85168385015260608301879052608083018690529251909260019260a080820193601f1981019281900390910190855afa158015611287573d6000803e3d6000fd5b5050604051601f1901519150506001600160a01b0381166112ef576040805162461bcd60e51b815260206004820152601860248201527f45434453413a20696e76616c6964207369676e61747572650000000000000000604482015290519081900360640190fd5b9695505050505050565b600082820183811015610621576040805162461bcd60e51b815260206004820152601b60248201527f536166654d6174683a206164646974696f6e206f766572666c6f770000000000604482015290519081900360640190fd5b6000803d801561136a57602081146113735761137f565b6001915061137f565b60206000803e60005191505b50151590509056fe496e76616c6964205369676e617475726520666f7220737562736372697074696f6e2063616e63656c6c6174696f6e537562736372697074696f6e3a3a65786563757465537562736372697074696f6e205472616e7366657246726f6d206661696c656445434453413a20696e76616c6964207369676e6174757265202773272076616c756545434453413a20696e76616c6964207369676e6174757265202776272076616c7565537562736372697074696f6e3a3a65786563757465537562736372697074696f6e204661696c656420746f20706179206761732061732066726f6d206163636f756e74537562736372697074696f6e206973206e6f74207265616479206f7220636f6e646974696f6e73206f66207472616e736374696f6e20617265206e6f74206d657445524332302042616c616e636520646964206e6f74206368616e676520636f72726563746c79a26469706673582212206d34fe8a3df3962bebbf950343425267a5501f73048d50d001b3f849f44df76264736f6c63430006020033",
  "source": "pragma solidity >=0.6.0 <0.7.0;\n\n/*\n  I took it from here https://github.com/austintgriffith/tokensubscription.com/commit/bbefebf9c203b8700a34f56c15732ad30c368846\n  and fixed it (new solidity version; fixing executeSubscription)\n\n  Super Simple Token Subscriptions - https://tokensubscription.com\n  //// Breakin Through @ University of Wyoming ////\n  Austin Thomas Griffith - https://austingriffith.com\n  Building on previous works:\n    https://github.com/austintgriffith/token-subscription\n    https://gist.github.com/androolloyd/0a62ef48887be00a5eff5c17f2be849a\n    https://media.consensys.net/subscription-services-on-the-blockchain-erc-948-6ef64b083a36\n    https://medium.com/gitcoin/technical-deep-dive-architecture-choices-for-subscriptions-on-the-blockchain-erc948-5fae89cabc7a\n    https://github.com/ethereum/EIPs/pull/1337\n    https://github.com/ethereum/EIPs/blob/master/EIPS/eip-1077.md\n    https://github.com/gnosis/safe-contracts\n  Earlier Meta Transaction Demo:\n    https://github.com/austintgriffith/bouncer-proxy\n  Huge thanks, as always, to OpenZeppelin for the rad contracts:\n */\n\nimport \"@openzeppelin/contracts/cryptography/ECDSA.sol\";\nimport \"@openzeppelin/contracts/math/SafeMath.sol\";\nimport \"@openzeppelin/contracts/token/ERC20/ERC20.sol\";\n\n\ncontract Subscription {\n    using ECDSA for bytes32;\n    using SafeMath for uint256;\n\n    //who deploys the contract\n    address public author;\n\n    // the publisher may optionally deploy requirements for the subscription\n    // so only meta transactions that match the requirements can be relayed\n    address public requiredToAddress;\n    address public requiredTokenAddress;\n    uint256 public requiredTokenAmount;\n    uint256 public requiredPeriodSeconds;\n    uint256 public requiredGasPrice;\n\n    // similar to a nonce that avoids replay attacks this allows a single execution\n    // every x seconds for a given subscription\n    // subscriptionHash  => next valid block number\n    mapping(bytes32 => uint256) public nextValidTimestamp;\n\n    //we'll use a nonce for each from but because transactions can go through\n    //multiple times, we allow anything but users can use this as a signal for\n    //uniqueness\n    mapping(address => uint256) public extraNonce;\n\n    event ExecuteSubscription(\n        address indexed from, //the subscriber\n        address indexed to, //the publisher\n        address tokenAddress, //the token address paid to the publisher\n        uint256 tokenAmount, //the token amount paid to the publisher\n        uint256 periodSeconds, //the period in seconds between payments\n        uint256 gasPrice, //the amount of tokens to pay relayer (0 for free)\n        uint256 nonce // to allow multiple subscriptions with the same parameters\n    );\n\n    event CancelSubscription(\n        address indexed from, //the subscriber\n        address indexed to, //the publisher\n        address tokenAddress, //the token address paid to the publisher\n        uint256 tokenAmount, //the token amount paid to the publisher\n        uint256 periodSeconds, //the period in seconds between payments\n        uint256 gasPrice, //the amount of tokens to pay relayer (0 for free)\n        uint256 nonce // to allow multiple subscriptions with the same parameters\n    );\n\n    constructor(\n        address _toAddress,\n        address _tokenAddress,\n        uint256 _tokenAmount,\n        uint256 _periodSeconds,\n        uint256 _gasPrice\n    ) public {\n        requiredToAddress=_toAddress;\n        requiredTokenAddress=_tokenAddress;\n        requiredTokenAmount=_tokenAmount;\n        requiredPeriodSeconds=_periodSeconds;\n        requiredGasPrice=_gasPrice;\n        author=msg.sender;\n    }\n\n    // this is used by external smart contracts to verify on-chain that a\n    // particular subscription is \"paid\" and \"active\"\n    // there must be a small grace period added to allow the publisher\n    // or desktop miner to execute\n    function isSubscriptionActive(\n        bytes32 subscriptionHash,\n        uint256 gracePeriodSeconds\n    )\n        external\n        view\n        returns (bool)\n    {\n        if(nextValidTimestamp[subscriptionHash]==uint256(-1)){\n          return false;\n        }\n        return (block.timestamp <=\n                nextValidTimestamp[subscriptionHash].add(gracePeriodSeconds)\n        );\n    }\n\n    // given the subscription details, generate a hash and try to kind of follow\n    // the eip-191 standard and eip-1077 standard from my dude @avsa\n    function getSubscriptionHash(\n        address from, //the subscriber\n        address to, //the publisher\n        address tokenAddress, //the token address paid to the publisher\n        uint256 tokenAmount, //the token amount paid to the publisher\n        uint256 periodSeconds, //the period in seconds between payments\n        uint256 gasPrice, //the amount of tokens or eth to pay relayer (0 for free)\n        uint256 nonce // to allow multiple subscriptions with the same parameters\n    )\n        public\n        view\n        returns (bytes32)\n    {\n        // if there are requirements from the deployer, let's make sure\n        // those are met exactly\n        require( requiredToAddress == address(0) || to == requiredToAddress, \"requiredToAddress Failure\" );\n        require( requiredTokenAddress == address(0) || tokenAddress == requiredTokenAddress, \"requiredTokenAddress Failure\"  );\n        require( requiredTokenAmount == 0 || tokenAmount == requiredTokenAmount, \"requiredTokenAmount Failure\"  );\n        require( requiredPeriodSeconds == 0 || periodSeconds == requiredPeriodSeconds, \"requiredPeriodSeconds Failure\"  );\n        require( requiredGasPrice == 0 || gasPrice == requiredGasPrice, \"requiredGasPrice Failure\"  );\n\n        return keccak256(\n            abi.encodePacked(\n                byte(0x19),\n                byte(0),\n                address(this),\n                from,\n                to,\n                tokenAddress,\n                tokenAmount,\n                periodSeconds,\n                gasPrice,\n                nonce\n        ));\n    }\n\n    //ecrecover the signer from hash and the signature\n    function getSubscriptionSigner(\n        bytes32 subscriptionHash, //hash of subscription\n        bytes memory signature //proof the subscriber signed the meta trasaction\n    )\n        public\n        pure\n        returns (address)\n    {\n        return subscriptionHash.toEthSignedMessageHash().recover(signature);\n    }\n\n    //check if a subscription is signed correctly and the timestamp is ready for\n    // the next execution to happen\n    function isSubscriptionReady(\n        address from, //the subscriber\n        address to, //the publisher\n        address tokenAddress, //the token address paid to the publisher\n        uint256 tokenAmount, //the token amount paid to the publisher\n        uint256 periodSeconds, //the period in seconds between payments\n        uint256 gasPrice, //the amount of the token to incentivize the relay network\n        uint256 nonce,// to allow multiple subscriptions with the same parameters\n        bytes memory signature //proof the subscriber signed the meta trasaction\n    )\n        public\n        view\n        returns (bool)\n    {\n        bytes32 subscriptionHash = getSubscriptionHash(\n            from, to, tokenAddress, tokenAmount, periodSeconds, gasPrice, nonce\n        );\n        address signer = getSubscriptionSigner(subscriptionHash, signature);\n        uint256 allowance = ERC20(tokenAddress).allowance(from, address(this));\n        uint256 balance = ERC20(tokenAddress).balanceOf(from);\n\n        return (\n            signer == from &&\n            from != to &&\n            block.timestamp >= nextValidTimestamp[subscriptionHash] &&\n            allowance >= tokenAmount.add(gasPrice) &&\n            balance >= tokenAmount.add(gasPrice)\n        );\n    }\n\n    // you don't really need this if you are using the approve/transferFrom method\n    // because you control the flow of tokens by approving this contract address,\n    // but to make the contract an extensible example for later user I'll add this\n    function cancelSubscription(\n        address from, //the subscriber\n        address to, //the publisher\n        address tokenAddress, //the token address paid to the publisher\n        uint256 tokenAmount, //the token amount paid to the publisher\n        uint256 periodSeconds, //the period in seconds between payments\n        uint256 gasPrice, //the amount of tokens or eth to pay relayer (0 for free)\n        uint256 nonce, //to allow multiple subscriptions with the same parameters\n        bytes calldata signature //proof the subscriber signed the meta trasaction\n    )\n        external\n        returns (bool success)\n    {\n        bytes32 subscriptionHash = getSubscriptionHash(\n            from, to, tokenAddress, tokenAmount, periodSeconds, gasPrice, nonce\n        );\n        address signer = getSubscriptionSigner(subscriptionHash, signature);\n\n        //the signature must be valid\n        require(signer == from, \"Invalid Signature for subscription cancellation\");\n\n        //make sure it's the subscriber\n        require(from == msg.sender, 'msg.sender is not the subscriber');\n\n        //nextValidTimestamp should be a timestamp that will never\n        //be reached during the brief window human existence\n        nextValidTimestamp[subscriptionHash]=uint256(-1);\n\n        emit CancelSubscription(\n            from, to, tokenAddress, tokenAmount, periodSeconds, gasPrice, nonce\n        );\n\n        return true;\n    }\n\n    // execute the transferFrom to pay the publisher from the subscriber\n    // the subscriber has full control by approving this contract an allowance\n    function executeSubscription(\n        address from, //the subscriber\n        address to, //the publisher\n        address tokenAddress, //the token address paid to the publisher\n        uint256 tokenAmount, //the token amount paid to the publisher\n        uint256 periodSeconds, //the period in seconds between payments\n        uint256 gasPrice, //the amount of tokens or eth to pay relayer (0 for free)\n        uint256 nonce, // to allow multiple subscriptions with the same parameters\n        bytes memory signature //proof the subscriber signed the meta trasaction\n    )\n        public\n        returns (bool success)\n    {\n        // make sure the subscription is valid and ready\n        require(isSubscriptionReady(from, to, tokenAddress, tokenAmount, periodSeconds, gasPrice, nonce, signature), \n                \"Subscription is not ready or conditions of transction are not met\");\n\n        // pulled this out so I have the hash, should be exact code as \"isSubscriptionReady\"\n        bytes32 subscriptionHash = getSubscriptionHash(\n            from, to, tokenAddress, tokenAmount, periodSeconds, gasPrice, nonce\n        );\n\n        //increment the timestamp by the period so it wont be valid until then\n        nextValidTimestamp[subscriptionHash] = block.timestamp.add(periodSeconds);\n\n        //check to see if this nonce is larger than the current count and we'll set that for this 'from'\n        if(nonce > extraNonce[from]){\n          extraNonce[from] = nonce;\n        }\n\n        // now, let make the transfer from the subscriber to the publisher\n        uint256 startingBalance = ERC20(tokenAddress).balanceOf(to);\n        ERC20(tokenAddress).transferFrom(from,to,tokenAmount);\n        require(\n          (startingBalance+tokenAmount) == ERC20(tokenAddress).balanceOf(to),\n          \"ERC20 Balance did not change correctly\"\n        );\n\n        require(\n          checkSuccess(),\n          \"Subscription::executeSubscription TransferFrom failed\"\n        );\n\n\n        emit ExecuteSubscription(\n            from, to, tokenAddress, tokenAmount, periodSeconds, gasPrice, nonce\n        );\n\n        // it is possible for the subscription execution to be run by a third party\n        // incentivized in the terms of the subscription with a gasPrice of the tokens\n        //  - pay that out now...\n        if (gasPrice > 0) {\n            //the relayer is incentivized by a little of the same token from\n            // the subscriber ... as far as the subscriber knows, they are\n            // just sending X tokens to the publisher, but the publisher can\n            // choose to send Y of those X to a relayer to run their transactions\n            // the publisher will receive X - Y tokens\n            // this must all be setup in the constructor\n            // if not, the subscriber chooses all the params including what goes\n            // to the publisher and what goes to the relayer\n            ERC20(tokenAddress).transferFrom(from, msg.sender, gasPrice);\n            require(\n                checkSuccess(),\n                \"Subscription::executeSubscription Failed to pay gas as from account\"\n            );\n        }\n\n        return true;\n    }\n\n    // because of issues with non-standard erc20s the transferFrom can always return false\n    // to fix this we run it and then check the return of the previous function:\n    //    https://github.com/ethereum/solidity/issues/4116\n    /**\n     * Checks the return value of the previous function. Returns true if the previous function\n     * function returned 32 non-zero bytes or returned zero bytes.\n     */\n    function checkSuccess(\n    )\n        private\n        pure\n        returns (bool)\n    {\n        uint256 returnValue = 0;\n\n        /* solium-disable-next-line security/no-inline-assembly */\n        assembly {\n            // check number of bytes returned from last function call\n            switch returndatasize()\n            // no bytes returned: assume success\n            case 0x0 {\n                returnValue := 1\n            }\n\n            // 32 bytes returned: check if non-zero\n            case 0x20 {\n                // copy 32 bytes into scratch space\n                returndatacopy(0x0, 0x0, 0x20)\n\n                // load those bytes into returnValue\n                returnValue := mload(0x0)\n            }\n            // not sure what was returned: dont mark as success\n            default { }\n        }\n\n        return returnValue != 0;\n    }\n\n    // we would like a way for the author to completly destroy the subscription\n    // contract to prevent further transfers\n    function endContract()\n        external\n    {\n      require(msg.sender==author);\n      selfdestruct(msg.sender);\n    }\n\n    // let's go ahead and revert any ETH sent directly to the contract\n    receive() external payable {\n       revert ();\n    }\n}\n",
  "sourcePath": "/Users/mmv/projects/simple-pos/simple-pos-contracts/contracts/subscription/Subscription.sol",
  "compiler": {
    "name": "solc",
    "version": "0.6.2+commit.bacdbe57.Emscripten.clang"
  },
  "schemaVersion": "3.3.1",
  "updatedAt": "2020-12-26T05:35:07.823Z",
  "devdoc": {
    "methods": {}
  },
  "userdoc": {
    "methods": {}
  }
}